{
	"data": {
		"bytecode": {
			"linkReferences": {},
			"object": "608060405234801561001057600080fd5b506110bf806100206000396000f3fe608060405234801561001057600080fd5b506004361061002b5760003560e01c8063f48d772914610030575b600080fd5b61004a60048036038101906100459190610f75565b610060565b6040516100579190610fc2565b60405180910390f35b600080600167ffffffffffffffff8111801561007b57600080fd5b506040519080825280602002602001820160405280156100aa5781602001602082028036833780820191505090505b50905060005b60018110156100ef578381600181106100c557fe5b60200201518282815181106100d657fe5b60200260200101818152505080806001019150506100b0565b5060006100fc8286610118565b141561010c576001915050610112565b60009150505b92915050565b6000807f30644e72e131a029b85045b68181585d2833e84879b9709143e1f593f00000019050600061014861027b565b905080608001515160018651011461015f57600080fd5b60006040518060400160405280600081526020016000815250905060005b86518110156101f4578387828151811061019357fe5b6020026020010151106101a557600080fd5b6101e5826101e0856080015160018501815181106101bf57fe5b60200260200101518a85815181106101d357fe5b602002602001015161066f565b610701565b9150808060010191505061017d565b5061021781836080015160008151811061020a57fe5b6020026020010151610701565b905061025d8560000151866020015161022f846107b2565b85604001516102418a604001516107b2565b876060015161025389600001516107b2565b896020015161084c565b61026d5760019350505050610275565b600093505050505b92915050565b610283610c44565b60405180604001604052807f279e985f7f112c664efb572451fd77300d02c8dd247ef3cd181508a1c72c09ec81526020017f2b4f0c7db13f64da24ad741a18a874e184661af7acd3e65e3c9a730370fb969a8152508160000181905250604051806040016040528060405180604001604052807f0d3b4c19daa587b054d7f39cf23d82ae42ac4e0c881517f3e69b467fc1e57e1881526020017f0cfeaed21ec45b3cc31514a05e86ebed17e684570b05d398079d076a7a2674fa815250815260200160405180604001604052807f1fc8d5ccde6ffabbd9f55b8f87f9f8aca6a51766f2981651b31ce47a1c6434fb81526020017f22ba52e7737d0099e519711615b272f7f3b9c17819a28da09de9488289e02ed88152508152508160200181905250604051806040016040528060405180604001604052807f09111e364336c2e286515c87c6f06c6487af2be7a2c5717bb9af2d9e99dbe3d181526020017f1ac8f6cd5fc86962ec711262c8a87c71831cc858a17e00200a6af066a1038857815250815260200160405180604001604052807f17f52a350e4c41d3987ef3391a58055716d3553a2a3c97d6f7492e8ab677f0b681526020017f2f9d19f1218c003002d09237603a7b94c389004aad77696651e35dd01b6a7b728152508152508160400181905250604051806040016040528060405180604001604052807f23d394975811539663b0780ee63a712ea26d742d6b55c9f96337f24990f22f4881526020017f065aa761e9103f6686ff4cffd6a1f37265cc874613b55b6ef17ab60d9b6ef074815250815260200160405180604001604052807f296fb02adf5f670c7beb39875dc82cf21b5cee85dfde7ea4d978a84c59d1181981526020017f09cb81cb080ed79887edd964d107a6fc21b9cec13511ce9f5a51febc5430650c8152508152508160600181905250600267ffffffffffffffff8111801561054757600080fd5b5060405190808252806020026020018201604052801561058157816020015b61056e610c8b565b8152602001906001900390816105665790505b50816080018190525060405180604001604052807f0d908a5650ad5de280ca9a0cdfa73cc4febe207ccef7be41f18ef26d6cb097e281526020017f2498d0c069b66f8a1645e975e52b8a3f16c4a8a94b79e3eb9ecd7d449821c9ed81525081608001516000815181106105f057fe5b602002602001018190525060405180604001604052807f0e02fa37c101f36563589a92ebb4326fa27dfd4342754511f95428462d7812b781526020017f2e832d29854f8365b69b63ae8278a89a1767e7649cd732f26b8d7eceadefe592815250816080015160018151811061066157fe5b602002602001018190525090565b610677610c8b565b61067f610ca5565b83600001518160006003811061069157fe5b6020020181815250508360200151816001600381106106ac57fe5b60200201818152505082816002600381106106c357fe5b602002018181525050600060608360808460076107d05a03fa905080600081146106ec576106ee565bfe5b50806106f957600080fd5b505092915050565b610709610c8b565b610711610cc7565b83600001518160006004811061072357fe5b60200201818152505083602001518160016004811061073e57fe5b60200201818152505082600001518160026004811061075957fe5b60200201818152505082602001518160036004811061077457fe5b602002018181525050600060608360c08460066107d05a03fa9050806000811461079d5761079f565bfe5b50806107aa57600080fd5b505092915050565b6107ba610c8b565b60007f30644e72e131a029b85045b68181585d97816a916871ca8d3c208c16d87cfd479050600083600001511480156107f7575060008360200151145b1561081b576040518060400160405280600081526020016000815250915050610847565b6040518060400160405280846000015181526020018285602001518161083d57fe5b0683038152509150505b919050565b600080600467ffffffffffffffff8111801561086757600080fd5b506040519080825280602002602001820160405280156108a157816020015b61088e610c8b565b8152602001906001900390816108865790505b5090506000600467ffffffffffffffff811180156108be57600080fd5b506040519080825280602002602001820160405280156108f857816020015b6108e5610ce9565b8152602001906001900390816108dd5790505b5090508a8260008151811061090957fe5b6020026020010181905250888260018151811061092257fe5b6020026020010181905250868260028151811061093b57fe5b6020026020010181905250848260038151811061095457fe5b6020026020010181905250898160008151811061096d57fe5b6020026020010181905250878160018151811061098657fe5b6020026020010181905250858160028151811061099f57fe5b602002602001018190525083816003815181106109b857fe5b60200260200101819052506109cd82826109dd565b9250505098975050505050505050565b600081518351146109ed57600080fd5b600083519050600060068202905060008167ffffffffffffffff81118015610a1457600080fd5b50604051908082528060200260200182016040528015610a435781602001602082028036833780820191505090505b50905060005b83811015610be657868181518110610a5d57fe5b602002602001015160000151826000600684020181518110610a7b57fe5b602002602001018181525050868181518110610a9357fe5b602002602001015160200151826001600684020181518110610ab157fe5b602002602001018181525050858181518110610ac957fe5b602002602001015160000151600160028110610ae157fe5b6020020151826002600684020181518110610af857fe5b602002602001018181525050858181518110610b1057fe5b602002602001015160000151600060028110610b2857fe5b6020020151826003600684020181518110610b3f57fe5b602002602001018181525050858181518110610b5757fe5b602002602001015160200151600160028110610b6f57fe5b6020020151826004600684020181518110610b8657fe5b602002602001018181525050858181518110610b9e57fe5b602002602001015160200151600060028110610bb657fe5b6020020151826005600684020181518110610bcd57fe5b6020026020010181815250508080600101915050610a49565b50610bef610d0f565b6000602082602086026020860160086107d05a03fa90508060008114610c1457610c16565bfe5b5080610c2157600080fd5b600082600060018110610c3057fe5b602002015114159550505050505092915050565b6040518060a00160405280610c57610c8b565b8152602001610c64610ce9565b8152602001610c71610ce9565b8152602001610c7e610ce9565b8152602001606081525090565b604051806040016040528060008152602001600081525090565b6040518060600160405280600390602082028036833780820191505090505090565b6040518060800160405280600490602082028036833780820191505090505090565b6040518060400160405280610cfc610d31565b8152602001610d09610d31565b81525090565b6040518060200160405280600190602082028036833780820191505090505090565b6040518060400160405280600290602082028036833780820191505090505090565b6000610d66610d618461100e565b610fdd565b90508082856020860282011115610d7c57600080fd5b60005b85811015610dac5781610d928882610f60565b845260208401935060208301925050600181019050610d7f565b5050509392505050565b6000610dc9610dc484611034565b610fdd565b90508082856020860282011115610ddf57600080fd5b60005b85811015610e0f5781610df58882610f60565b845260208401935060208301925050600181019050610de2565b5050509392505050565b600082601f830112610e2a57600080fd5b6001610e37848285610d53565b91505092915050565b600082601f830112610e5157600080fd5b6002610e5e848285610db6565b91505092915050565b600060408284031215610e7957600080fd5b610e836040610fdd565b90506000610e9384828501610f60565b6000830152506020610ea784828501610f60565b60208301525092915050565b600060808284031215610ec557600080fd5b610ecf6040610fdd565b90506000610edf84828501610e40565b6000830152506040610ef384828501610e40565b60208301525092915050565b60006101008284031215610f1257600080fd5b610f1c6060610fdd565b90506000610f2c84828501610e67565b6000830152506040610f4084828501610eb3565b60208301525060c0610f5484828501610e67565b60408301525092915050565b600081359050610f6f81611072565b92915050565b6000806101208385031215610f8957600080fd5b6000610f9785828601610eff565b925050610100610fa985828601610e19565b9150509250929050565b610fbc8161105a565b82525050565b6000602082019050610fd76000830184610fb3565b92915050565b6000604051905081810181811067ffffffffffffffff8211171561100457611003611070565b5b8060405250919050565b600067ffffffffffffffff82111561102957611028611070565b5b602082029050919050565b600067ffffffffffffffff82111561104f5761104e611070565b5b602082029050919050565b60008115159050919050565b6000819050919050565bfe5b61107b81611066565b811461108657600080fd5b5056fea26469706673582212209896fa3ff8c93b5067d5d6eed5d4dcdc635003409631b6ab969a8ebe5c85d39764736f6c63430007060033",
			"opcodes": "PUSH1 0x80 PUSH1 0x40 MSTORE CALLVALUE DUP1 ISZERO PUSH2 0x10 JUMPI PUSH1 0x0 DUP1 REVERT JUMPDEST POP PUSH2 0x10BF DUP1 PUSH2 0x20 PUSH1 0x0 CODECOPY PUSH1 0x0 RETURN INVALID PUSH1 0x80 PUSH1 0x40 MSTORE CALLVALUE DUP1 ISZERO PUSH2 0x10 JUMPI PUSH1 0x0 DUP1 REVERT JUMPDEST POP PUSH1 0x4 CALLDATASIZE LT PUSH2 0x2B JUMPI PUSH1 0x0 CALLDATALOAD PUSH1 0xE0 SHR DUP1 PUSH4 0xF48D7729 EQ PUSH2 0x30 JUMPI JUMPDEST PUSH1 0x0 DUP1 REVERT JUMPDEST PUSH2 0x4A PUSH1 0x4 DUP1 CALLDATASIZE SUB DUP2 ADD SWAP1 PUSH2 0x45 SWAP2 SWAP1 PUSH2 0xF75 JUMP JUMPDEST PUSH2 0x60 JUMP JUMPDEST PUSH1 0x40 MLOAD PUSH2 0x57 SWAP2 SWAP1 PUSH2 0xFC2 JUMP JUMPDEST PUSH1 0x40 MLOAD DUP1 SWAP2 SUB SWAP1 RETURN JUMPDEST PUSH1 0x0 DUP1 PUSH1 0x1 PUSH8 0xFFFFFFFFFFFFFFFF DUP2 GT DUP1 ISZERO PUSH2 0x7B JUMPI PUSH1 0x0 DUP1 REVERT JUMPDEST POP PUSH1 0x40 MLOAD SWAP1 DUP1 DUP3 MSTORE DUP1 PUSH1 0x20 MUL PUSH1 0x20 ADD DUP3 ADD PUSH1 0x40 MSTORE DUP1 ISZERO PUSH2 0xAA JUMPI DUP2 PUSH1 0x20 ADD PUSH1 0x20 DUP3 MUL DUP1 CALLDATASIZE DUP4 CALLDATACOPY DUP1 DUP3 ADD SWAP2 POP POP SWAP1 POP JUMPDEST POP SWAP1 POP PUSH1 0x0 JUMPDEST PUSH1 0x1 DUP2 LT ISZERO PUSH2 0xEF JUMPI DUP4 DUP2 PUSH1 0x1 DUP2 LT PUSH2 0xC5 JUMPI INVALID JUMPDEST PUSH1 0x20 MUL ADD MLOAD DUP3 DUP3 DUP2 MLOAD DUP2 LT PUSH2 0xD6 JUMPI INVALID JUMPDEST PUSH1 0x20 MUL PUSH1 0x20 ADD ADD DUP2 DUP2 MSTORE POP POP DUP1 DUP1 PUSH1 0x1 ADD SWAP2 POP POP PUSH2 0xB0 JUMP JUMPDEST POP PUSH1 0x0 PUSH2 0xFC DUP3 DUP7 PUSH2 0x118 JUMP JUMPDEST EQ ISZERO PUSH2 0x10C JUMPI PUSH1 0x1 SWAP2 POP POP PUSH2 0x112 JUMP JUMPDEST PUSH1 0x0 SWAP2 POP POP JUMPDEST SWAP3 SWAP2 POP POP JUMP JUMPDEST PUSH1 0x0 DUP1 PUSH32 0x30644E72E131A029B85045B68181585D2833E84879B9709143E1F593F0000001 SWAP1 POP PUSH1 0x0 PUSH2 0x148 PUSH2 0x27B JUMP JUMPDEST SWAP1 POP DUP1 PUSH1 0x80 ADD MLOAD MLOAD PUSH1 0x1 DUP7 MLOAD ADD EQ PUSH2 0x15F JUMPI PUSH1 0x0 DUP1 REVERT JUMPDEST PUSH1 0x0 PUSH1 0x40 MLOAD DUP1 PUSH1 0x40 ADD PUSH1 0x40 MSTORE DUP1 PUSH1 0x0 DUP2 MSTORE PUSH1 0x20 ADD PUSH1 0x0 DUP2 MSTORE POP SWAP1 POP PUSH1 0x0 JUMPDEST DUP7 MLOAD DUP2 LT ISZERO PUSH2 0x1F4 JUMPI DUP4 DUP8 DUP3 DUP2 MLOAD DUP2 LT PUSH2 0x193 JUMPI INVALID JUMPDEST PUSH1 0x20 MUL PUSH1 0x20 ADD ADD MLOAD LT PUSH2 0x1A5 JUMPI PUSH1 0x0 DUP1 REVERT JUMPDEST PUSH2 0x1E5 DUP3 PUSH2 0x1E0 DUP6 PUSH1 0x80 ADD MLOAD PUSH1 0x1 DUP6 ADD DUP2 MLOAD DUP2 LT PUSH2 0x1BF JUMPI INVALID JUMPDEST PUSH1 0x20 MUL PUSH1 0x20 ADD ADD MLOAD DUP11 DUP6 DUP2 MLOAD DUP2 LT PUSH2 0x1D3 JUMPI INVALID JUMPDEST PUSH1 0x20 MUL PUSH1 0x20 ADD ADD MLOAD PUSH2 0x66F JUMP JUMPDEST PUSH2 0x701 JUMP JUMPDEST SWAP2 POP DUP1 DUP1 PUSH1 0x1 ADD SWAP2 POP POP PUSH2 0x17D JUMP JUMPDEST POP PUSH2 0x217 DUP2 DUP4 PUSH1 0x80 ADD MLOAD PUSH1 0x0 DUP2 MLOAD DUP2 LT PUSH2 0x20A JUMPI INVALID JUMPDEST PUSH1 0x20 MUL PUSH1 0x20 ADD ADD MLOAD PUSH2 0x701 JUMP JUMPDEST SWAP1 POP PUSH2 0x25D DUP6 PUSH1 0x0 ADD MLOAD DUP7 PUSH1 0x20 ADD MLOAD PUSH2 0x22F DUP5 PUSH2 0x7B2 JUMP JUMPDEST DUP6 PUSH1 0x40 ADD MLOAD PUSH2 0x241 DUP11 PUSH1 0x40 ADD MLOAD PUSH2 0x7B2 JUMP JUMPDEST DUP8 PUSH1 0x60 ADD MLOAD PUSH2 0x253 DUP10 PUSH1 0x0 ADD MLOAD PUSH2 0x7B2 JUMP JUMPDEST DUP10 PUSH1 0x20 ADD MLOAD PUSH2 0x84C JUMP JUMPDEST PUSH2 0x26D JUMPI PUSH1 0x1 SWAP4 POP POP POP POP PUSH2 0x275 JUMP JUMPDEST PUSH1 0x0 SWAP4 POP POP POP POP JUMPDEST SWAP3 SWAP2 POP POP JUMP JUMPDEST PUSH2 0x283 PUSH2 0xC44 JUMP JUMPDEST PUSH1 0x40 MLOAD DUP1 PUSH1 0x40 ADD PUSH1 0x40 MSTORE DUP1 PUSH32 0x279E985F7F112C664EFB572451FD77300D02C8DD247EF3CD181508A1C72C09EC DUP2 MSTORE PUSH1 0x20 ADD PUSH32 0x2B4F0C7DB13F64DA24AD741A18A874E184661AF7ACD3E65E3C9A730370FB969A DUP2 MSTORE POP DUP2 PUSH1 0x0 ADD DUP2 SWAP1 MSTORE POP PUSH1 0x40 MLOAD DUP1 PUSH1 0x40 ADD PUSH1 0x40 MSTORE DUP1 PUSH1 0x40 MLOAD DUP1 PUSH1 0x40 ADD PUSH1 0x40 MSTORE DUP1 PUSH32 0xD3B4C19DAA587B054D7F39CF23D82AE42AC4E0C881517F3E69B467FC1E57E18 DUP2 MSTORE PUSH1 0x20 ADD PUSH32 0xCFEAED21EC45B3CC31514A05E86EBED17E684570B05D398079D076A7A2674FA DUP2 MSTORE POP DUP2 MSTORE PUSH1 0x20 ADD PUSH1 0x40 MLOAD DUP1 PUSH1 0x40 ADD PUSH1 0x40 MSTORE DUP1 PUSH32 0x1FC8D5CCDE6FFABBD9F55B8F87F9F8ACA6A51766F2981651B31CE47A1C6434FB DUP2 MSTORE PUSH1 0x20 ADD PUSH32 0x22BA52E7737D0099E519711615B272F7F3B9C17819A28DA09DE9488289E02ED8 DUP2 MSTORE POP DUP2 MSTORE POP DUP2 PUSH1 0x20 ADD DUP2 SWAP1 MSTORE POP PUSH1 0x40 MLOAD DUP1 PUSH1 0x40 ADD PUSH1 0x40 MSTORE DUP1 PUSH1 0x40 MLOAD DUP1 PUSH1 0x40 ADD PUSH1 0x40 MSTORE DUP1 PUSH32 0x9111E364336C2E286515C87C6F06C6487AF2BE7A2C5717BB9AF2D9E99DBE3D1 DUP2 MSTORE PUSH1 0x20 ADD PUSH32 0x1AC8F6CD5FC86962EC711262C8A87C71831CC858A17E00200A6AF066A1038857 DUP2 MSTORE POP DUP2 MSTORE PUSH1 0x20 ADD PUSH1 0x40 MLOAD DUP1 PUSH1 0x40 ADD PUSH1 0x40 MSTORE DUP1 PUSH32 0x17F52A350E4C41D3987EF3391A58055716D3553A2A3C97D6F7492E8AB677F0B6 DUP2 MSTORE PUSH1 0x20 ADD PUSH32 0x2F9D19F1218C003002D09237603A7B94C389004AAD77696651E35DD01B6A7B72 DUP2 MSTORE POP DUP2 MSTORE POP DUP2 PUSH1 0x40 ADD DUP2 SWAP1 MSTORE POP PUSH1 0x40 MLOAD DUP1 PUSH1 0x40 ADD PUSH1 0x40 MSTORE DUP1 PUSH1 0x40 MLOAD DUP1 PUSH1 0x40 ADD PUSH1 0x40 MSTORE DUP1 PUSH32 0x23D394975811539663B0780EE63A712EA26D742D6B55C9F96337F24990F22F48 DUP2 MSTORE PUSH1 0x20 ADD PUSH32 0x65AA761E9103F6686FF4CFFD6A1F37265CC874613B55B6EF17AB60D9B6EF074 DUP2 MSTORE POP DUP2 MSTORE PUSH1 0x20 ADD PUSH1 0x40 MLOAD DUP1 PUSH1 0x40 ADD PUSH1 0x40 MSTORE DUP1 PUSH32 0x296FB02ADF5F670C7BEB39875DC82CF21B5CEE85DFDE7EA4D978A84C59D11819 DUP2 MSTORE PUSH1 0x20 ADD PUSH32 0x9CB81CB080ED79887EDD964D107A6FC21B9CEC13511CE9F5A51FEBC5430650C DUP2 MSTORE POP DUP2 MSTORE POP DUP2 PUSH1 0x60 ADD DUP2 SWAP1 MSTORE POP PUSH1 0x2 PUSH8 0xFFFFFFFFFFFFFFFF DUP2 GT DUP1 ISZERO PUSH2 0x547 JUMPI PUSH1 0x0 DUP1 REVERT JUMPDEST POP PUSH1 0x40 MLOAD SWAP1 DUP1 DUP3 MSTORE DUP1 PUSH1 0x20 MUL PUSH1 0x20 ADD DUP3 ADD PUSH1 0x40 MSTORE DUP1 ISZERO PUSH2 0x581 JUMPI DUP2 PUSH1 0x20 ADD JUMPDEST PUSH2 0x56E PUSH2 0xC8B JUMP JUMPDEST DUP2 MSTORE PUSH1 0x20 ADD SWAP1 PUSH1 0x1 SWAP1 SUB SWAP1 DUP2 PUSH2 0x566 JUMPI SWAP1 POP JUMPDEST POP DUP2 PUSH1 0x80 ADD DUP2 SWAP1 MSTORE POP PUSH1 0x40 MLOAD DUP1 PUSH1 0x40 ADD PUSH1 0x40 MSTORE DUP1 PUSH32 0xD908A5650AD5DE280CA9A0CDFA73CC4FEBE207CCEF7BE41F18EF26D6CB097E2 DUP2 MSTORE PUSH1 0x20 ADD PUSH32 0x2498D0C069B66F8A1645E975E52B8A3F16C4A8A94B79E3EB9ECD7D449821C9ED DUP2 MSTORE POP DUP2 PUSH1 0x80 ADD MLOAD PUSH1 0x0 DUP2 MLOAD DUP2 LT PUSH2 0x5F0 JUMPI INVALID JUMPDEST PUSH1 0x20 MUL PUSH1 0x20 ADD ADD DUP2 SWAP1 MSTORE POP PUSH1 0x40 MLOAD DUP1 PUSH1 0x40 ADD PUSH1 0x40 MSTORE DUP1 PUSH32 0xE02FA37C101F36563589A92EBB4326FA27DFD4342754511F95428462D7812B7 DUP2 MSTORE PUSH1 0x20 ADD PUSH32 0x2E832D29854F8365B69B63AE8278A89A1767E7649CD732F26B8D7ECEADEFE592 DUP2 MSTORE POP DUP2 PUSH1 0x80 ADD MLOAD PUSH1 0x1 DUP2 MLOAD DUP2 LT PUSH2 0x661 JUMPI INVALID JUMPDEST PUSH1 0x20 MUL PUSH1 0x20 ADD ADD DUP2 SWAP1 MSTORE POP SWAP1 JUMP JUMPDEST PUSH2 0x677 PUSH2 0xC8B JUMP JUMPDEST PUSH2 0x67F PUSH2 0xCA5 JUMP JUMPDEST DUP4 PUSH1 0x0 ADD MLOAD DUP2 PUSH1 0x0 PUSH1 0x3 DUP2 LT PUSH2 0x691 JUMPI INVALID JUMPDEST PUSH1 0x20 MUL ADD DUP2 DUP2 MSTORE POP POP DUP4 PUSH1 0x20 ADD MLOAD DUP2 PUSH1 0x1 PUSH1 0x3 DUP2 LT PUSH2 0x6AC JUMPI INVALID JUMPDEST PUSH1 0x20 MUL ADD DUP2 DUP2 MSTORE POP POP DUP3 DUP2 PUSH1 0x2 PUSH1 0x3 DUP2 LT PUSH2 0x6C3 JUMPI INVALID JUMPDEST PUSH1 0x20 MUL ADD DUP2 DUP2 MSTORE POP POP PUSH1 0x0 PUSH1 0x60 DUP4 PUSH1 0x80 DUP5 PUSH1 0x7 PUSH2 0x7D0 GAS SUB STATICCALL SWAP1 POP DUP1 PUSH1 0x0 DUP2 EQ PUSH2 0x6EC JUMPI PUSH2 0x6EE JUMP JUMPDEST INVALID JUMPDEST POP DUP1 PUSH2 0x6F9 JUMPI PUSH1 0x0 DUP1 REVERT JUMPDEST POP POP SWAP3 SWAP2 POP POP JUMP JUMPDEST PUSH2 0x709 PUSH2 0xC8B JUMP JUMPDEST PUSH2 0x711 PUSH2 0xCC7 JUMP JUMPDEST DUP4 PUSH1 0x0 ADD MLOAD DUP2 PUSH1 0x0 PUSH1 0x4 DUP2 LT PUSH2 0x723 JUMPI INVALID JUMPDEST PUSH1 0x20 MUL ADD DUP2 DUP2 MSTORE POP POP DUP4 PUSH1 0x20 ADD MLOAD DUP2 PUSH1 0x1 PUSH1 0x4 DUP2 LT PUSH2 0x73E JUMPI INVALID JUMPDEST PUSH1 0x20 MUL ADD DUP2 DUP2 MSTORE POP POP DUP3 PUSH1 0x0 ADD MLOAD DUP2 PUSH1 0x2 PUSH1 0x4 DUP2 LT PUSH2 0x759 JUMPI INVALID JUMPDEST PUSH1 0x20 MUL ADD DUP2 DUP2 MSTORE POP POP DUP3 PUSH1 0x20 ADD MLOAD DUP2 PUSH1 0x3 PUSH1 0x4 DUP2 LT PUSH2 0x774 JUMPI INVALID JUMPDEST PUSH1 0x20 MUL ADD DUP2 DUP2 MSTORE POP POP PUSH1 0x0 PUSH1 0x60 DUP4 PUSH1 0xC0 DUP5 PUSH1 0x6 PUSH2 0x7D0 GAS SUB STATICCALL SWAP1 POP DUP1 PUSH1 0x0 DUP2 EQ PUSH2 0x79D JUMPI PUSH2 0x79F JUMP JUMPDEST INVALID JUMPDEST POP DUP1 PUSH2 0x7AA JUMPI PUSH1 0x0 DUP1 REVERT JUMPDEST POP POP SWAP3 SWAP2 POP POP JUMP JUMPDEST PUSH2 0x7BA PUSH2 0xC8B JUMP JUMPDEST PUSH1 0x0 PUSH32 0x30644E72E131A029B85045B68181585D97816A916871CA8D3C208C16D87CFD47 SWAP1 POP PUSH1 0x0 DUP4 PUSH1 0x0 ADD MLOAD EQ DUP1 ISZERO PUSH2 0x7F7 JUMPI POP PUSH1 0x0 DUP4 PUSH1 0x20 ADD MLOAD EQ JUMPDEST ISZERO PUSH2 0x81B JUMPI PUSH1 0x40 MLOAD DUP1 PUSH1 0x40 ADD PUSH1 0x40 MSTORE DUP1 PUSH1 0x0 DUP2 MSTORE PUSH1 0x20 ADD PUSH1 0x0 DUP2 MSTORE POP SWAP2 POP POP PUSH2 0x847 JUMP JUMPDEST PUSH1 0x40 MLOAD DUP1 PUSH1 0x40 ADD PUSH1 0x40 MSTORE DUP1 DUP5 PUSH1 0x0 ADD MLOAD DUP2 MSTORE PUSH1 0x20 ADD DUP3 DUP6 PUSH1 0x20 ADD MLOAD DUP2 PUSH2 0x83D JUMPI INVALID JUMPDEST MOD DUP4 SUB DUP2 MSTORE POP SWAP2 POP POP JUMPDEST SWAP2 SWAP1 POP JUMP JUMPDEST PUSH1 0x0 DUP1 PUSH1 0x4 PUSH8 0xFFFFFFFFFFFFFFFF DUP2 GT DUP1 ISZERO PUSH2 0x867 JUMPI PUSH1 0x0 DUP1 REVERT JUMPDEST POP PUSH1 0x40 MLOAD SWAP1 DUP1 DUP3 MSTORE DUP1 PUSH1 0x20 MUL PUSH1 0x20 ADD DUP3 ADD PUSH1 0x40 MSTORE DUP1 ISZERO PUSH2 0x8A1 JUMPI DUP2 PUSH1 0x20 ADD JUMPDEST PUSH2 0x88E PUSH2 0xC8B JUMP JUMPDEST DUP2 MSTORE PUSH1 0x20 ADD SWAP1 PUSH1 0x1 SWAP1 SUB SWAP1 DUP2 PUSH2 0x886 JUMPI SWAP1 POP JUMPDEST POP SWAP1 POP PUSH1 0x0 PUSH1 0x4 PUSH8 0xFFFFFFFFFFFFFFFF DUP2 GT DUP1 ISZERO PUSH2 0x8BE JUMPI PUSH1 0x0 DUP1 REVERT JUMPDEST POP PUSH1 0x40 MLOAD SWAP1 DUP1 DUP3 MSTORE DUP1 PUSH1 0x20 MUL PUSH1 0x20 ADD DUP3 ADD PUSH1 0x40 MSTORE DUP1 ISZERO PUSH2 0x8F8 JUMPI DUP2 PUSH1 0x20 ADD JUMPDEST PUSH2 0x8E5 PUSH2 0xCE9 JUMP JUMPDEST DUP2 MSTORE PUSH1 0x20 ADD SWAP1 PUSH1 0x1 SWAP1 SUB SWAP1 DUP2 PUSH2 0x8DD JUMPI SWAP1 POP JUMPDEST POP SWAP1 POP DUP11 DUP3 PUSH1 0x0 DUP2 MLOAD DUP2 LT PUSH2 0x909 JUMPI INVALID JUMPDEST PUSH1 0x20 MUL PUSH1 0x20 ADD ADD DUP2 SWAP1 MSTORE POP DUP9 DUP3 PUSH1 0x1 DUP2 MLOAD DUP2 LT PUSH2 0x922 JUMPI INVALID JUMPDEST PUSH1 0x20 MUL PUSH1 0x20 ADD ADD DUP2 SWAP1 MSTORE POP DUP7 DUP3 PUSH1 0x2 DUP2 MLOAD DUP2 LT PUSH2 0x93B JUMPI INVALID JUMPDEST PUSH1 0x20 MUL PUSH1 0x20 ADD ADD DUP2 SWAP1 MSTORE POP DUP5 DUP3 PUSH1 0x3 DUP2 MLOAD DUP2 LT PUSH2 0x954 JUMPI INVALID JUMPDEST PUSH1 0x20 MUL PUSH1 0x20 ADD ADD DUP2 SWAP1 MSTORE POP DUP10 DUP2 PUSH1 0x0 DUP2 MLOAD DUP2 LT PUSH2 0x96D JUMPI INVALID JUMPDEST PUSH1 0x20 MUL PUSH1 0x20 ADD ADD DUP2 SWAP1 MSTORE POP DUP8 DUP2 PUSH1 0x1 DUP2 MLOAD DUP2 LT PUSH2 0x986 JUMPI INVALID JUMPDEST PUSH1 0x20 MUL PUSH1 0x20 ADD ADD DUP2 SWAP1 MSTORE POP DUP6 DUP2 PUSH1 0x2 DUP2 MLOAD DUP2 LT PUSH2 0x99F JUMPI INVALID JUMPDEST PUSH1 0x20 MUL PUSH1 0x20 ADD ADD DUP2 SWAP1 MSTORE POP DUP4 DUP2 PUSH1 0x3 DUP2 MLOAD DUP2 LT PUSH2 0x9B8 JUMPI INVALID JUMPDEST PUSH1 0x20 MUL PUSH1 0x20 ADD ADD DUP2 SWAP1 MSTORE POP PUSH2 0x9CD DUP3 DUP3 PUSH2 0x9DD JUMP JUMPDEST SWAP3 POP POP POP SWAP9 SWAP8 POP POP POP POP POP POP POP POP JUMP JUMPDEST PUSH1 0x0 DUP2 MLOAD DUP4 MLOAD EQ PUSH2 0x9ED JUMPI PUSH1 0x0 DUP1 REVERT JUMPDEST PUSH1 0x0 DUP4 MLOAD SWAP1 POP PUSH1 0x0 PUSH1 0x6 DUP3 MUL SWAP1 POP PUSH1 0x0 DUP2 PUSH8 0xFFFFFFFFFFFFFFFF DUP2 GT DUP1 ISZERO PUSH2 0xA14 JUMPI PUSH1 0x0 DUP1 REVERT JUMPDEST POP PUSH1 0x40 MLOAD SWAP1 DUP1 DUP3 MSTORE DUP1 PUSH1 0x20 MUL PUSH1 0x20 ADD DUP3 ADD PUSH1 0x40 MSTORE DUP1 ISZERO PUSH2 0xA43 JUMPI DUP2 PUSH1 0x20 ADD PUSH1 0x20 DUP3 MUL DUP1 CALLDATASIZE DUP4 CALLDATACOPY DUP1 DUP3 ADD SWAP2 POP POP SWAP1 POP JUMPDEST POP SWAP1 POP PUSH1 0x0 JUMPDEST DUP4 DUP2 LT ISZERO PUSH2 0xBE6 JUMPI DUP7 DUP2 DUP2 MLOAD DUP2 LT PUSH2 0xA5D JUMPI INVALID JUMPDEST PUSH1 0x20 MUL PUSH1 0x20 ADD ADD MLOAD PUSH1 0x0 ADD MLOAD DUP3 PUSH1 0x0 PUSH1 0x6 DUP5 MUL ADD DUP2 MLOAD DUP2 LT PUSH2 0xA7B JUMPI INVALID JUMPDEST PUSH1 0x20 MUL PUSH1 0x20 ADD ADD DUP2 DUP2 MSTORE POP POP DUP7 DUP2 DUP2 MLOAD DUP2 LT PUSH2 0xA93 JUMPI INVALID JUMPDEST PUSH1 0x20 MUL PUSH1 0x20 ADD ADD MLOAD PUSH1 0x20 ADD MLOAD DUP3 PUSH1 0x1 PUSH1 0x6 DUP5 MUL ADD DUP2 MLOAD DUP2 LT PUSH2 0xAB1 JUMPI INVALID JUMPDEST PUSH1 0x20 MUL PUSH1 0x20 ADD ADD DUP2 DUP2 MSTORE POP POP DUP6 DUP2 DUP2 MLOAD DUP2 LT PUSH2 0xAC9 JUMPI INVALID JUMPDEST PUSH1 0x20 MUL PUSH1 0x20 ADD ADD MLOAD PUSH1 0x0 ADD MLOAD PUSH1 0x1 PUSH1 0x2 DUP2 LT PUSH2 0xAE1 JUMPI INVALID JUMPDEST PUSH1 0x20 MUL ADD MLOAD DUP3 PUSH1 0x2 PUSH1 0x6 DUP5 MUL ADD DUP2 MLOAD DUP2 LT PUSH2 0xAF8 JUMPI INVALID JUMPDEST PUSH1 0x20 MUL PUSH1 0x20 ADD ADD DUP2 DUP2 MSTORE POP POP DUP6 DUP2 DUP2 MLOAD DUP2 LT PUSH2 0xB10 JUMPI INVALID JUMPDEST PUSH1 0x20 MUL PUSH1 0x20 ADD ADD MLOAD PUSH1 0x0 ADD MLOAD PUSH1 0x0 PUSH1 0x2 DUP2 LT PUSH2 0xB28 JUMPI INVALID JUMPDEST PUSH1 0x20 MUL ADD MLOAD DUP3 PUSH1 0x3 PUSH1 0x6 DUP5 MUL ADD DUP2 MLOAD DUP2 LT PUSH2 0xB3F JUMPI INVALID JUMPDEST PUSH1 0x20 MUL PUSH1 0x20 ADD ADD DUP2 DUP2 MSTORE POP POP DUP6 DUP2 DUP2 MLOAD DUP2 LT PUSH2 0xB57 JUMPI INVALID JUMPDEST PUSH1 0x20 MUL PUSH1 0x20 ADD ADD MLOAD PUSH1 0x20 ADD MLOAD PUSH1 0x1 PUSH1 0x2 DUP2 LT PUSH2 0xB6F JUMPI INVALID JUMPDEST PUSH1 0x20 MUL ADD MLOAD DUP3 PUSH1 0x4 PUSH1 0x6 DUP5 MUL ADD DUP2 MLOAD DUP2 LT PUSH2 0xB86 JUMPI INVALID JUMPDEST PUSH1 0x20 MUL PUSH1 0x20 ADD ADD DUP2 DUP2 MSTORE POP POP DUP6 DUP2 DUP2 MLOAD DUP2 LT PUSH2 0xB9E JUMPI INVALID JUMPDEST PUSH1 0x20 MUL PUSH1 0x20 ADD ADD MLOAD PUSH1 0x20 ADD MLOAD PUSH1 0x0 PUSH1 0x2 DUP2 LT PUSH2 0xBB6 JUMPI INVALID JUMPDEST PUSH1 0x20 MUL ADD MLOAD DUP3 PUSH1 0x5 PUSH1 0x6 DUP5 MUL ADD DUP2 MLOAD DUP2 LT PUSH2 0xBCD JUMPI INVALID JUMPDEST PUSH1 0x20 MUL PUSH1 0x20 ADD ADD DUP2 DUP2 MSTORE POP POP DUP1 DUP1 PUSH1 0x1 ADD SWAP2 POP POP PUSH2 0xA49 JUMP JUMPDEST POP PUSH2 0xBEF PUSH2 0xD0F JUMP JUMPDEST PUSH1 0x0 PUSH1 0x20 DUP3 PUSH1 0x20 DUP7 MUL PUSH1 0x20 DUP7 ADD PUSH1 0x8 PUSH2 0x7D0 GAS SUB STATICCALL SWAP1 POP DUP1 PUSH1 0x0 DUP2 EQ PUSH2 0xC14 JUMPI PUSH2 0xC16 JUMP JUMPDEST INVALID JUMPDEST POP DUP1 PUSH2 0xC21 JUMPI PUSH1 0x0 DUP1 REVERT JUMPDEST PUSH1 0x0 DUP3 PUSH1 0x0 PUSH1 0x1 DUP2 LT PUSH2 0xC30 JUMPI INVALID JUMPDEST PUSH1 0x20 MUL ADD MLOAD EQ ISZERO SWAP6 POP POP POP POP POP POP SWAP3 SWAP2 POP POP JUMP JUMPDEST PUSH1 0x40 MLOAD DUP1 PUSH1 0xA0 ADD PUSH1 0x40 MSTORE DUP1 PUSH2 0xC57 PUSH2 0xC8B JUMP JUMPDEST DUP2 MSTORE PUSH1 0x20 ADD PUSH2 0xC64 PUSH2 0xCE9 JUMP JUMPDEST DUP2 MSTORE PUSH1 0x20 ADD PUSH2 0xC71 PUSH2 0xCE9 JUMP JUMPDEST DUP2 MSTORE PUSH1 0x20 ADD PUSH2 0xC7E PUSH2 0xCE9 JUMP JUMPDEST DUP2 MSTORE PUSH1 0x20 ADD PUSH1 0x60 DUP2 MSTORE POP SWAP1 JUMP JUMPDEST PUSH1 0x40 MLOAD DUP1 PUSH1 0x40 ADD PUSH1 0x40 MSTORE DUP1 PUSH1 0x0 DUP2 MSTORE PUSH1 0x20 ADD PUSH1 0x0 DUP2 MSTORE POP SWAP1 JUMP JUMPDEST PUSH1 0x40 MLOAD DUP1 PUSH1 0x60 ADD PUSH1 0x40 MSTORE DUP1 PUSH1 0x3 SWAP1 PUSH1 0x20 DUP3 MUL DUP1 CALLDATASIZE DUP4 CALLDATACOPY DUP1 DUP3 ADD SWAP2 POP POP SWAP1 POP POP SWAP1 JUMP JUMPDEST PUSH1 0x40 MLOAD DUP1 PUSH1 0x80 ADD PUSH1 0x40 MSTORE DUP1 PUSH1 0x4 SWAP1 PUSH1 0x20 DUP3 MUL DUP1 CALLDATASIZE DUP4 CALLDATACOPY DUP1 DUP3 ADD SWAP2 POP POP SWAP1 POP POP SWAP1 JUMP JUMPDEST PUSH1 0x40 MLOAD DUP1 PUSH1 0x40 ADD PUSH1 0x40 MSTORE DUP1 PUSH2 0xCFC PUSH2 0xD31 JUMP JUMPDEST DUP2 MSTORE PUSH1 0x20 ADD PUSH2 0xD09 PUSH2 0xD31 JUMP JUMPDEST DUP2 MSTORE POP SWAP1 JUMP JUMPDEST PUSH1 0x40 MLOAD DUP1 PUSH1 0x20 ADD PUSH1 0x40 MSTORE DUP1 PUSH1 0x1 SWAP1 PUSH1 0x20 DUP3 MUL DUP1 CALLDATASIZE DUP4 CALLDATACOPY DUP1 DUP3 ADD SWAP2 POP POP SWAP1 POP POP SWAP1 JUMP JUMPDEST PUSH1 0x40 MLOAD DUP1 PUSH1 0x40 ADD PUSH1 0x40 MSTORE DUP1 PUSH1 0x2 SWAP1 PUSH1 0x20 DUP3 MUL DUP1 CALLDATASIZE DUP4 CALLDATACOPY DUP1 DUP3 ADD SWAP2 POP POP SWAP1 POP POP SWAP1 JUMP JUMPDEST PUSH1 0x0 PUSH2 0xD66 PUSH2 0xD61 DUP5 PUSH2 0x100E JUMP JUMPDEST PUSH2 0xFDD JUMP JUMPDEST SWAP1 POP DUP1 DUP3 DUP6 PUSH1 0x20 DUP7 MUL DUP3 ADD GT ISZERO PUSH2 0xD7C JUMPI PUSH1 0x0 DUP1 REVERT JUMPDEST PUSH1 0x0 JUMPDEST DUP6 DUP2 LT ISZERO PUSH2 0xDAC JUMPI DUP2 PUSH2 0xD92 DUP9 DUP3 PUSH2 0xF60 JUMP JUMPDEST DUP5 MSTORE PUSH1 0x20 DUP5 ADD SWAP4 POP PUSH1 0x20 DUP4 ADD SWAP3 POP POP PUSH1 0x1 DUP2 ADD SWAP1 POP PUSH2 0xD7F JUMP JUMPDEST POP POP POP SWAP4 SWAP3 POP POP POP JUMP JUMPDEST PUSH1 0x0 PUSH2 0xDC9 PUSH2 0xDC4 DUP5 PUSH2 0x1034 JUMP JUMPDEST PUSH2 0xFDD JUMP JUMPDEST SWAP1 POP DUP1 DUP3 DUP6 PUSH1 0x20 DUP7 MUL DUP3 ADD GT ISZERO PUSH2 0xDDF JUMPI PUSH1 0x0 DUP1 REVERT JUMPDEST PUSH1 0x0 JUMPDEST DUP6 DUP2 LT ISZERO PUSH2 0xE0F JUMPI DUP2 PUSH2 0xDF5 DUP9 DUP3 PUSH2 0xF60 JUMP JUMPDEST DUP5 MSTORE PUSH1 0x20 DUP5 ADD SWAP4 POP PUSH1 0x20 DUP4 ADD SWAP3 POP POP PUSH1 0x1 DUP2 ADD SWAP1 POP PUSH2 0xDE2 JUMP JUMPDEST POP POP POP SWAP4 SWAP3 POP POP POP JUMP JUMPDEST PUSH1 0x0 DUP3 PUSH1 0x1F DUP4 ADD SLT PUSH2 0xE2A JUMPI PUSH1 0x0 DUP1 REVERT JUMPDEST PUSH1 0x1 PUSH2 0xE37 DUP5 DUP3 DUP6 PUSH2 0xD53 JUMP JUMPDEST SWAP2 POP POP SWAP3 SWAP2 POP POP JUMP JUMPDEST PUSH1 0x0 DUP3 PUSH1 0x1F DUP4 ADD SLT PUSH2 0xE51 JUMPI PUSH1 0x0 DUP1 REVERT JUMPDEST PUSH1 0x2 PUSH2 0xE5E DUP5 DUP3 DUP6 PUSH2 0xDB6 JUMP JUMPDEST SWAP2 POP POP SWAP3 SWAP2 POP POP JUMP JUMPDEST PUSH1 0x0 PUSH1 0x40 DUP3 DUP5 SUB SLT ISZERO PUSH2 0xE79 JUMPI PUSH1 0x0 DUP1 REVERT JUMPDEST PUSH2 0xE83 PUSH1 0x40 PUSH2 0xFDD JUMP JUMPDEST SWAP1 POP PUSH1 0x0 PUSH2 0xE93 DUP5 DUP3 DUP6 ADD PUSH2 0xF60 JUMP JUMPDEST PUSH1 0x0 DUP4 ADD MSTORE POP PUSH1 0x20 PUSH2 0xEA7 DUP5 DUP3 DUP6 ADD PUSH2 0xF60 JUMP JUMPDEST PUSH1 0x20 DUP4 ADD MSTORE POP SWAP3 SWAP2 POP POP JUMP JUMPDEST PUSH1 0x0 PUSH1 0x80 DUP3 DUP5 SUB SLT ISZERO PUSH2 0xEC5 JUMPI PUSH1 0x0 DUP1 REVERT JUMPDEST PUSH2 0xECF PUSH1 0x40 PUSH2 0xFDD JUMP JUMPDEST SWAP1 POP PUSH1 0x0 PUSH2 0xEDF DUP5 DUP3 DUP6 ADD PUSH2 0xE40 JUMP JUMPDEST PUSH1 0x0 DUP4 ADD MSTORE POP PUSH1 0x40 PUSH2 0xEF3 DUP5 DUP3 DUP6 ADD PUSH2 0xE40 JUMP JUMPDEST PUSH1 0x20 DUP4 ADD MSTORE POP SWAP3 SWAP2 POP POP JUMP JUMPDEST PUSH1 0x0 PUSH2 0x100 DUP3 DUP5 SUB SLT ISZERO PUSH2 0xF12 JUMPI PUSH1 0x0 DUP1 REVERT JUMPDEST PUSH2 0xF1C PUSH1 0x60 PUSH2 0xFDD JUMP JUMPDEST SWAP1 POP PUSH1 0x0 PUSH2 0xF2C DUP5 DUP3 DUP6 ADD PUSH2 0xE67 JUMP JUMPDEST PUSH1 0x0 DUP4 ADD MSTORE POP PUSH1 0x40 PUSH2 0xF40 DUP5 DUP3 DUP6 ADD PUSH2 0xEB3 JUMP JUMPDEST PUSH1 0x20 DUP4 ADD MSTORE POP PUSH1 0xC0 PUSH2 0xF54 DUP5 DUP3 DUP6 ADD PUSH2 0xE67 JUMP JUMPDEST PUSH1 0x40 DUP4 ADD MSTORE POP SWAP3 SWAP2 POP POP JUMP JUMPDEST PUSH1 0x0 DUP2 CALLDATALOAD SWAP1 POP PUSH2 0xF6F DUP2 PUSH2 0x1072 JUMP JUMPDEST SWAP3 SWAP2 POP POP JUMP JUMPDEST PUSH1 0x0 DUP1 PUSH2 0x120 DUP4 DUP6 SUB SLT ISZERO PUSH2 0xF89 JUMPI PUSH1 0x0 DUP1 REVERT JUMPDEST PUSH1 0x0 PUSH2 0xF97 DUP6 DUP3 DUP7 ADD PUSH2 0xEFF JUMP JUMPDEST SWAP3 POP POP PUSH2 0x100 PUSH2 0xFA9 DUP6 DUP3 DUP7 ADD PUSH2 0xE19 JUMP JUMPDEST SWAP2 POP POP SWAP3 POP SWAP3 SWAP1 POP JUMP JUMPDEST PUSH2 0xFBC DUP2 PUSH2 0x105A JUMP JUMPDEST DUP3 MSTORE POP POP JUMP JUMPDEST PUSH1 0x0 PUSH1 0x20 DUP3 ADD SWAP1 POP PUSH2 0xFD7 PUSH1 0x0 DUP4 ADD DUP5 PUSH2 0xFB3 JUMP JUMPDEST SWAP3 SWAP2 POP POP JUMP JUMPDEST PUSH1 0x0 PUSH1 0x40 MLOAD SWAP1 POP DUP2 DUP2 ADD DUP2 DUP2 LT PUSH8 0xFFFFFFFFFFFFFFFF DUP3 GT OR ISZERO PUSH2 0x1004 JUMPI PUSH2 0x1003 PUSH2 0x1070 JUMP JUMPDEST JUMPDEST DUP1 PUSH1 0x40 MSTORE POP SWAP2 SWAP1 POP JUMP JUMPDEST PUSH1 0x0 PUSH8 0xFFFFFFFFFFFFFFFF DUP3 GT ISZERO PUSH2 0x1029 JUMPI PUSH2 0x1028 PUSH2 0x1070 JUMP JUMPDEST JUMPDEST PUSH1 0x20 DUP3 MUL SWAP1 POP SWAP2 SWAP1 POP JUMP JUMPDEST PUSH1 0x0 PUSH8 0xFFFFFFFFFFFFFFFF DUP3 GT ISZERO PUSH2 0x104F JUMPI PUSH2 0x104E PUSH2 0x1070 JUMP JUMPDEST JUMPDEST PUSH1 0x20 DUP3 MUL SWAP1 POP SWAP2 SWAP1 POP JUMP JUMPDEST PUSH1 0x0 DUP2 ISZERO ISZERO SWAP1 POP SWAP2 SWAP1 POP JUMP JUMPDEST PUSH1 0x0 DUP2 SWAP1 POP SWAP2 SWAP1 POP JUMP JUMPDEST INVALID JUMPDEST PUSH2 0x107B DUP2 PUSH2 0x1066 JUMP JUMPDEST DUP2 EQ PUSH2 0x1086 JUMPI PUSH1 0x0 DUP1 REVERT JUMPDEST POP JUMP INVALID LOG2 PUSH5 0x6970667358 0x22 SLT KECCAK256 SWAP9 SWAP7 STATICCALL EXTCODEHASH 0xF8 0xC9 EXTCODESIZE POP PUSH8 0xD5D6EED5D4DCDC63 POP SUB BLOCKHASH SWAP7 BALANCE 0xB6 0xAB SWAP7 SWAP11 DUP15 0xBE 0x5C DUP6 0xD3 SWAP8 PUSH5 0x736F6C6343 STOP SMOD MOD STOP CALLER "
		},
		"gasEstimates": {
			"creation": {
				"codeDepositCost": "857400",
				"executionCost": "890",
				"totalCost": "858290"
			},
			"external": {
				"verifyTx(((uint256,uint256),(uint256[2],uint256[2]),(uint256,uint256)),uint256[1])": "infinite"
			},
			"internal": {
				"verify(uint256[] memory,struct Verifier.Proof memory)": "infinite",
				"verifyingKey()": "infinite"
			}
		},
		"methodIdentifiers": {
			"verifyTx(((uint256,uint256),(uint256[2],uint256[2]),(uint256,uint256)),uint256[1])": "f48d7729"
		}
	},
	"abi": [
		{
			"inputs": [
				{
					"components": [
						{
							"components": [
								{
									"internalType": "uint256",
									"name": "X",
									"type": "uint256"
								},
								{
									"internalType": "uint256",
									"name": "Y",
									"type": "uint256"
								}
							],
							"internalType": "struct Pairing.G1Point",
							"name": "a",
							"type": "tuple"
						},
						{
							"components": [
								{
									"internalType": "uint256[2]",
									"name": "X",
									"type": "uint256[2]"
								},
								{
									"internalType": "uint256[2]",
									"name": "Y",
									"type": "uint256[2]"
								}
							],
							"internalType": "struct Pairing.G2Point",
							"name": "b",
							"type": "tuple"
						},
						{
							"components": [
								{
									"internalType": "uint256",
									"name": "X",
									"type": "uint256"
								},
								{
									"internalType": "uint256",
									"name": "Y",
									"type": "uint256"
								}
							],
							"internalType": "struct Pairing.G1Point",
							"name": "c",
							"type": "tuple"
						}
					],
					"internalType": "struct Verifier.Proof",
					"name": "proof",
					"type": "tuple"
				},
				{
					"internalType": "uint256[1]",
					"name": "input",
					"type": "uint256[1]"
				}
			],
			"name": "verifyTx",
			"outputs": [
				{
					"internalType": "bool",
					"name": "r",
					"type": "bool"
				}
			],
			"stateMutability": "view",
			"type": "function"
		}
	]
}