{
	"ZKPVoting.sol": {
		"ZKPVoting": {
			"abi": [
				{
					"inputs": [],
					"stateMutability": "nonpayable",
					"type": "constructor"
				},
				{
					"anonymous": false,
					"inputs": [
						{
							"indexed": true,
							"internalType": "address",
							"name": "voter",
							"type": "address"
						},
						{
							"indexed": false,
							"internalType": "uint256",
							"name": "commitment",
							"type": "uint256"
						}
					],
					"name": "VoteCast",
					"type": "event"
				},
				{
					"anonymous": false,
					"inputs": [
						{
							"indexed": true,
							"internalType": "address",
							"name": "voter",
							"type": "address"
						}
					],
					"name": "VoteVerified",
					"type": "event"
				},
				{
					"inputs": [],
					"name": "G",
					"outputs": [
						{
							"internalType": "uint256",
							"name": "",
							"type": "uint256"
						}
					],
					"stateMutability": "view",
					"type": "function"
				},
				{
					"inputs": [],
					"name": "H",
					"outputs": [
						{
							"internalType": "uint256",
							"name": "",
							"type": "uint256"
						}
					],
					"stateMutability": "view",
					"type": "function"
				},
				{
					"inputs": [],
					"name": "P",
					"outputs": [
						{
							"internalType": "uint256",
							"name": "",
							"type": "uint256"
						}
					],
					"stateMutability": "view",
					"type": "function"
				},
				{
					"inputs": [],
					"name": "Q",
					"outputs": [
						{
							"internalType": "uint256",
							"name": "",
							"type": "uint256"
						}
					],
					"stateMutability": "view",
					"type": "function"
				},
				{
					"inputs": [
						{
							"internalType": "uint256",
							"name": "commitment",
							"type": "uint256"
						},
						{
							"internalType": "uint256",
							"name": "a0",
							"type": "uint256"
						},
						{
							"internalType": "uint256",
							"name": "a1",
							"type": "uint256"
						},
						{
							"internalType": "uint256",
							"name": "s0",
							"type": "uint256"
						},
						{
							"internalType": "uint256",
							"name": "s1",
							"type": "uint256"
						},
						{
							"internalType": "uint256",
							"name": "e0",
							"type": "uint256"
						},
						{
							"internalType": "uint256",
							"name": "e1",
							"type": "uint256"
						}
					],
					"name": "castVote",
					"outputs": [],
					"stateMutability": "nonpayable",
					"type": "function"
				},
				{
					"inputs": [],
					"name": "chairperson",
					"outputs": [
						{
							"internalType": "address",
							"name": "",
							"type": "address"
						}
					],
					"stateMutability": "view",
					"type": "function"
				},
				{
					"inputs": [],
					"name": "getVoteCount",
					"outputs": [
						{
							"internalType": "uint256",
							"name": "",
							"type": "uint256"
						}
					],
					"stateMutability": "view",
					"type": "function"
				},
				{
					"inputs": [
						{
							"internalType": "address",
							"name": "voter",
							"type": "address"
						}
					],
					"name": "registerVoter",
					"outputs": [],
					"stateMutability": "nonpayable",
					"type": "function"
				},
				{
					"inputs": [],
					"name": "voteCount",
					"outputs": [
						{
							"internalType": "uint256",
							"name": "",
							"type": "uint256"
						}
					],
					"stateMutability": "view",
					"type": "function"
				},
				{
					"inputs": [
						{
							"internalType": "address",
							"name": "",
							"type": "address"
						}
					],
					"name": "voters",
					"outputs": [
						{
							"internalType": "bool",
							"name": "",
							"type": "bool"
						}
					],
					"stateMutability": "view",
					"type": "function"
				},
				{
					"inputs": [
						{
							"internalType": "address",
							"name": "",
							"type": "address"
						}
					],
					"name": "votes",
					"outputs": [
						{
							"internalType": "uint256",
							"name": "commitment",
							"type": "uint256"
						},
						{
							"internalType": "uint256",
							"name": "a0",
							"type": "uint256"
						},
						{
							"internalType": "uint256",
							"name": "a1",
							"type": "uint256"
						},
						{
							"internalType": "uint256",
							"name": "s0",
							"type": "uint256"
						},
						{
							"internalType": "uint256",
							"name": "s1",
							"type": "uint256"
						},
						{
							"internalType": "uint256",
							"name": "e0",
							"type": "uint256"
						},
						{
							"internalType": "uint256",
							"name": "e1",
							"type": "uint256"
						},
						{
							"internalType": "bool",
							"name": "verified",
							"type": "bool"
						}
					],
					"stateMutability": "view",
					"type": "function"
				}
			],
			"devdoc": {
				"details": "Non-interactive ZKP for vote validity on-chain",
				"kind": "dev",
				"methods": {},
				"title": "ZKP Voting System with Discrete Log Assurance",
				"version": 1
			},
			"evm": {
				"assembly": "    /* \"ZKPVoting.sol\":175:3100  contract ZKPVoting {... */\n  mstore(0x40, 0x80)\n    /* \"ZKPVoting.sol\":1599:1656  constructor() {... */\n  callvalue\n  dup1\n  iszero\n  tag_1\n  jumpi\n  0x00\n  dup1\n  revert\ntag_1:\n  pop\n    /* \"ZKPVoting.sol\":1638:1648  msg.sender */\n  caller\n    /* \"ZKPVoting.sol\":1624:1635  chairperson */\n  0x03\n  0x00\n    /* \"ZKPVoting.sol\":1624:1648  chairperson = msg.sender */\n  0x0100\n  exp\n  dup2\n  sload\n  dup2\n  0xffffffffffffffffffffffffffffffffffffffff\n  mul\n  not\n  and\n  swap1\n  dup4\n  0xffffffffffffffffffffffffffffffffffffffff\n  and\n  mul\n  or\n  swap1\n  sstore\n  pop\n    /* \"ZKPVoting.sol\":175:3100  contract ZKPVoting {... */\n  dataSize(sub_0)\n  dup1\n  dataOffset(sub_0)\n  0x00\n  codecopy\n  0x00\n  return\nstop\n\nsub_0: assembly {\n        /* \"ZKPVoting.sol\":175:3100  contract ZKPVoting {... */\n      mstore(0x40, 0x80)\n      callvalue\n      dup1\n      iszero\n      tag_1\n      jumpi\n      0x00\n      dup1\n      revert\n    tag_1:\n      pop\n      jumpi(tag_2, lt(calldatasize, 0x04))\n      shr(0xe0, calldataload(0x00))\n      dup1\n      0x8b8fbd92\n      gt\n      tag_14\n      jumpi\n      dup1\n      0x8b8fbd92\n      eq\n      tag_8\n      jumpi\n      dup1\n      0xa3ec138d\n      eq\n      tag_9\n      jumpi\n      dup1\n      0xc6384071\n      eq\n      tag_10\n      jumpi\n      dup1\n      0xd8bff5a5\n      eq\n      tag_11\n      jumpi\n      dup1\n      0xe493ef8c\n      eq\n      tag_12\n      jumpi\n      dup1\n      0xe7b3387c\n      eq\n      tag_13\n      jumpi\n      jump(tag_2)\n    tag_14:\n      dup1\n      0x06ad0732\n      eq\n      tag_3\n      jumpi\n      dup1\n      0x2e4176cf\n      eq\n      tag_4\n      jumpi\n      dup1\n      0x38db6dd3\n      eq\n      tag_5\n      jumpi\n      dup1\n      0x6fecb623\n      eq\n      tag_6\n      jumpi\n      dup1\n      0x70a5d861\n      eq\n      tag_7\n      jumpi\n    tag_2:\n      0x00\n      dup1\n      revert\n        /* \"ZKPVoting.sol\":1879:2285  function castVote(uint256 commitment, uint256 a0, uint256 a1, uint256 s0, uint256 s1, uint256 e0, uint256 e1) external {... */\n    tag_3:\n      tag_15\n      0x04\n      dup1\n      calldatasize\n      sub\n      dup2\n      add\n      swap1\n      tag_16\n      swap2\n      swap1\n      tag_17\n      jump\t// in\n    tag_16:\n      tag_18\n      jump\t// in\n    tag_15:\n      stop\n        /* \"ZKPVoting.sol\":676:702  address public chairperson */\n    tag_4:\n      tag_19\n      tag_20\n      jump\t// in\n    tag_19:\n      mload(0x40)\n      tag_21\n      swap2\n      swap1\n      tag_22\n      jump\t// in\n    tag_21:\n      mload(0x40)\n      dup1\n      swap2\n      sub\n      swap1\n      return\n        /* \"ZKPVoting.sol\":1664:1871  function registerVoter(address voter) external {... */\n    tag_5:\n      tag_23\n      0x04\n      dup1\n      calldatasize\n      sub\n      dup2\n      add\n      swap1\n      tag_24\n      swap2\n      swap1\n      tag_25\n      jump\t// in\n    tag_24:\n      tag_26\n      jump\t// in\n    tag_23:\n      stop\n        /* \"ZKPVoting.sol\":275:304  uint256 public constant G = 2 */\n    tag_6:\n      tag_27\n      tag_28\n      jump\t// in\n    tag_27:\n      mload(0x40)\n      tag_29\n      swap2\n      swap1\n      tag_30\n      jump\t// in\n    tag_29:\n      mload(0x40)\n      dup1\n      swap2\n      sub\n      swap1\n      return\n        /* \"ZKPVoting.sol\":311:340  uint256 public constant H = 3 */\n    tag_7:\n      tag_31\n      tag_32\n      jump\t// in\n    tag_31:\n      mload(0x40)\n      tag_33\n      swap2\n      swap1\n      tag_30\n      jump\t// in\n    tag_33:\n      mload(0x40)\n      dup1\n      swap2\n      sub\n      swap1\n      return\n        /* \"ZKPVoting.sol\":201:231  uint256 public constant P = 23 */\n    tag_8:\n      tag_34\n      tag_35\n      jump\t// in\n    tag_34:\n      mload(0x40)\n      tag_36\n      swap2\n      swap1\n      tag_30\n      jump\t// in\n    tag_36:\n      mload(0x40)\n      dup1\n      swap2\n      sub\n      swap1\n      return\n        /* \"ZKPVoting.sol\":600:638  mapping(address => bool) public voters */\n    tag_9:\n      tag_37\n      0x04\n      dup1\n      calldatasize\n      sub\n      dup2\n      add\n      swap1\n      tag_38\n      swap2\n      swap1\n      tag_25\n      jump\t// in\n    tag_38:\n      tag_39\n      jump\t// in\n    tag_37:\n      mload(0x40)\n      tag_40\n      swap2\n      swap1\n      tag_41\n      jump\t// in\n    tag_40:\n      mload(0x40)\n      dup1\n      swap2\n      sub\n      swap1\n      return\n        /* \"ZKPVoting.sol\":645:669  uint256 public voteCount */\n    tag_10:\n      tag_42\n      tag_43\n      jump\t// in\n    tag_42:\n      mload(0x40)\n      tag_44\n      swap2\n      swap1\n      tag_30\n      jump\t// in\n    tag_44:\n      mload(0x40)\n      dup1\n      swap2\n      sub\n      swap1\n      return\n        /* \"ZKPVoting.sol\":556:593  mapping(address => Vote) public votes */\n    tag_11:\n      tag_45\n      0x04\n      dup1\n      calldatasize\n      sub\n      dup2\n      add\n      swap1\n      tag_46\n      swap2\n      swap1\n      tag_25\n      jump\t// in\n    tag_46:\n      tag_47\n      jump\t// in\n    tag_45:\n      mload(0x40)\n      tag_48\n      swap9\n      swap8\n      swap7\n      swap6\n      swap5\n      swap4\n      swap3\n      swap2\n      swap1\n      tag_49\n      jump\t// in\n    tag_48:\n      mload(0x40)\n      dup1\n      swap2\n      sub\n      swap1\n      return\n        /* \"ZKPVoting.sol\":238:268  uint256 public constant Q = 11 */\n    tag_12:\n      tag_50\n      tag_51\n      jump\t// in\n    tag_50:\n      mload(0x40)\n      tag_52\n      swap2\n      swap1\n      tag_30\n      jump\t// in\n    tag_52:\n      mload(0x40)\n      dup1\n      swap2\n      sub\n      swap1\n      return\n        /* \"ZKPVoting.sol\":3006:3097  function getVoteCount() external view returns (uint256) {... */\n    tag_13:\n      tag_53\n      tag_54\n      jump\t// in\n    tag_53:\n      mload(0x40)\n      tag_55\n      swap2\n      swap1\n      tag_30\n      jump\t// in\n    tag_55:\n      mload(0x40)\n      dup1\n      swap2\n      sub\n      swap1\n      return\n        /* \"ZKPVoting.sol\":1879:2285  function castVote(uint256 commitment, uint256 a0, uint256 a1, uint256 s0, uint256 s1, uint256 e0, uint256 e1) external {... */\n    tag_18:\n        /* \"ZKPVoting.sol\":2017:2023  voters */\n      0x01\n        /* \"ZKPVoting.sol\":2017:2035  voters[msg.sender] */\n      0x00\n        /* \"ZKPVoting.sol\":2024:2034  msg.sender */\n      caller\n        /* \"ZKPVoting.sol\":2017:2035  voters[msg.sender] */\n      0xffffffffffffffffffffffffffffffffffffffff\n      and\n      0xffffffffffffffffffffffffffffffffffffffff\n      and\n      dup2\n      mstore\n      0x20\n      add\n      swap1\n      dup2\n      mstore\n      0x20\n      add\n      0x00\n      keccak256\n      0x00\n      swap1\n      sload\n      swap1\n      0x0100\n      exp\n      swap1\n      div\n      0xff\n      and\n        /* \"ZKPVoting.sol\":2009:2054  require(voters[msg.sender], \"Not registered\") */\n      tag_57\n      jumpi\n      mload(0x40)\n      0x08c379a000000000000000000000000000000000000000000000000000000000\n      dup2\n      mstore\n      0x04\n      add\n      tag_58\n      swap1\n      tag_59\n      jump\t// in\n    tag_58:\n      mload(0x40)\n      dup1\n      swap2\n      sub\n      swap1\n      revert\n    tag_57:\n        /* \"ZKPVoting.sol\":2074:2079  votes */\n      0x00\n        /* \"ZKPVoting.sol\":2074:2091  votes[msg.sender] */\n      dup1\n        /* \"ZKPVoting.sol\":2080:2090  msg.sender */\n      caller\n        /* \"ZKPVoting.sol\":2074:2091  votes[msg.sender] */\n      0xffffffffffffffffffffffffffffffffffffffff\n      and\n      0xffffffffffffffffffffffffffffffffffffffff\n      and\n      dup2\n      mstore\n      0x20\n      add\n      swap1\n      dup2\n      mstore\n      0x20\n      add\n      0x00\n      keccak256\n        /* \"ZKPVoting.sol\":2074:2100  votes[msg.sender].verified */\n      0x07\n      add\n      0x00\n      swap1\n      sload\n      swap1\n      0x0100\n      exp\n      swap1\n      div\n      0xff\n      and\n        /* \"ZKPVoting.sol\":2073:2100  !votes[msg.sender].verified */\n      iszero\n        /* \"ZKPVoting.sol\":2065:2118  require(!votes[msg.sender].verified, \"Already voted\") */\n      tag_60\n      jumpi\n      mload(0x40)\n      0x08c379a000000000000000000000000000000000000000000000000000000000\n      dup2\n      mstore\n      0x04\n      add\n      tag_61\n      swap1\n      tag_62\n      jump\t// in\n    tag_61:\n      mload(0x40)\n      dup1\n      swap2\n      sub\n      swap1\n      revert\n    tag_60:\n        /* \"ZKPVoting.sol\":2149:2196  Vote(commitment, a0, a1, s0, s1, e0, e1, false) */\n      mload(0x40)\n      dup1\n      0x0100\n      add\n      0x40\n      mstore\n      dup1\n        /* \"ZKPVoting.sol\":2154:2164  commitment */\n      dup9\n        /* \"ZKPVoting.sol\":2149:2196  Vote(commitment, a0, a1, s0, s1, e0, e1, false) */\n      dup2\n      mstore\n      0x20\n      add\n        /* \"ZKPVoting.sol\":2166:2168  a0 */\n      dup8\n        /* \"ZKPVoting.sol\":2149:2196  Vote(commitment, a0, a1, s0, s1, e0, e1, false) */\n      dup2\n      mstore\n      0x20\n      add\n        /* \"ZKPVoting.sol\":2170:2172  a1 */\n      dup7\n        /* \"ZKPVoting.sol\":2149:2196  Vote(commitment, a0, a1, s0, s1, e0, e1, false) */\n      dup2\n      mstore\n      0x20\n      add\n        /* \"ZKPVoting.sol\":2174:2176  s0 */\n      dup6\n        /* \"ZKPVoting.sol\":2149:2196  Vote(commitment, a0, a1, s0, s1, e0, e1, false) */\n      dup2\n      mstore\n      0x20\n      add\n        /* \"ZKPVoting.sol\":2178:2180  s1 */\n      dup5\n        /* \"ZKPVoting.sol\":2149:2196  Vote(commitment, a0, a1, s0, s1, e0, e1, false) */\n      dup2\n      mstore\n      0x20\n      add\n        /* \"ZKPVoting.sol\":2182:2184  e0 */\n      dup4\n        /* \"ZKPVoting.sol\":2149:2196  Vote(commitment, a0, a1, s0, s1, e0, e1, false) */\n      dup2\n      mstore\n      0x20\n      add\n        /* \"ZKPVoting.sol\":2186:2188  e1 */\n      dup3\n        /* \"ZKPVoting.sol\":2149:2196  Vote(commitment, a0, a1, s0, s1, e0, e1, false) */\n      dup2\n      mstore\n      0x20\n      add\n        /* \"ZKPVoting.sol\":2190:2195  false */\n      0x00\n        /* \"ZKPVoting.sol\":2149:2196  Vote(commitment, a0, a1, s0, s1, e0, e1, false) */\n      iszero\n      iszero\n      dup2\n      mstore\n      pop\n        /* \"ZKPVoting.sol\":2129:2134  votes */\n      0x00\n        /* \"ZKPVoting.sol\":2129:2146  votes[msg.sender] */\n      dup1\n        /* \"ZKPVoting.sol\":2135:2145  msg.sender */\n      caller\n        /* \"ZKPVoting.sol\":2129:2146  votes[msg.sender] */\n      0xffffffffffffffffffffffffffffffffffffffff\n      and\n      0xffffffffffffffffffffffffffffffffffffffff\n      and\n      dup2\n      mstore\n      0x20\n      add\n      swap1\n      dup2\n      mstore\n      0x20\n      add\n      0x00\n      keccak256\n        /* \"ZKPVoting.sol\":2129:2196  votes[msg.sender] = Vote(commitment, a0, a1, s0, s1, e0, e1, false) */\n      0x00\n      dup3\n      add\n      mload\n      dup2\n      0x00\n      add\n      sstore\n      0x20\n      dup3\n      add\n      mload\n      dup2\n      0x01\n      add\n      sstore\n      0x40\n      dup3\n      add\n      mload\n      dup2\n      0x02\n      add\n      sstore\n      0x60\n      dup3\n      add\n      mload\n      dup2\n      0x03\n      add\n      sstore\n      0x80\n      dup3\n      add\n      mload\n      dup2\n      0x04\n      add\n      sstore\n      0xa0\n      dup3\n      add\n      mload\n      dup2\n      0x05\n      add\n      sstore\n      0xc0\n      dup3\n      add\n      mload\n      dup2\n      0x06\n      add\n      sstore\n      0xe0\n      dup3\n      add\n      mload\n      dup2\n      0x07\n      add\n      exp(0x0100, 0x00)\n      dup2\n      sload\n      dup2\n      0xff\n      mul\n      not\n      and\n      swap1\n      dup4\n      iszero\n      iszero\n      mul\n      or\n      swap1\n      sstore\n      pop\n      swap1\n      pop\n      pop\n        /* \"ZKPVoting.sol\":2221:2231  msg.sender */\n      caller\n        /* \"ZKPVoting.sol\":2212:2244  VoteCast(msg.sender, commitment) */\n      0xffffffffffffffffffffffffffffffffffffffff\n      and\n      0xa36cc2bebb74db33e9f88110a07ef56e1b31b24b4c4f51b54b1664266e29f45b\n        /* \"ZKPVoting.sol\":2233:2243  commitment */\n      dup9\n        /* \"ZKPVoting.sol\":2212:2244  VoteCast(msg.sender, commitment) */\n      mload(0x40)\n      tag_63\n      swap2\n      swap1\n      tag_30\n      jump\t// in\n    tag_63:\n      mload(0x40)\n      dup1\n      swap2\n      sub\n      swap1\n      log2\n        /* \"ZKPVoting.sol\":2255:2277  verifyVote(msg.sender) */\n      tag_64\n        /* \"ZKPVoting.sol\":2266:2276  msg.sender */\n      caller\n        /* \"ZKPVoting.sol\":2255:2265  verifyVote */\n      tag_65\n        /* \"ZKPVoting.sol\":2255:2277  verifyVote(msg.sender) */\n      jump\t// in\n    tag_64:\n        /* \"ZKPVoting.sol\":1879:2285  function castVote(uint256 commitment, uint256 a0, uint256 a1, uint256 s0, uint256 s1, uint256 e0, uint256 e1) external {... */\n      pop\n      pop\n      pop\n      pop\n      pop\n      pop\n      pop\n      jump\t// out\n        /* \"ZKPVoting.sol\":676:702  address public chairperson */\n    tag_20:\n      0x03\n      0x00\n      swap1\n      sload\n      swap1\n      0x0100\n      exp\n      swap1\n      div\n      0xffffffffffffffffffffffffffffffffffffffff\n      and\n      dup2\n      jump\t// out\n        /* \"ZKPVoting.sol\":1664:1871  function registerVoter(address voter) external {... */\n    tag_26:\n        /* \"ZKPVoting.sol\":1744:1755  chairperson */\n      0x03\n      0x00\n      swap1\n      sload\n      swap1\n      0x0100\n      exp\n      swap1\n      div\n      0xffffffffffffffffffffffffffffffffffffffff\n      and\n        /* \"ZKPVoting.sol\":1730:1755  msg.sender == chairperson */\n      0xffffffffffffffffffffffffffffffffffffffff\n      and\n        /* \"ZKPVoting.sol\":1730:1740  msg.sender */\n      caller\n        /* \"ZKPVoting.sol\":1730:1755  msg.sender == chairperson */\n      0xffffffffffffffffffffffffffffffffffffffff\n      and\n      eq\n        /* \"ZKPVoting.sol\":1722:1776  require(msg.sender == chairperson, \"Only chairperson\") */\n      tag_67\n      jumpi\n      mload(0x40)\n      0x08c379a000000000000000000000000000000000000000000000000000000000\n      dup2\n      mstore\n      0x04\n      add\n      tag_68\n      swap1\n      tag_69\n      jump\t// in\n    tag_68:\n      mload(0x40)\n      dup1\n      swap2\n      sub\n      swap1\n      revert\n    tag_67:\n        /* \"ZKPVoting.sol\":1796:1802  voters */\n      0x01\n        /* \"ZKPVoting.sol\":1796:1809  voters[voter] */\n      0x00\n        /* \"ZKPVoting.sol\":1803:1808  voter */\n      dup3\n        /* \"ZKPVoting.sol\":1796:1809  voters[voter] */\n      0xffffffffffffffffffffffffffffffffffffffff\n      and\n      0xffffffffffffffffffffffffffffffffffffffff\n      and\n      dup2\n      mstore\n      0x20\n      add\n      swap1\n      dup2\n      mstore\n      0x20\n      add\n      0x00\n      keccak256\n      0x00\n      swap1\n      sload\n      swap1\n      0x0100\n      exp\n      swap1\n      div\n      0xff\n      and\n        /* \"ZKPVoting.sol\":1795:1809  !voters[voter] */\n      iszero\n        /* \"ZKPVoting.sol\":1787:1832  require(!voters[voter], \"Already registered\") */\n      tag_70\n      jumpi\n      mload(0x40)\n      0x08c379a000000000000000000000000000000000000000000000000000000000\n      dup2\n      mstore\n      0x04\n      add\n      tag_71\n      swap1\n      tag_72\n      jump\t// in\n    tag_71:\n      mload(0x40)\n      dup1\n      swap2\n      sub\n      swap1\n      revert\n    tag_70:\n        /* \"ZKPVoting.sol\":1859:1863  true */\n      0x01\n        /* \"ZKPVoting.sol\":1843:1849  voters */\n      dup1\n        /* \"ZKPVoting.sol\":1843:1856  voters[voter] */\n      0x00\n        /* \"ZKPVoting.sol\":1850:1855  voter */\n      dup4\n        /* \"ZKPVoting.sol\":1843:1856  voters[voter] */\n      0xffffffffffffffffffffffffffffffffffffffff\n      and\n      0xffffffffffffffffffffffffffffffffffffffff\n      and\n      dup2\n      mstore\n      0x20\n      add\n      swap1\n      dup2\n      mstore\n      0x20\n      add\n      0x00\n      keccak256\n      0x00\n        /* \"ZKPVoting.sol\":1843:1863  voters[voter] = true */\n      0x0100\n      exp\n      dup2\n      sload\n      dup2\n      0xff\n      mul\n      not\n      and\n      swap1\n      dup4\n      iszero\n      iszero\n      mul\n      or\n      swap1\n      sstore\n      pop\n        /* \"ZKPVoting.sol\":1664:1871  function registerVoter(address voter) external {... */\n      pop\n      jump\t// out\n        /* \"ZKPVoting.sol\":275:304  uint256 public constant G = 2 */\n    tag_28:\n        /* \"ZKPVoting.sol\":303:304  2 */\n      0x02\n        /* \"ZKPVoting.sol\":275:304  uint256 public constant G = 2 */\n      dup2\n      jump\t// out\n        /* \"ZKPVoting.sol\":311:340  uint256 public constant H = 3 */\n    tag_32:\n        /* \"ZKPVoting.sol\":339:340  3 */\n      0x03\n        /* \"ZKPVoting.sol\":311:340  uint256 public constant H = 3 */\n      dup2\n      jump\t// out\n        /* \"ZKPVoting.sol\":201:231  uint256 public constant P = 23 */\n    tag_35:\n        /* \"ZKPVoting.sol\":229:231  23 */\n      0x17\n        /* \"ZKPVoting.sol\":201:231  uint256 public constant P = 23 */\n      dup2\n      jump\t// out\n        /* \"ZKPVoting.sol\":600:638  mapping(address => bool) public voters */\n    tag_39:\n      mstore(0x20, 0x01)\n      dup1\n      0x00\n      mstore\n      keccak256(0x00, 0x40)\n      0x00\n      swap2\n      pop\n      sload\n      swap1\n      0x0100\n      exp\n      swap1\n      div\n      0xff\n      and\n      dup2\n      jump\t// out\n        /* \"ZKPVoting.sol\":645:669  uint256 public voteCount */\n    tag_43:\n      sload(0x02)\n      dup2\n      jump\t// out\n        /* \"ZKPVoting.sol\":556:593  mapping(address => Vote) public votes */\n    tag_47:\n      mstore(0x20, 0x00)\n      dup1\n      0x00\n      mstore\n      keccak256(0x00, 0x40)\n      0x00\n      swap2\n      pop\n      swap1\n      pop\n      dup1\n      0x00\n      add\n      sload\n      swap1\n      dup1\n      0x01\n      add\n      sload\n      swap1\n      dup1\n      0x02\n      add\n      sload\n      swap1\n      dup1\n      0x03\n      add\n      sload\n      swap1\n      dup1\n      0x04\n      add\n      sload\n      swap1\n      dup1\n      0x05\n      add\n      sload\n      swap1\n      dup1\n      0x06\n      add\n      sload\n      swap1\n      dup1\n      0x07\n      add\n      0x00\n      swap1\n      sload\n      swap1\n      0x0100\n      exp\n      swap1\n      div\n      0xff\n      and\n      swap1\n      pop\n      dup9\n      jump\t// out\n        /* \"ZKPVoting.sol\":238:268  uint256 public constant Q = 11 */\n    tag_51:\n        /* \"ZKPVoting.sol\":266:268  11 */\n      0x0b\n        /* \"ZKPVoting.sol\":238:268  uint256 public constant Q = 11 */\n      dup2\n      jump\t// out\n        /* \"ZKPVoting.sol\":3006:3097  function getVoteCount() external view returns (uint256) {... */\n    tag_54:\n        /* \"ZKPVoting.sol\":3053:3060  uint256 */\n      0x00\n        /* \"ZKPVoting.sol\":3080:3089  voteCount */\n      sload(0x02)\n        /* \"ZKPVoting.sol\":3073:3089  return voteCount */\n      swap1\n      pop\n        /* \"ZKPVoting.sol\":3006:3097  function getVoteCount() external view returns (uint256) {... */\n      swap1\n      jump\t// out\n        /* \"ZKPVoting.sol\":2293:2998  function verifyVote(address voter) internal {... */\n    tag_65:\n        /* \"ZKPVoting.sol\":2348:2362  Vote storage v */\n      0x00\n        /* \"ZKPVoting.sol\":2365:2370  votes */\n      dup1\n        /* \"ZKPVoting.sol\":2365:2377  votes[voter] */\n      0x00\n        /* \"ZKPVoting.sol\":2371:2376  voter */\n      dup4\n        /* \"ZKPVoting.sol\":2365:2377  votes[voter] */\n      0xffffffffffffffffffffffffffffffffffffffff\n      and\n      0xffffffffffffffffffffffffffffffffffffffff\n      and\n      dup2\n      mstore\n      0x20\n      add\n      swap1\n      dup2\n      mstore\n      0x20\n      add\n      0x00\n      keccak256\n        /* \"ZKPVoting.sol\":2348:2377  Vote storage v = votes[voter] */\n      swap1\n      pop\n        /* \"ZKPVoting.sol\":2388:2400  bytes32 hash */\n      0x00\n        /* \"ZKPVoting.sol\":2430:2431  v */\n      dup2\n        /* \"ZKPVoting.sol\":2430:2442  v.commitment */\n      0x00\n      add\n      sload\n        /* \"ZKPVoting.sol\":2444:2445  v */\n      dup3\n        /* \"ZKPVoting.sol\":2444:2448  v.a0 */\n      0x01\n      add\n      sload\n        /* \"ZKPVoting.sol\":2450:2451  v */\n      dup4\n        /* \"ZKPVoting.sol\":2450:2454  v.a1 */\n      0x02\n      add\n      sload\n        /* \"ZKPVoting.sol\":2413:2455  abi.encodePacked(v.commitment, v.a0, v.a1) */\n      add(0x20, mload(0x40))\n      tag_75\n      swap4\n      swap3\n      swap2\n      swap1\n      tag_76\n      jump\t// in\n    tag_75:\n      mload(0x40)\n      0x20\n      dup2\n      dup4\n      sub\n      sub\n      dup2\n      mstore\n      swap1\n      0x40\n      mstore\n        /* \"ZKPVoting.sol\":2403:2456  keccak256(abi.encodePacked(v.commitment, v.a0, v.a1)) */\n      dup1\n      mload\n      swap1\n      0x20\n      add\n      keccak256\n        /* \"ZKPVoting.sol\":2388:2456  bytes32 hash = keccak256(abi.encodePacked(v.commitment, v.a0, v.a1)) */\n      swap1\n      pop\n        /* \"ZKPVoting.sol\":2467:2476  uint256 e */\n      0x00\n        /* \"ZKPVoting.sol\":266:268  11 */\n      0x0b\n        /* \"ZKPVoting.sol\":2487:2491  hash */\n      dup3\n        /* \"ZKPVoting.sol\":2479:2492  uint256(hash) */\n      0x00\n      shr\n        /* \"ZKPVoting.sol\":2479:2496  uint256(hash) % Q */\n      tag_77\n      swap2\n      swap1\n      tag_78\n      jump\t// in\n    tag_77:\n        /* \"ZKPVoting.sol\":2467:2496  uint256 e = uint256(hash) % Q */\n      swap1\n      pop\n        /* \"ZKPVoting.sol\":2530:2531  e */\n      dup1\n        /* \"ZKPVoting.sol\":2522:2523  v */\n      dup4\n        /* \"ZKPVoting.sol\":2522:2526  v.e1 */\n      0x06\n      add\n      sload\n        /* \"ZKPVoting.sol\":2515:2516  v */\n      dup5\n        /* \"ZKPVoting.sol\":2515:2519  v.e0 */\n      0x05\n      add\n      sload\n        /* \"ZKPVoting.sol\":2515:2526  v.e0 + v.e1 */\n      tag_79\n      swap2\n      swap1\n      tag_80\n      jump\t// in\n    tag_79:\n        /* \"ZKPVoting.sol\":2515:2531  v.e0 + v.e1 == e */\n      eq\n        /* \"ZKPVoting.sol\":2507:2554  require(v.e0 + v.e1 == e, \"Challenge mismatch\") */\n      tag_81\n      jumpi\n      mload(0x40)\n      0x08c379a000000000000000000000000000000000000000000000000000000000\n      dup2\n      mstore\n      0x04\n      add\n      tag_82\n      swap1\n      tag_83\n      jump\t// in\n    tag_82:\n      mload(0x40)\n      dup1\n      swap2\n      sub\n      swap1\n      revert\n    tag_81:\n        /* \"ZKPVoting.sol\":2567:2580  uint256 left0 */\n      0x00\n        /* \"ZKPVoting.sol\":2583:2601  modExp(H, v.s0, P) */\n      tag_84\n        /* \"ZKPVoting.sol\":339:340  3 */\n      0x03\n        /* \"ZKPVoting.sol\":2593:2594  v */\n      dup6\n        /* \"ZKPVoting.sol\":2593:2597  v.s0 */\n      0x03\n      add\n      sload\n        /* \"ZKPVoting.sol\":229:231  23 */\n      0x17\n        /* \"ZKPVoting.sol\":2583:2589  modExp */\n      tag_85\n        /* \"ZKPVoting.sol\":2583:2601  modExp(H, v.s0, P) */\n      jump\t// in\n    tag_84:\n        /* \"ZKPVoting.sol\":2567:2601  uint256 left0 = modExp(H, v.s0, P) */\n      swap1\n      pop\n        /* \"ZKPVoting.sol\":2612:2626  uint256 right0 */\n      0x00\n        /* \"ZKPVoting.sol\":229:231  23 */\n      0x17\n        /* \"ZKPVoting.sol\":2637:2666  modExp(v.commitment, v.e0, P) */\n      tag_86\n        /* \"ZKPVoting.sol\":2644:2645  v */\n      dup7\n        /* \"ZKPVoting.sol\":2644:2656  v.commitment */\n      0x00\n      add\n      sload\n        /* \"ZKPVoting.sol\":2658:2659  v */\n      dup8\n        /* \"ZKPVoting.sol\":2658:2662  v.e0 */\n      0x05\n      add\n      sload\n        /* \"ZKPVoting.sol\":229:231  23 */\n      0x17\n        /* \"ZKPVoting.sol\":2637:2643  modExp */\n      tag_85\n        /* \"ZKPVoting.sol\":2637:2666  modExp(v.commitment, v.e0, P) */\n      jump\t// in\n    tag_86:\n        /* \"ZKPVoting.sol\":2630:2631  v */\n      dup7\n        /* \"ZKPVoting.sol\":2630:2634  v.a0 */\n      0x01\n      add\n      sload\n        /* \"ZKPVoting.sol\":2630:2666  v.a0 * modExp(v.commitment, v.e0, P) */\n      tag_87\n      swap2\n      swap1\n      tag_88\n      jump\t// in\n    tag_87:\n        /* \"ZKPVoting.sol\":2629:2671  (v.a0 * modExp(v.commitment, v.e0, P)) % P */\n      tag_89\n      swap2\n      swap1\n      tag_78\n      jump\t// in\n    tag_89:\n        /* \"ZKPVoting.sol\":2612:2671  uint256 right0 = (v.a0 * modExp(v.commitment, v.e0, P)) % P */\n      swap1\n      pop\n        /* \"ZKPVoting.sol\":2682:2691  uint256 d */\n      0x00\n        /* \"ZKPVoting.sol\":229:231  23 */\n      0x17\n        /* \"ZKPVoting.sol\":2710:2726  modInverse(G, P) */\n      tag_90\n        /* \"ZKPVoting.sol\":303:304  2 */\n      0x02\n        /* \"ZKPVoting.sol\":229:231  23 */\n      0x17\n        /* \"ZKPVoting.sol\":2710:2720  modInverse */\n      tag_91\n        /* \"ZKPVoting.sol\":2710:2726  modInverse(G, P) */\n      jump\t// in\n    tag_90:\n        /* \"ZKPVoting.sol\":2695:2696  v */\n      dup8\n        /* \"ZKPVoting.sol\":2695:2707  v.commitment */\n      0x00\n      add\n      sload\n        /* \"ZKPVoting.sol\":2695:2726  v.commitment * modInverse(G, P) */\n      tag_92\n      swap2\n      swap1\n      tag_88\n      jump\t// in\n    tag_92:\n        /* \"ZKPVoting.sol\":2694:2731  (v.commitment * modInverse(G, P)) % P */\n      tag_93\n      swap2\n      swap1\n      tag_78\n      jump\t// in\n    tag_93:\n        /* \"ZKPVoting.sol\":2682:2731  uint256 d = (v.commitment * modInverse(G, P)) % P */\n      swap1\n      pop\n        /* \"ZKPVoting.sol\":2742:2755  uint256 left1 */\n      0x00\n        /* \"ZKPVoting.sol\":2758:2776  modExp(H, v.s1, P) */\n      tag_94\n        /* \"ZKPVoting.sol\":339:340  3 */\n      0x03\n        /* \"ZKPVoting.sol\":2768:2769  v */\n      dup9\n        /* \"ZKPVoting.sol\":2768:2772  v.s1 */\n      0x04\n      add\n      sload\n        /* \"ZKPVoting.sol\":229:231  23 */\n      0x17\n        /* \"ZKPVoting.sol\":2758:2764  modExp */\n      tag_85\n        /* \"ZKPVoting.sol\":2758:2776  modExp(H, v.s1, P) */\n      jump\t// in\n    tag_94:\n        /* \"ZKPVoting.sol\":2742:2776  uint256 left1 = modExp(H, v.s1, P) */\n      swap1\n      pop\n        /* \"ZKPVoting.sol\":2787:2801  uint256 right1 */\n      0x00\n        /* \"ZKPVoting.sol\":229:231  23 */\n      0x17\n        /* \"ZKPVoting.sol\":2812:2830  modExp(d, v.e1, P) */\n      tag_95\n        /* \"ZKPVoting.sol\":2819:2820  d */\n      dup5\n        /* \"ZKPVoting.sol\":2822:2823  v */\n      dup11\n        /* \"ZKPVoting.sol\":2822:2826  v.e1 */\n      0x06\n      add\n      sload\n        /* \"ZKPVoting.sol\":229:231  23 */\n      0x17\n        /* \"ZKPVoting.sol\":2812:2818  modExp */\n      tag_85\n        /* \"ZKPVoting.sol\":2812:2830  modExp(d, v.e1, P) */\n      jump\t// in\n    tag_95:\n        /* \"ZKPVoting.sol\":2805:2806  v */\n      dup10\n        /* \"ZKPVoting.sol\":2805:2809  v.a1 */\n      0x02\n      add\n      sload\n        /* \"ZKPVoting.sol\":2805:2830  v.a1 * modExp(d, v.e1, P) */\n      tag_96\n      swap2\n      swap1\n      tag_88\n      jump\t// in\n    tag_96:\n        /* \"ZKPVoting.sol\":2804:2835  (v.a1 * modExp(d, v.e1, P)) % P */\n      tag_97\n      swap2\n      swap1\n      tag_78\n      jump\t// in\n    tag_97:\n        /* \"ZKPVoting.sol\":2787:2835  uint256 right1 = (v.a1 * modExp(d, v.e1, P)) % P */\n      swap1\n      pop\n        /* \"ZKPVoting.sol\":2865:2871  right0 */\n      dup4\n        /* \"ZKPVoting.sol\":2856:2861  left0 */\n      dup6\n        /* \"ZKPVoting.sol\":2856:2871  left0 == right0 */\n      eq\n        /* \"ZKPVoting.sol\":2856:2890  left0 == right0 && left1 == right1 */\n      dup1\n      iszero\n      tag_98\n      jumpi\n      pop\n        /* \"ZKPVoting.sol\":2884:2890  right1 */\n      dup1\n        /* \"ZKPVoting.sol\":2875:2880  left1 */\n      dup3\n        /* \"ZKPVoting.sol\":2875:2890  left1 == right1 */\n      eq\n        /* \"ZKPVoting.sol\":2856:2890  left0 == right0 && left1 == right1 */\n    tag_98:\n        /* \"ZKPVoting.sol\":2848:2905  require(left0 == right0 && left1 == right1, \"ZKP failed\") */\n      tag_99\n      jumpi\n      mload(0x40)\n      0x08c379a000000000000000000000000000000000000000000000000000000000\n      dup2\n      mstore\n      0x04\n      add\n      tag_100\n      swap1\n      tag_101\n      jump\t// in\n    tag_100:\n      mload(0x40)\n      dup1\n      swap2\n      sub\n      swap1\n      revert\n    tag_99:\n        /* \"ZKPVoting.sol\":2929:2933  true */\n      0x01\n        /* \"ZKPVoting.sol\":2916:2917  v */\n      dup9\n        /* \"ZKPVoting.sol\":2916:2926  v.verified */\n      0x07\n      add\n      0x00\n        /* \"ZKPVoting.sol\":2916:2933  v.verified = true */\n      0x0100\n      exp\n      dup2\n      sload\n      dup2\n      0xff\n      mul\n      not\n      and\n      swap1\n      dup4\n      iszero\n      iszero\n      mul\n      or\n      swap1\n      sstore\n      pop\n        /* \"ZKPVoting.sol\":2944:2953  voteCount */\n      0x02\n      0x00\n        /* \"ZKPVoting.sol\":2944:2955  voteCount++ */\n      dup2\n      sload\n      dup1\n      swap3\n      swap2\n      swap1\n      tag_102\n      swap1\n      tag_103\n      jump\t// in\n    tag_102:\n      swap2\n      swap1\n      pop\n      sstore\n      pop\n        /* \"ZKPVoting.sol\":2984:2989  voter */\n      dup9\n        /* \"ZKPVoting.sol\":2971:2990  VoteVerified(voter) */\n      0xffffffffffffffffffffffffffffffffffffffff\n      and\n      0xf27a34de99b426efb150041eb1b2213c0c05389b03d76b624fd5ce8076fab43c\n      mload(0x40)\n      mload(0x40)\n      dup1\n      swap2\n      sub\n      swap1\n      log2\n        /* \"ZKPVoting.sol\":2337:2998  {... */\n      pop\n      pop\n      pop\n      pop\n      pop\n      pop\n      pop\n      pop\n        /* \"ZKPVoting.sol\":2293:2998  function verifyVote(address voter) internal {... */\n      pop\n      jump\t// out\n        /* \"ZKPVoting.sol\":825:1188  function modExp(uint256 base, uint256 exp, uint256 modulus) internal pure returns (uint256) {... */\n    tag_85:\n        /* \"ZKPVoting.sol\":908:915  uint256 */\n      0x00\n        /* \"ZKPVoting.sol\":928:942  uint256 result */\n      dup1\n        /* \"ZKPVoting.sol\":945:946  1 */\n      0x01\n        /* \"ZKPVoting.sol\":928:946  uint256 result = 1 */\n      swap1\n      pop\n        /* \"ZKPVoting.sol\":971:978  modulus */\n      dup3\n        /* \"ZKPVoting.sol\":964:968  base */\n      dup6\n        /* \"ZKPVoting.sol\":964:978  base % modulus */\n      tag_105\n      swap2\n      swap1\n      tag_78\n      jump\t// in\n    tag_105:\n        /* \"ZKPVoting.sol\":957:978  base = base % modulus */\n      swap5\n      pop\n        /* \"ZKPVoting.sol\":989:1157  while (exp > 0) {... */\n    tag_106:\n        /* \"ZKPVoting.sol\":1002:1003  0 */\n      0x00\n        /* \"ZKPVoting.sol\":996:999  exp */\n      dup5\n        /* \"ZKPVoting.sol\":996:1003  exp > 0 */\n      gt\n        /* \"ZKPVoting.sol\":989:1157  while (exp > 0) {... */\n      iszero\n      tag_107\n      jumpi\n        /* \"ZKPVoting.sol\":1035:1036  1 */\n      0x01\n        /* \"ZKPVoting.sol\":1030:1031  2 */\n      0x02\n        /* \"ZKPVoting.sol\":1024:1027  exp */\n      dup6\n        /* \"ZKPVoting.sol\":1024:1031  exp % 2 */\n      tag_108\n      swap2\n      swap1\n      tag_78\n      jump\t// in\n    tag_108:\n        /* \"ZKPVoting.sol\":1024:1036  exp % 2 == 1 */\n      sub\n        /* \"ZKPVoting.sol\":1020:1072  if (exp % 2 == 1) result = (result * base) % modulus */\n      tag_109\n      jumpi\n        /* \"ZKPVoting.sol\":1065:1072  modulus */\n      dup3\n        /* \"ZKPVoting.sol\":1057:1061  base */\n      dup6\n        /* \"ZKPVoting.sol\":1048:1054  result */\n      dup3\n        /* \"ZKPVoting.sol\":1048:1061  result * base */\n      tag_110\n      swap2\n      swap1\n      tag_88\n      jump\t// in\n    tag_110:\n        /* \"ZKPVoting.sol\":1047:1072  (result * base) % modulus */\n      tag_111\n      swap2\n      swap1\n      tag_78\n      jump\t// in\n    tag_111:\n        /* \"ZKPVoting.sol\":1038:1072  result = (result * base) % modulus */\n      swap1\n      pop\n        /* \"ZKPVoting.sol\":1020:1072  if (exp % 2 == 1) result = (result * base) % modulus */\n    tag_109:\n        /* \"ZKPVoting.sol\":1110:1117  modulus */\n      dup3\n        /* \"ZKPVoting.sol\":1102:1106  base */\n      dup6\n        /* \"ZKPVoting.sol\":1095:1099  base */\n      dup7\n        /* \"ZKPVoting.sol\":1095:1106  base * base */\n      tag_112\n      swap2\n      swap1\n      tag_88\n      jump\t// in\n    tag_112:\n        /* \"ZKPVoting.sol\":1094:1117  (base * base) % modulus */\n      tag_113\n      swap2\n      swap1\n      tag_78\n      jump\t// in\n    tag_113:\n        /* \"ZKPVoting.sol\":1087:1117  base = (base * base) % modulus */\n      swap5\n      pop\n        /* \"ZKPVoting.sol\":1144:1145  2 */\n      0x02\n        /* \"ZKPVoting.sol\":1138:1141  exp */\n      dup5\n        /* \"ZKPVoting.sol\":1138:1145  exp / 2 */\n      tag_114\n      swap2\n      swap1\n      tag_115\n      jump\t// in\n    tag_114:\n        /* \"ZKPVoting.sol\":1132:1145  exp = exp / 2 */\n      swap4\n      pop\n        /* \"ZKPVoting.sol\":989:1157  while (exp > 0) {... */\n      jump(tag_106)\n    tag_107:\n        /* \"ZKPVoting.sol\":1174:1180  result */\n      dup1\n        /* \"ZKPVoting.sol\":1167:1180  return result */\n      swap2\n      pop\n      pop\n        /* \"ZKPVoting.sol\":825:1188  function modExp(uint256 base, uint256 exp, uint256 modulus) internal pure returns (uint256) {... */\n      swap4\n      swap3\n      pop\n      pop\n      pop\n      jump\t// out\n        /* \"ZKPVoting.sol\":1196:1354  function modInverse(uint256 a, uint256 m) internal pure returns (uint256) {... */\n    tag_91:\n        /* \"ZKPVoting.sol\":1261:1268  uint256 */\n      0x00\n        /* \"ZKPVoting.sol\":1282:1291  uint256 x */\n      dup1\n        /* \"ZKPVoting.sol\":1296:1313  extendedGCD(a, m) */\n      tag_117\n        /* \"ZKPVoting.sol\":1308:1309  a */\n      dup5\n        /* \"ZKPVoting.sol\":1311:1312  m */\n      dup5\n        /* \"ZKPVoting.sol\":1296:1307  extendedGCD */\n      tag_118\n        /* \"ZKPVoting.sol\":1296:1313  extendedGCD(a, m) */\n      jump\t// in\n    tag_117:\n        /* \"ZKPVoting.sol\":1281:1313  (uint256 x,) = extendedGCD(a, m) */\n      pop\n      swap1\n      pop\n        /* \"ZKPVoting.sol\":1345:1346  m */\n      dup3\n        /* \"ZKPVoting.sol\":1340:1341  m */\n      dup4\n        /* \"ZKPVoting.sol\":1336:1337  m */\n      dup5\n        /* \"ZKPVoting.sol\":1332:1333  x */\n      dup4\n        /* \"ZKPVoting.sol\":1332:1337  x % m */\n      tag_119\n      swap2\n      swap1\n      tag_78\n      jump\t// in\n    tag_119:\n        /* \"ZKPVoting.sol\":1332:1341  x % m + m */\n      tag_120\n      swap2\n      swap1\n      tag_80\n      jump\t// in\n    tag_120:\n        /* \"ZKPVoting.sol\":1331:1346  (x % m + m) % m */\n      tag_121\n      swap2\n      swap1\n      tag_78\n      jump\t// in\n    tag_121:\n        /* \"ZKPVoting.sol\":1324:1346  return (x % m + m) % m */\n      swap2\n      pop\n      pop\n        /* \"ZKPVoting.sol\":1196:1354  function modInverse(uint256 a, uint256 m) internal pure returns (uint256) {... */\n      swap3\n      swap2\n      pop\n      pop\n      jump\t// out\n        /* \"ZKPVoting.sol\":1362:1591  function extendedGCD(uint256 a, uint256 b) internal pure returns (uint256, uint256) {... */\n    tag_118:\n        /* \"ZKPVoting.sol\":1428:1435  uint256 */\n      0x00\n        /* \"ZKPVoting.sol\":1437:1444  uint256 */\n      dup1\n        /* \"ZKPVoting.sol\":1466:1467  0 */\n      0x00\n        /* \"ZKPVoting.sol\":1461:1462  a */\n      dup5\n        /* \"ZKPVoting.sol\":1461:1467  a == 0 */\n      sub\n        /* \"ZKPVoting.sol\":1457:1482  if (a == 0) return (b, 0) */\n      tag_123\n      jumpi\n        /* \"ZKPVoting.sol\":1477:1478  b */\n      dup3\n        /* \"ZKPVoting.sol\":1480:1481  0 */\n      0x00\n        /* \"ZKPVoting.sol\":1469:1482  return (b, 0) */\n      swap2\n      pop\n      swap2\n      pop\n      jump(tag_122)\n        /* \"ZKPVoting.sol\":1457:1482  if (a == 0) return (b, 0) */\n    tag_123:\n        /* \"ZKPVoting.sol\":1494:1503  uint256 g */\n      0x00\n        /* \"ZKPVoting.sol\":1505:1514  uint256 y */\n      dup1\n        /* \"ZKPVoting.sol\":1518:1539  extendedGCD(b % a, a) */\n      tag_124\n        /* \"ZKPVoting.sol\":1534:1535  a */\n      dup7\n        /* \"ZKPVoting.sol\":1530:1531  b */\n      dup7\n        /* \"ZKPVoting.sol\":1530:1535  b % a */\n      tag_125\n      swap2\n      swap1\n      tag_78\n      jump\t// in\n    tag_125:\n        /* \"ZKPVoting.sol\":1537:1538  a */\n      dup8\n        /* \"ZKPVoting.sol\":1518:1529  extendedGCD */\n      tag_118\n        /* \"ZKPVoting.sol\":1518:1539  extendedGCD(b % a, a) */\n      jump\t// in\n    tag_124:\n        /* \"ZKPVoting.sol\":1493:1539  (uint256 g, uint256 y) = extendedGCD(b % a, a) */\n      swap2\n      pop\n      swap2\n      pop\n        /* \"ZKPVoting.sol\":1558:1559  g */\n      dup2\n        /* \"ZKPVoting.sol\":1580:1581  g */\n      dup3\n        /* \"ZKPVoting.sol\":1576:1577  a */\n      dup8\n        /* \"ZKPVoting.sol\":1576:1581  a / g */\n      tag_126\n      swap2\n      swap1\n      tag_115\n      jump\t// in\n    tag_126:\n        /* \"ZKPVoting.sol\":1570:1571  a */\n      dup8\n        /* \"ZKPVoting.sol\":1566:1567  b */\n      dup8\n        /* \"ZKPVoting.sol\":1566:1571  b / a */\n      tag_127\n      swap2\n      swap1\n      tag_115\n      jump\t// in\n    tag_127:\n        /* \"ZKPVoting.sol\":1565:1582  (b / a) * (a / g) */\n      tag_128\n      swap2\n      swap1\n      tag_88\n      jump\t// in\n    tag_128:\n        /* \"ZKPVoting.sol\":1561:1562  y */\n      dup3\n        /* \"ZKPVoting.sol\":1561:1582  y - (b / a) * (a / g) */\n      tag_129\n      swap2\n      swap1\n      tag_130\n      jump\t// in\n    tag_129:\n        /* \"ZKPVoting.sol\":1550:1583  return (g, y - (b / a) * (a / g)) */\n      swap4\n      pop\n      swap4\n      pop\n      pop\n      pop\n        /* \"ZKPVoting.sol\":1362:1591  function extendedGCD(uint256 a, uint256 b) internal pure returns (uint256, uint256) {... */\n    tag_122:\n      swap3\n      pop\n      swap3\n      swap1\n      pop\n      jump\t// out\n        /* \"#utility.yul\":88:205   */\n    tag_132:\n        /* \"#utility.yul\":197:198   */\n      0x00\n        /* \"#utility.yul\":194:195   */\n      dup1\n        /* \"#utility.yul\":187:199   */\n      revert\n        /* \"#utility.yul\":334:411   */\n    tag_134:\n        /* \"#utility.yul\":371:378   */\n      0x00\n        /* \"#utility.yul\":400:405   */\n      dup2\n        /* \"#utility.yul\":389:405   */\n      swap1\n      pop\n        /* \"#utility.yul\":334:411   */\n      swap2\n      swap1\n      pop\n      jump\t// out\n        /* \"#utility.yul\":417:539   */\n    tag_135:\n        /* \"#utility.yul\":490:514   */\n      tag_168\n        /* \"#utility.yul\":508:513   */\n      dup2\n        /* \"#utility.yul\":490:514   */\n      tag_134\n      jump\t// in\n    tag_168:\n        /* \"#utility.yul\":483:488   */\n      dup2\n        /* \"#utility.yul\":480:515   */\n      eq\n        /* \"#utility.yul\":470:533   */\n      tag_169\n      jumpi\n        /* \"#utility.yul\":529:530   */\n      0x00\n        /* \"#utility.yul\":526:527   */\n      dup1\n        /* \"#utility.yul\":519:531   */\n      revert\n        /* \"#utility.yul\":470:533   */\n    tag_169:\n        /* \"#utility.yul\":417:539   */\n      pop\n      jump\t// out\n        /* \"#utility.yul\":545:684   */\n    tag_136:\n        /* \"#utility.yul\":591:596   */\n      0x00\n        /* \"#utility.yul\":629:635   */\n      dup2\n        /* \"#utility.yul\":616:636   */\n      calldataload\n        /* \"#utility.yul\":607:636   */\n      swap1\n      pop\n        /* \"#utility.yul\":645:678   */\n      tag_171\n        /* \"#utility.yul\":672:677   */\n      dup2\n        /* \"#utility.yul\":645:678   */\n      tag_135\n      jump\t// in\n    tag_171:\n        /* \"#utility.yul\":545:684   */\n      swap3\n      swap2\n      pop\n      pop\n      jump\t// out\n        /* \"#utility.yul\":690:1893   */\n    tag_17:\n        /* \"#utility.yul\":803:809   */\n      0x00\n        /* \"#utility.yul\":811:817   */\n      dup1\n        /* \"#utility.yul\":819:825   */\n      0x00\n        /* \"#utility.yul\":827:833   */\n      dup1\n        /* \"#utility.yul\":835:841   */\n      0x00\n        /* \"#utility.yul\":843:849   */\n      dup1\n        /* \"#utility.yul\":851:857   */\n      0x00\n        /* \"#utility.yul\":900:903   */\n      0xe0\n        /* \"#utility.yul\":888:897   */\n      dup9\n        /* \"#utility.yul\":879:886   */\n      dup11\n        /* \"#utility.yul\":875:898   */\n      sub\n        /* \"#utility.yul\":871:904   */\n      slt\n        /* \"#utility.yul\":868:988   */\n      iszero\n      tag_173\n      jumpi\n        /* \"#utility.yul\":907:986   */\n      tag_174\n      tag_132\n      jump\t// in\n    tag_174:\n        /* \"#utility.yul\":868:988   */\n    tag_173:\n        /* \"#utility.yul\":1027:1028   */\n      0x00\n        /* \"#utility.yul\":1052:1105   */\n      tag_175\n        /* \"#utility.yul\":1097:1104   */\n      dup11\n        /* \"#utility.yul\":1088:1094   */\n      dup3\n        /* \"#utility.yul\":1077:1086   */\n      dup12\n        /* \"#utility.yul\":1073:1095   */\n      add\n        /* \"#utility.yul\":1052:1105   */\n      tag_136\n      jump\t// in\n    tag_175:\n        /* \"#utility.yul\":1042:1105   */\n      swap8\n      pop\n        /* \"#utility.yul\":998:1115   */\n      pop\n        /* \"#utility.yul\":1154:1156   */\n      0x20\n        /* \"#utility.yul\":1180:1233   */\n      tag_176\n        /* \"#utility.yul\":1225:1232   */\n      dup11\n        /* \"#utility.yul\":1216:1222   */\n      dup3\n        /* \"#utility.yul\":1205:1214   */\n      dup12\n        /* \"#utility.yul\":1201:1223   */\n      add\n        /* \"#utility.yul\":1180:1233   */\n      tag_136\n      jump\t// in\n    tag_176:\n        /* \"#utility.yul\":1170:1233   */\n      swap7\n      pop\n        /* \"#utility.yul\":1125:1243   */\n      pop\n        /* \"#utility.yul\":1282:1284   */\n      0x40\n        /* \"#utility.yul\":1308:1361   */\n      tag_177\n        /* \"#utility.yul\":1353:1360   */\n      dup11\n        /* \"#utility.yul\":1344:1350   */\n      dup3\n        /* \"#utility.yul\":1333:1342   */\n      dup12\n        /* \"#utility.yul\":1329:1351   */\n      add\n        /* \"#utility.yul\":1308:1361   */\n      tag_136\n      jump\t// in\n    tag_177:\n        /* \"#utility.yul\":1298:1361   */\n      swap6\n      pop\n        /* \"#utility.yul\":1253:1371   */\n      pop\n        /* \"#utility.yul\":1410:1412   */\n      0x60\n        /* \"#utility.yul\":1436:1489   */\n      tag_178\n        /* \"#utility.yul\":1481:1488   */\n      dup11\n        /* \"#utility.yul\":1472:1478   */\n      dup3\n        /* \"#utility.yul\":1461:1470   */\n      dup12\n        /* \"#utility.yul\":1457:1479   */\n      add\n        /* \"#utility.yul\":1436:1489   */\n      tag_136\n      jump\t// in\n    tag_178:\n        /* \"#utility.yul\":1426:1489   */\n      swap5\n      pop\n        /* \"#utility.yul\":1381:1499   */\n      pop\n        /* \"#utility.yul\":1538:1541   */\n      0x80\n        /* \"#utility.yul\":1565:1618   */\n      tag_179\n        /* \"#utility.yul\":1610:1617   */\n      dup11\n        /* \"#utility.yul\":1601:1607   */\n      dup3\n        /* \"#utility.yul\":1590:1599   */\n      dup12\n        /* \"#utility.yul\":1586:1608   */\n      add\n        /* \"#utility.yul\":1565:1618   */\n      tag_136\n      jump\t// in\n    tag_179:\n        /* \"#utility.yul\":1555:1618   */\n      swap4\n      pop\n        /* \"#utility.yul\":1509:1628   */\n      pop\n        /* \"#utility.yul\":1667:1670   */\n      0xa0\n        /* \"#utility.yul\":1694:1747   */\n      tag_180\n        /* \"#utility.yul\":1739:1746   */\n      dup11\n        /* \"#utility.yul\":1730:1736   */\n      dup3\n        /* \"#utility.yul\":1719:1728   */\n      dup12\n        /* \"#utility.yul\":1715:1737   */\n      add\n        /* \"#utility.yul\":1694:1747   */\n      tag_136\n      jump\t// in\n    tag_180:\n        /* \"#utility.yul\":1684:1747   */\n      swap3\n      pop\n        /* \"#utility.yul\":1638:1757   */\n      pop\n        /* \"#utility.yul\":1796:1799   */\n      0xc0\n        /* \"#utility.yul\":1823:1876   */\n      tag_181\n        /* \"#utility.yul\":1868:1875   */\n      dup11\n        /* \"#utility.yul\":1859:1865   */\n      dup3\n        /* \"#utility.yul\":1848:1857   */\n      dup12\n        /* \"#utility.yul\":1844:1866   */\n      add\n        /* \"#utility.yul\":1823:1876   */\n      tag_136\n      jump\t// in\n    tag_181:\n        /* \"#utility.yul\":1813:1876   */\n      swap2\n      pop\n        /* \"#utility.yul\":1767:1886   */\n      pop\n        /* \"#utility.yul\":690:1893   */\n      swap3\n      swap6\n      swap9\n      swap2\n      swap5\n      swap8\n      pop\n      swap3\n      swap6\n      pop\n      jump\t// out\n        /* \"#utility.yul\":1899:2025   */\n    tag_137:\n        /* \"#utility.yul\":1936:1943   */\n      0x00\n        /* \"#utility.yul\":1976:2018   */\n      0xffffffffffffffffffffffffffffffffffffffff\n        /* \"#utility.yul\":1969:1974   */\n      dup3\n        /* \"#utility.yul\":1965:2019   */\n      and\n        /* \"#utility.yul\":1954:2019   */\n      swap1\n      pop\n        /* \"#utility.yul\":1899:2025   */\n      swap2\n      swap1\n      pop\n      jump\t// out\n        /* \"#utility.yul\":2031:2127   */\n    tag_138:\n        /* \"#utility.yul\":2068:2075   */\n      0x00\n        /* \"#utility.yul\":2097:2121   */\n      tag_184\n        /* \"#utility.yul\":2115:2120   */\n      dup3\n        /* \"#utility.yul\":2097:2121   */\n      tag_137\n      jump\t// in\n    tag_184:\n        /* \"#utility.yul\":2086:2121   */\n      swap1\n      pop\n        /* \"#utility.yul\":2031:2127   */\n      swap2\n      swap1\n      pop\n      jump\t// out\n        /* \"#utility.yul\":2133:2251   */\n    tag_139:\n        /* \"#utility.yul\":2220:2244   */\n      tag_186\n        /* \"#utility.yul\":2238:2243   */\n      dup2\n        /* \"#utility.yul\":2220:2244   */\n      tag_138\n      jump\t// in\n    tag_186:\n        /* \"#utility.yul\":2215:2218   */\n      dup3\n        /* \"#utility.yul\":2208:2245   */\n      mstore\n        /* \"#utility.yul\":2133:2251   */\n      pop\n      pop\n      jump\t// out\n        /* \"#utility.yul\":2257:2479   */\n    tag_22:\n        /* \"#utility.yul\":2350:2354   */\n      0x00\n        /* \"#utility.yul\":2388:2390   */\n      0x20\n        /* \"#utility.yul\":2377:2386   */\n      dup3\n        /* \"#utility.yul\":2373:2391   */\n      add\n        /* \"#utility.yul\":2365:2391   */\n      swap1\n      pop\n        /* \"#utility.yul\":2401:2472   */\n      tag_188\n        /* \"#utility.yul\":2469:2470   */\n      0x00\n        /* \"#utility.yul\":2458:2467   */\n      dup4\n        /* \"#utility.yul\":2454:2471   */\n      add\n        /* \"#utility.yul\":2445:2451   */\n      dup5\n        /* \"#utility.yul\":2401:2472   */\n      tag_139\n      jump\t// in\n    tag_188:\n        /* \"#utility.yul\":2257:2479   */\n      swap3\n      swap2\n      pop\n      pop\n      jump\t// out\n        /* \"#utility.yul\":2485:2607   */\n    tag_140:\n        /* \"#utility.yul\":2558:2582   */\n      tag_190\n        /* \"#utility.yul\":2576:2581   */\n      dup2\n        /* \"#utility.yul\":2558:2582   */\n      tag_138\n      jump\t// in\n    tag_190:\n        /* \"#utility.yul\":2551:2556   */\n      dup2\n        /* \"#utility.yul\":2548:2583   */\n      eq\n        /* \"#utility.yul\":2538:2601   */\n      tag_191\n      jumpi\n        /* \"#utility.yul\":2597:2598   */\n      0x00\n        /* \"#utility.yul\":2594:2595   */\n      dup1\n        /* \"#utility.yul\":2587:2599   */\n      revert\n        /* \"#utility.yul\":2538:2601   */\n    tag_191:\n        /* \"#utility.yul\":2485:2607   */\n      pop\n      jump\t// out\n        /* \"#utility.yul\":2613:2752   */\n    tag_141:\n        /* \"#utility.yul\":2659:2664   */\n      0x00\n        /* \"#utility.yul\":2697:2703   */\n      dup2\n        /* \"#utility.yul\":2684:2704   */\n      calldataload\n        /* \"#utility.yul\":2675:2704   */\n      swap1\n      pop\n        /* \"#utility.yul\":2713:2746   */\n      tag_193\n        /* \"#utility.yul\":2740:2745   */\n      dup2\n        /* \"#utility.yul\":2713:2746   */\n      tag_140\n      jump\t// in\n    tag_193:\n        /* \"#utility.yul\":2613:2752   */\n      swap3\n      swap2\n      pop\n      pop\n      jump\t// out\n        /* \"#utility.yul\":2758:3087   */\n    tag_25:\n        /* \"#utility.yul\":2817:2823   */\n      0x00\n        /* \"#utility.yul\":2866:2868   */\n      0x20\n        /* \"#utility.yul\":2854:2863   */\n      dup3\n        /* \"#utility.yul\":2845:2852   */\n      dup5\n        /* \"#utility.yul\":2841:2864   */\n      sub\n        /* \"#utility.yul\":2837:2869   */\n      slt\n        /* \"#utility.yul\":2834:2953   */\n      iszero\n      tag_195\n      jumpi\n        /* \"#utility.yul\":2872:2951   */\n      tag_196\n      tag_132\n      jump\t// in\n    tag_196:\n        /* \"#utility.yul\":2834:2953   */\n    tag_195:\n        /* \"#utility.yul\":2992:2993   */\n      0x00\n        /* \"#utility.yul\":3017:3070   */\n      tag_197\n        /* \"#utility.yul\":3062:3069   */\n      dup5\n        /* \"#utility.yul\":3053:3059   */\n      dup3\n        /* \"#utility.yul\":3042:3051   */\n      dup6\n        /* \"#utility.yul\":3038:3060   */\n      add\n        /* \"#utility.yul\":3017:3070   */\n      tag_141\n      jump\t// in\n    tag_197:\n        /* \"#utility.yul\":3007:3070   */\n      swap2\n      pop\n        /* \"#utility.yul\":2963:3080   */\n      pop\n        /* \"#utility.yul\":2758:3087   */\n      swap3\n      swap2\n      pop\n      pop\n      jump\t// out\n        /* \"#utility.yul\":3093:3211   */\n    tag_142:\n        /* \"#utility.yul\":3180:3204   */\n      tag_199\n        /* \"#utility.yul\":3198:3203   */\n      dup2\n        /* \"#utility.yul\":3180:3204   */\n      tag_134\n      jump\t// in\n    tag_199:\n        /* \"#utility.yul\":3175:3178   */\n      dup3\n        /* \"#utility.yul\":3168:3205   */\n      mstore\n        /* \"#utility.yul\":3093:3211   */\n      pop\n      pop\n      jump\t// out\n        /* \"#utility.yul\":3217:3439   */\n    tag_30:\n        /* \"#utility.yul\":3310:3314   */\n      0x00\n        /* \"#utility.yul\":3348:3350   */\n      0x20\n        /* \"#utility.yul\":3337:3346   */\n      dup3\n        /* \"#utility.yul\":3333:3351   */\n      add\n        /* \"#utility.yul\":3325:3351   */\n      swap1\n      pop\n        /* \"#utility.yul\":3361:3432   */\n      tag_201\n        /* \"#utility.yul\":3429:3430   */\n      0x00\n        /* \"#utility.yul\":3418:3427   */\n      dup4\n        /* \"#utility.yul\":3414:3431   */\n      add\n        /* \"#utility.yul\":3405:3411   */\n      dup5\n        /* \"#utility.yul\":3361:3432   */\n      tag_142\n      jump\t// in\n    tag_201:\n        /* \"#utility.yul\":3217:3439   */\n      swap3\n      swap2\n      pop\n      pop\n      jump\t// out\n        /* \"#utility.yul\":3445:3535   */\n    tag_143:\n        /* \"#utility.yul\":3479:3486   */\n      0x00\n        /* \"#utility.yul\":3522:3527   */\n      dup2\n        /* \"#utility.yul\":3515:3528   */\n      iszero\n        /* \"#utility.yul\":3508:3529   */\n      iszero\n        /* \"#utility.yul\":3497:3529   */\n      swap1\n      pop\n        /* \"#utility.yul\":3445:3535   */\n      swap2\n      swap1\n      pop\n      jump\t// out\n        /* \"#utility.yul\":3541:3650   */\n    tag_144:\n        /* \"#utility.yul\":3622:3643   */\n      tag_204\n        /* \"#utility.yul\":3637:3642   */\n      dup2\n        /* \"#utility.yul\":3622:3643   */\n      tag_143\n      jump\t// in\n    tag_204:\n        /* \"#utility.yul\":3617:3620   */\n      dup3\n        /* \"#utility.yul\":3610:3644   */\n      mstore\n        /* \"#utility.yul\":3541:3650   */\n      pop\n      pop\n      jump\t// out\n        /* \"#utility.yul\":3656:3866   */\n    tag_41:\n        /* \"#utility.yul\":3743:3747   */\n      0x00\n        /* \"#utility.yul\":3781:3783   */\n      0x20\n        /* \"#utility.yul\":3770:3779   */\n      dup3\n        /* \"#utility.yul\":3766:3784   */\n      add\n        /* \"#utility.yul\":3758:3784   */\n      swap1\n      pop\n        /* \"#utility.yul\":3794:3859   */\n      tag_206\n        /* \"#utility.yul\":3856:3857   */\n      0x00\n        /* \"#utility.yul\":3845:3854   */\n      dup4\n        /* \"#utility.yul\":3841:3858   */\n      add\n        /* \"#utility.yul\":3832:3838   */\n      dup5\n        /* \"#utility.yul\":3794:3859   */\n      tag_144\n      jump\t// in\n    tag_206:\n        /* \"#utility.yul\":3656:3866   */\n      swap3\n      swap2\n      pop\n      pop\n      jump\t// out\n        /* \"#utility.yul\":3872:4857   */\n    tag_49:\n        /* \"#utility.yul\":4155:4159   */\n      0x00\n        /* \"#utility.yul\":4193:4196   */\n      0x0100\n        /* \"#utility.yul\":4182:4191   */\n      dup3\n        /* \"#utility.yul\":4178:4197   */\n      add\n        /* \"#utility.yul\":4170:4197   */\n      swap1\n      pop\n        /* \"#utility.yul\":4207:4278   */\n      tag_208\n        /* \"#utility.yul\":4275:4276   */\n      0x00\n        /* \"#utility.yul\":4264:4273   */\n      dup4\n        /* \"#utility.yul\":4260:4277   */\n      add\n        /* \"#utility.yul\":4251:4257   */\n      dup12\n        /* \"#utility.yul\":4207:4278   */\n      tag_142\n      jump\t// in\n    tag_208:\n        /* \"#utility.yul\":4288:4360   */\n      tag_209\n        /* \"#utility.yul\":4356:4358   */\n      0x20\n        /* \"#utility.yul\":4345:4354   */\n      dup4\n        /* \"#utility.yul\":4341:4359   */\n      add\n        /* \"#utility.yul\":4332:4338   */\n      dup11\n        /* \"#utility.yul\":4288:4360   */\n      tag_142\n      jump\t// in\n    tag_209:\n        /* \"#utility.yul\":4370:4442   */\n      tag_210\n        /* \"#utility.yul\":4438:4440   */\n      0x40\n        /* \"#utility.yul\":4427:4436   */\n      dup4\n        /* \"#utility.yul\":4423:4441   */\n      add\n        /* \"#utility.yul\":4414:4420   */\n      dup10\n        /* \"#utility.yul\":4370:4442   */\n      tag_142\n      jump\t// in\n    tag_210:\n        /* \"#utility.yul\":4452:4524   */\n      tag_211\n        /* \"#utility.yul\":4520:4522   */\n      0x60\n        /* \"#utility.yul\":4509:4518   */\n      dup4\n        /* \"#utility.yul\":4505:4523   */\n      add\n        /* \"#utility.yul\":4496:4502   */\n      dup9\n        /* \"#utility.yul\":4452:4524   */\n      tag_142\n      jump\t// in\n    tag_211:\n        /* \"#utility.yul\":4534:4607   */\n      tag_212\n        /* \"#utility.yul\":4602:4605   */\n      0x80\n        /* \"#utility.yul\":4591:4600   */\n      dup4\n        /* \"#utility.yul\":4587:4606   */\n      add\n        /* \"#utility.yul\":4578:4584   */\n      dup8\n        /* \"#utility.yul\":4534:4607   */\n      tag_142\n      jump\t// in\n    tag_212:\n        /* \"#utility.yul\":4617:4690   */\n      tag_213\n        /* \"#utility.yul\":4685:4688   */\n      0xa0\n        /* \"#utility.yul\":4674:4683   */\n      dup4\n        /* \"#utility.yul\":4670:4689   */\n      add\n        /* \"#utility.yul\":4661:4667   */\n      dup7\n        /* \"#utility.yul\":4617:4690   */\n      tag_142\n      jump\t// in\n    tag_213:\n        /* \"#utility.yul\":4700:4773   */\n      tag_214\n        /* \"#utility.yul\":4768:4771   */\n      0xc0\n        /* \"#utility.yul\":4757:4766   */\n      dup4\n        /* \"#utility.yul\":4753:4772   */\n      add\n        /* \"#utility.yul\":4744:4750   */\n      dup6\n        /* \"#utility.yul\":4700:4773   */\n      tag_142\n      jump\t// in\n    tag_214:\n        /* \"#utility.yul\":4783:4850   */\n      tag_215\n        /* \"#utility.yul\":4845:4848   */\n      0xe0\n        /* \"#utility.yul\":4834:4843   */\n      dup4\n        /* \"#utility.yul\":4830:4849   */\n      add\n        /* \"#utility.yul\":4821:4827   */\n      dup5\n        /* \"#utility.yul\":4783:4850   */\n      tag_144\n      jump\t// in\n    tag_215:\n        /* \"#utility.yul\":3872:4857   */\n      swap10\n      swap9\n      pop\n      pop\n      pop\n      pop\n      pop\n      pop\n      pop\n      pop\n      pop\n      jump\t// out\n        /* \"#utility.yul\":4863:5032   */\n    tag_145:\n        /* \"#utility.yul\":4947:4958   */\n      0x00\n        /* \"#utility.yul\":4981:4987   */\n      dup3\n        /* \"#utility.yul\":4976:4979   */\n      dup3\n        /* \"#utility.yul\":4969:4988   */\n      mstore\n        /* \"#utility.yul\":5021:5025   */\n      0x20\n        /* \"#utility.yul\":5016:5019   */\n      dup3\n        /* \"#utility.yul\":5012:5026   */\n      add\n        /* \"#utility.yul\":4997:5026   */\n      swap1\n      pop\n        /* \"#utility.yul\":4863:5032   */\n      swap3\n      swap2\n      pop\n      pop\n      jump\t// out\n        /* \"#utility.yul\":5038:5202   */\n    tag_146:\n        /* \"#utility.yul\":5178:5194   */\n      0x4e6f742072656769737465726564000000000000000000000000000000000000\n        /* \"#utility.yul\":5174:5175   */\n      0x00\n        /* \"#utility.yul\":5166:5172   */\n      dup3\n        /* \"#utility.yul\":5162:5176   */\n      add\n        /* \"#utility.yul\":5155:5195   */\n      mstore\n        /* \"#utility.yul\":5038:5202   */\n      pop\n      jump\t// out\n        /* \"#utility.yul\":5208:5574   */\n    tag_147:\n        /* \"#utility.yul\":5350:5353   */\n      0x00\n        /* \"#utility.yul\":5371:5438   */\n      tag_219\n        /* \"#utility.yul\":5435:5437   */\n      0x0e\n        /* \"#utility.yul\":5430:5433   */\n      dup4\n        /* \"#utility.yul\":5371:5438   */\n      tag_145\n      jump\t// in\n    tag_219:\n        /* \"#utility.yul\":5364:5438   */\n      swap2\n      pop\n        /* \"#utility.yul\":5447:5540   */\n      tag_220\n        /* \"#utility.yul\":5536:5539   */\n      dup3\n        /* \"#utility.yul\":5447:5540   */\n      tag_146\n      jump\t// in\n    tag_220:\n        /* \"#utility.yul\":5565:5567   */\n      0x20\n        /* \"#utility.yul\":5560:5563   */\n      dup3\n        /* \"#utility.yul\":5556:5568   */\n      add\n        /* \"#utility.yul\":5549:5568   */\n      swap1\n      pop\n        /* \"#utility.yul\":5208:5574   */\n      swap2\n      swap1\n      pop\n      jump\t// out\n        /* \"#utility.yul\":5580:5999   */\n    tag_59:\n        /* \"#utility.yul\":5746:5750   */\n      0x00\n        /* \"#utility.yul\":5784:5786   */\n      0x20\n        /* \"#utility.yul\":5773:5782   */\n      dup3\n        /* \"#utility.yul\":5769:5787   */\n      add\n        /* \"#utility.yul\":5761:5787   */\n      swap1\n      pop\n        /* \"#utility.yul\":5833:5842   */\n      dup2\n        /* \"#utility.yul\":5827:5831   */\n      dup2\n        /* \"#utility.yul\":5823:5843   */\n      sub\n        /* \"#utility.yul\":5819:5820   */\n      0x00\n        /* \"#utility.yul\":5808:5817   */\n      dup4\n        /* \"#utility.yul\":5804:5821   */\n      add\n        /* \"#utility.yul\":5797:5844   */\n      mstore\n        /* \"#utility.yul\":5861:5992   */\n      tag_222\n        /* \"#utility.yul\":5987:5991   */\n      dup2\n        /* \"#utility.yul\":5861:5992   */\n      tag_147\n      jump\t// in\n    tag_222:\n        /* \"#utility.yul\":5853:5992   */\n      swap1\n      pop\n        /* \"#utility.yul\":5580:5999   */\n      swap2\n      swap1\n      pop\n      jump\t// out\n        /* \"#utility.yul\":6005:6168   */\n    tag_148:\n        /* \"#utility.yul\":6145:6160   */\n      0x416c726561647920766f74656400000000000000000000000000000000000000\n        /* \"#utility.yul\":6141:6142   */\n      0x00\n        /* \"#utility.yul\":6133:6139   */\n      dup3\n        /* \"#utility.yul\":6129:6143   */\n      add\n        /* \"#utility.yul\":6122:6161   */\n      mstore\n        /* \"#utility.yul\":6005:6168   */\n      pop\n      jump\t// out\n        /* \"#utility.yul\":6174:6540   */\n    tag_149:\n        /* \"#utility.yul\":6316:6319   */\n      0x00\n        /* \"#utility.yul\":6337:6404   */\n      tag_225\n        /* \"#utility.yul\":6401:6403   */\n      0x0d\n        /* \"#utility.yul\":6396:6399   */\n      dup4\n        /* \"#utility.yul\":6337:6404   */\n      tag_145\n      jump\t// in\n    tag_225:\n        /* \"#utility.yul\":6330:6404   */\n      swap2\n      pop\n        /* \"#utility.yul\":6413:6506   */\n      tag_226\n        /* \"#utility.yul\":6502:6505   */\n      dup3\n        /* \"#utility.yul\":6413:6506   */\n      tag_148\n      jump\t// in\n    tag_226:\n        /* \"#utility.yul\":6531:6533   */\n      0x20\n        /* \"#utility.yul\":6526:6529   */\n      dup3\n        /* \"#utility.yul\":6522:6534   */\n      add\n        /* \"#utility.yul\":6515:6534   */\n      swap1\n      pop\n        /* \"#utility.yul\":6174:6540   */\n      swap2\n      swap1\n      pop\n      jump\t// out\n        /* \"#utility.yul\":6546:6965   */\n    tag_62:\n        /* \"#utility.yul\":6712:6716   */\n      0x00\n        /* \"#utility.yul\":6750:6752   */\n      0x20\n        /* \"#utility.yul\":6739:6748   */\n      dup3\n        /* \"#utility.yul\":6735:6753   */\n      add\n        /* \"#utility.yul\":6727:6753   */\n      swap1\n      pop\n        /* \"#utility.yul\":6799:6808   */\n      dup2\n        /* \"#utility.yul\":6793:6797   */\n      dup2\n        /* \"#utility.yul\":6789:6809   */\n      sub\n        /* \"#utility.yul\":6785:6786   */\n      0x00\n        /* \"#utility.yul\":6774:6783   */\n      dup4\n        /* \"#utility.yul\":6770:6787   */\n      add\n        /* \"#utility.yul\":6763:6810   */\n      mstore\n        /* \"#utility.yul\":6827:6958   */\n      tag_228\n        /* \"#utility.yul\":6953:6957   */\n      dup2\n        /* \"#utility.yul\":6827:6958   */\n      tag_149\n      jump\t// in\n    tag_228:\n        /* \"#utility.yul\":6819:6958   */\n      swap1\n      pop\n        /* \"#utility.yul\":6546:6965   */\n      swap2\n      swap1\n      pop\n      jump\t// out\n        /* \"#utility.yul\":6971:7137   */\n    tag_150:\n        /* \"#utility.yul\":7111:7129   */\n      0x4f6e6c79206368616972706572736f6e00000000000000000000000000000000\n        /* \"#utility.yul\":7107:7108   */\n      0x00\n        /* \"#utility.yul\":7099:7105   */\n      dup3\n        /* \"#utility.yul\":7095:7109   */\n      add\n        /* \"#utility.yul\":7088:7130   */\n      mstore\n        /* \"#utility.yul\":6971:7137   */\n      pop\n      jump\t// out\n        /* \"#utility.yul\":7143:7509   */\n    tag_151:\n        /* \"#utility.yul\":7285:7288   */\n      0x00\n        /* \"#utility.yul\":7306:7373   */\n      tag_231\n        /* \"#utility.yul\":7370:7372   */\n      0x10\n        /* \"#utility.yul\":7365:7368   */\n      dup4\n        /* \"#utility.yul\":7306:7373   */\n      tag_145\n      jump\t// in\n    tag_231:\n        /* \"#utility.yul\":7299:7373   */\n      swap2\n      pop\n        /* \"#utility.yul\":7382:7475   */\n      tag_232\n        /* \"#utility.yul\":7471:7474   */\n      dup3\n        /* \"#utility.yul\":7382:7475   */\n      tag_150\n      jump\t// in\n    tag_232:\n        /* \"#utility.yul\":7500:7502   */\n      0x20\n        /* \"#utility.yul\":7495:7498   */\n      dup3\n        /* \"#utility.yul\":7491:7503   */\n      add\n        /* \"#utility.yul\":7484:7503   */\n      swap1\n      pop\n        /* \"#utility.yul\":7143:7509   */\n      swap2\n      swap1\n      pop\n      jump\t// out\n        /* \"#utility.yul\":7515:7934   */\n    tag_69:\n        /* \"#utility.yul\":7681:7685   */\n      0x00\n        /* \"#utility.yul\":7719:7721   */\n      0x20\n        /* \"#utility.yul\":7708:7717   */\n      dup3\n        /* \"#utility.yul\":7704:7722   */\n      add\n        /* \"#utility.yul\":7696:7722   */\n      swap1\n      pop\n        /* \"#utility.yul\":7768:7777   */\n      dup2\n        /* \"#utility.yul\":7762:7766   */\n      dup2\n        /* \"#utility.yul\":7758:7778   */\n      sub\n        /* \"#utility.yul\":7754:7755   */\n      0x00\n        /* \"#utility.yul\":7743:7752   */\n      dup4\n        /* \"#utility.yul\":7739:7756   */\n      add\n        /* \"#utility.yul\":7732:7779   */\n      mstore\n        /* \"#utility.yul\":7796:7927   */\n      tag_234\n        /* \"#utility.yul\":7922:7926   */\n      dup2\n        /* \"#utility.yul\":7796:7927   */\n      tag_151\n      jump\t// in\n    tag_234:\n        /* \"#utility.yul\":7788:7927   */\n      swap1\n      pop\n        /* \"#utility.yul\":7515:7934   */\n      swap2\n      swap1\n      pop\n      jump\t// out\n        /* \"#utility.yul\":7940:8108   */\n    tag_152:\n        /* \"#utility.yul\":8080:8100   */\n      0x416c726561647920726567697374657265640000000000000000000000000000\n        /* \"#utility.yul\":8076:8077   */\n      0x00\n        /* \"#utility.yul\":8068:8074   */\n      dup3\n        /* \"#utility.yul\":8064:8078   */\n      add\n        /* \"#utility.yul\":8057:8101   */\n      mstore\n        /* \"#utility.yul\":7940:8108   */\n      pop\n      jump\t// out\n        /* \"#utility.yul\":8114:8480   */\n    tag_153:\n        /* \"#utility.yul\":8256:8259   */\n      0x00\n        /* \"#utility.yul\":8277:8344   */\n      tag_237\n        /* \"#utility.yul\":8341:8343   */\n      0x12\n        /* \"#utility.yul\":8336:8339   */\n      dup4\n        /* \"#utility.yul\":8277:8344   */\n      tag_145\n      jump\t// in\n    tag_237:\n        /* \"#utility.yul\":8270:8344   */\n      swap2\n      pop\n        /* \"#utility.yul\":8353:8446   */\n      tag_238\n        /* \"#utility.yul\":8442:8445   */\n      dup3\n        /* \"#utility.yul\":8353:8446   */\n      tag_152\n      jump\t// in\n    tag_238:\n        /* \"#utility.yul\":8471:8473   */\n      0x20\n        /* \"#utility.yul\":8466:8469   */\n      dup3\n        /* \"#utility.yul\":8462:8474   */\n      add\n        /* \"#utility.yul\":8455:8474   */\n      swap1\n      pop\n        /* \"#utility.yul\":8114:8480   */\n      swap2\n      swap1\n      pop\n      jump\t// out\n        /* \"#utility.yul\":8486:8905   */\n    tag_72:\n        /* \"#utility.yul\":8652:8656   */\n      0x00\n        /* \"#utility.yul\":8690:8692   */\n      0x20\n        /* \"#utility.yul\":8679:8688   */\n      dup3\n        /* \"#utility.yul\":8675:8693   */\n      add\n        /* \"#utility.yul\":8667:8693   */\n      swap1\n      pop\n        /* \"#utility.yul\":8739:8748   */\n      dup2\n        /* \"#utility.yul\":8733:8737   */\n      dup2\n        /* \"#utility.yul\":8729:8749   */\n      sub\n        /* \"#utility.yul\":8725:8726   */\n      0x00\n        /* \"#utility.yul\":8714:8723   */\n      dup4\n        /* \"#utility.yul\":8710:8727   */\n      add\n        /* \"#utility.yul\":8703:8750   */\n      mstore\n        /* \"#utility.yul\":8767:8898   */\n      tag_240\n        /* \"#utility.yul\":8893:8897   */\n      dup2\n        /* \"#utility.yul\":8767:8898   */\n      tag_153\n      jump\t// in\n    tag_240:\n        /* \"#utility.yul\":8759:8898   */\n      swap1\n      pop\n        /* \"#utility.yul\":8486:8905   */\n      swap2\n      swap1\n      pop\n      jump\t// out\n        /* \"#utility.yul\":8911:8990   */\n    tag_154:\n        /* \"#utility.yul\":8950:8957   */\n      0x00\n        /* \"#utility.yul\":8979:8984   */\n      dup2\n        /* \"#utility.yul\":8968:8984   */\n      swap1\n      pop\n        /* \"#utility.yul\":8911:8990   */\n      swap2\n      swap1\n      pop\n      jump\t// out\n        /* \"#utility.yul\":8996:9153   */\n    tag_155:\n        /* \"#utility.yul\":9101:9146   */\n      tag_243\n        /* \"#utility.yul\":9121:9145   */\n      tag_244\n        /* \"#utility.yul\":9139:9144   */\n      dup3\n        /* \"#utility.yul\":9121:9145   */\n      tag_134\n      jump\t// in\n    tag_244:\n        /* \"#utility.yul\":9101:9146   */\n      tag_154\n      jump\t// in\n    tag_243:\n        /* \"#utility.yul\":9096:9099   */\n      dup3\n        /* \"#utility.yul\":9089:9147   */\n      mstore\n        /* \"#utility.yul\":8996:9153   */\n      pop\n      pop\n      jump\t// out\n        /* \"#utility.yul\":9159:9697   */\n    tag_76:\n        /* \"#utility.yul\":9327:9330   */\n      0x00\n        /* \"#utility.yul\":9342:9417   */\n      tag_246\n        /* \"#utility.yul\":9413:9416   */\n      dup3\n        /* \"#utility.yul\":9404:9410   */\n      dup7\n        /* \"#utility.yul\":9342:9417   */\n      tag_155\n      jump\t// in\n    tag_246:\n        /* \"#utility.yul\":9442:9444   */\n      0x20\n        /* \"#utility.yul\":9437:9440   */\n      dup3\n        /* \"#utility.yul\":9433:9445   */\n      add\n        /* \"#utility.yul\":9426:9445   */\n      swap2\n      pop\n        /* \"#utility.yul\":9455:9530   */\n      tag_247\n        /* \"#utility.yul\":9526:9529   */\n      dup3\n        /* \"#utility.yul\":9517:9523   */\n      dup6\n        /* \"#utility.yul\":9455:9530   */\n      tag_155\n      jump\t// in\n    tag_247:\n        /* \"#utility.yul\":9555:9557   */\n      0x20\n        /* \"#utility.yul\":9550:9553   */\n      dup3\n        /* \"#utility.yul\":9546:9558   */\n      add\n        /* \"#utility.yul\":9539:9558   */\n      swap2\n      pop\n        /* \"#utility.yul\":9568:9643   */\n      tag_248\n        /* \"#utility.yul\":9639:9642   */\n      dup3\n        /* \"#utility.yul\":9630:9636   */\n      dup5\n        /* \"#utility.yul\":9568:9643   */\n      tag_155\n      jump\t// in\n    tag_248:\n        /* \"#utility.yul\":9668:9670   */\n      0x20\n        /* \"#utility.yul\":9663:9666   */\n      dup3\n        /* \"#utility.yul\":9659:9671   */\n      add\n        /* \"#utility.yul\":9652:9671   */\n      swap2\n      pop\n        /* \"#utility.yul\":9688:9691   */\n      dup2\n        /* \"#utility.yul\":9681:9691   */\n      swap1\n      pop\n        /* \"#utility.yul\":9159:9697   */\n      swap5\n      swap4\n      pop\n      pop\n      pop\n      pop\n      jump\t// out\n        /* \"#utility.yul\":9703:9883   */\n    tag_156:\n        /* \"#utility.yul\":9751:9828   */\n      0x4e487b7100000000000000000000000000000000000000000000000000000000\n        /* \"#utility.yul\":9748:9749   */\n      0x00\n        /* \"#utility.yul\":9741:9829   */\n      mstore\n        /* \"#utility.yul\":9848:9852   */\n      0x12\n        /* \"#utility.yul\":9845:9846   */\n      0x04\n        /* \"#utility.yul\":9838:9853   */\n      mstore\n        /* \"#utility.yul\":9872:9876   */\n      0x24\n        /* \"#utility.yul\":9869:9870   */\n      0x00\n        /* \"#utility.yul\":9862:9877   */\n      revert\n        /* \"#utility.yul\":9889:10065   */\n    tag_78:\n        /* \"#utility.yul\":9921:9922   */\n      0x00\n        /* \"#utility.yul\":9938:9958   */\n      tag_251\n        /* \"#utility.yul\":9956:9957   */\n      dup3\n        /* \"#utility.yul\":9938:9958   */\n      tag_134\n      jump\t// in\n    tag_251:\n        /* \"#utility.yul\":9933:9958   */\n      swap2\n      pop\n        /* \"#utility.yul\":9972:9992   */\n      tag_252\n        /* \"#utility.yul\":9990:9991   */\n      dup4\n        /* \"#utility.yul\":9972:9992   */\n      tag_134\n      jump\t// in\n    tag_252:\n        /* \"#utility.yul\":9967:9992   */\n      swap3\n      pop\n        /* \"#utility.yul\":10011:10012   */\n      dup3\n        /* \"#utility.yul\":10001:10036   */\n      tag_253\n      jumpi\n        /* \"#utility.yul\":10016:10034   */\n      tag_254\n      tag_156\n      jump\t// in\n    tag_254:\n        /* \"#utility.yul\":10001:10036   */\n    tag_253:\n        /* \"#utility.yul\":10057:10058   */\n      dup3\n        /* \"#utility.yul\":10054:10055   */\n      dup3\n        /* \"#utility.yul\":10050:10059   */\n      mod\n        /* \"#utility.yul\":10045:10059   */\n      swap1\n      pop\n        /* \"#utility.yul\":9889:10065   */\n      swap3\n      swap2\n      pop\n      pop\n      jump\t// out\n        /* \"#utility.yul\":10071:10251   */\n    tag_157:\n        /* \"#utility.yul\":10119:10196   */\n      0x4e487b7100000000000000000000000000000000000000000000000000000000\n        /* \"#utility.yul\":10116:10117   */\n      0x00\n        /* \"#utility.yul\":10109:10197   */\n      mstore\n        /* \"#utility.yul\":10216:10220   */\n      0x11\n        /* \"#utility.yul\":10213:10214   */\n      0x04\n        /* \"#utility.yul\":10206:10221   */\n      mstore\n        /* \"#utility.yul\":10240:10244   */\n      0x24\n        /* \"#utility.yul\":10237:10238   */\n      0x00\n        /* \"#utility.yul\":10230:10245   */\n      revert\n        /* \"#utility.yul\":10257:10448   */\n    tag_80:\n        /* \"#utility.yul\":10297:10300   */\n      0x00\n        /* \"#utility.yul\":10316:10336   */\n      tag_257\n        /* \"#utility.yul\":10334:10335   */\n      dup3\n        /* \"#utility.yul\":10316:10336   */\n      tag_134\n      jump\t// in\n    tag_257:\n        /* \"#utility.yul\":10311:10336   */\n      swap2\n      pop\n        /* \"#utility.yul\":10350:10370   */\n      tag_258\n        /* \"#utility.yul\":10368:10369   */\n      dup4\n        /* \"#utility.yul\":10350:10370   */\n      tag_134\n      jump\t// in\n    tag_258:\n        /* \"#utility.yul\":10345:10370   */\n      swap3\n      pop\n        /* \"#utility.yul\":10393:10394   */\n      dup3\n        /* \"#utility.yul\":10390:10391   */\n      dup3\n        /* \"#utility.yul\":10386:10395   */\n      add\n        /* \"#utility.yul\":10379:10395   */\n      swap1\n      pop\n        /* \"#utility.yul\":10414:10417   */\n      dup1\n        /* \"#utility.yul\":10411:10412   */\n      dup3\n        /* \"#utility.yul\":10408:10418   */\n      gt\n        /* \"#utility.yul\":10405:10441   */\n      iszero\n      tag_259\n      jumpi\n        /* \"#utility.yul\":10421:10439   */\n      tag_260\n      tag_157\n      jump\t// in\n    tag_260:\n        /* \"#utility.yul\":10405:10441   */\n    tag_259:\n        /* \"#utility.yul\":10257:10448   */\n      swap3\n      swap2\n      pop\n      pop\n      jump\t// out\n        /* \"#utility.yul\":10454:10622   */\n    tag_158:\n        /* \"#utility.yul\":10594:10614   */\n      0x4368616c6c656e6765206d69736d617463680000000000000000000000000000\n        /* \"#utility.yul\":10590:10591   */\n      0x00\n        /* \"#utility.yul\":10582:10588   */\n      dup3\n        /* \"#utility.yul\":10578:10592   */\n      add\n        /* \"#utility.yul\":10571:10615   */\n      mstore\n        /* \"#utility.yul\":10454:10622   */\n      pop\n      jump\t// out\n        /* \"#utility.yul\":10628:10994   */\n    tag_159:\n        /* \"#utility.yul\":10770:10773   */\n      0x00\n        /* \"#utility.yul\":10791:10858   */\n      tag_263\n        /* \"#utility.yul\":10855:10857   */\n      0x12\n        /* \"#utility.yul\":10850:10853   */\n      dup4\n        /* \"#utility.yul\":10791:10858   */\n      tag_145\n      jump\t// in\n    tag_263:\n        /* \"#utility.yul\":10784:10858   */\n      swap2\n      pop\n        /* \"#utility.yul\":10867:10960   */\n      tag_264\n        /* \"#utility.yul\":10956:10959   */\n      dup3\n        /* \"#utility.yul\":10867:10960   */\n      tag_158\n      jump\t// in\n    tag_264:\n        /* \"#utility.yul\":10985:10987   */\n      0x20\n        /* \"#utility.yul\":10980:10983   */\n      dup3\n        /* \"#utility.yul\":10976:10988   */\n      add\n        /* \"#utility.yul\":10969:10988   */\n      swap1\n      pop\n        /* \"#utility.yul\":10628:10994   */\n      swap2\n      swap1\n      pop\n      jump\t// out\n        /* \"#utility.yul\":11000:11419   */\n    tag_83:\n        /* \"#utility.yul\":11166:11170   */\n      0x00\n        /* \"#utility.yul\":11204:11206   */\n      0x20\n        /* \"#utility.yul\":11193:11202   */\n      dup3\n        /* \"#utility.yul\":11189:11207   */\n      add\n        /* \"#utility.yul\":11181:11207   */\n      swap1\n      pop\n        /* \"#utility.yul\":11253:11262   */\n      dup2\n        /* \"#utility.yul\":11247:11251   */\n      dup2\n        /* \"#utility.yul\":11243:11263   */\n      sub\n        /* \"#utility.yul\":11239:11240   */\n      0x00\n        /* \"#utility.yul\":11228:11237   */\n      dup4\n        /* \"#utility.yul\":11224:11241   */\n      add\n        /* \"#utility.yul\":11217:11264   */\n      mstore\n        /* \"#utility.yul\":11281:11412   */\n      tag_266\n        /* \"#utility.yul\":11407:11411   */\n      dup2\n        /* \"#utility.yul\":11281:11412   */\n      tag_159\n      jump\t// in\n    tag_266:\n        /* \"#utility.yul\":11273:11412   */\n      swap1\n      pop\n        /* \"#utility.yul\":11000:11419   */\n      swap2\n      swap1\n      pop\n      jump\t// out\n        /* \"#utility.yul\":11425:11835   */\n    tag_88:\n        /* \"#utility.yul\":11465:11472   */\n      0x00\n        /* \"#utility.yul\":11488:11508   */\n      tag_268\n        /* \"#utility.yul\":11506:11507   */\n      dup3\n        /* \"#utility.yul\":11488:11508   */\n      tag_134\n      jump\t// in\n    tag_268:\n        /* \"#utility.yul\":11483:11508   */\n      swap2\n      pop\n        /* \"#utility.yul\":11522:11542   */\n      tag_269\n        /* \"#utility.yul\":11540:11541   */\n      dup4\n        /* \"#utility.yul\":11522:11542   */\n      tag_134\n      jump\t// in\n    tag_269:\n        /* \"#utility.yul\":11517:11542   */\n      swap3\n      pop\n        /* \"#utility.yul\":11577:11578   */\n      dup3\n        /* \"#utility.yul\":11574:11575   */\n      dup3\n        /* \"#utility.yul\":11570:11579   */\n      mul\n        /* \"#utility.yul\":11599:11629   */\n      tag_270\n        /* \"#utility.yul\":11617:11628   */\n      dup2\n        /* \"#utility.yul\":11599:11629   */\n      tag_134\n      jump\t// in\n    tag_270:\n        /* \"#utility.yul\":11588:11629   */\n      swap2\n      pop\n        /* \"#utility.yul\":11778:11779   */\n      dup3\n        /* \"#utility.yul\":11769:11776   */\n      dup3\n        /* \"#utility.yul\":11765:11780   */\n      div\n        /* \"#utility.yul\":11762:11763   */\n      dup5\n        /* \"#utility.yul\":11759:11781   */\n      eq\n        /* \"#utility.yul\":11739:11740   */\n      dup4\n        /* \"#utility.yul\":11732:11741   */\n      iszero\n        /* \"#utility.yul\":11712:11795   */\n      or\n        /* \"#utility.yul\":11689:11828   */\n      tag_271\n      jumpi\n        /* \"#utility.yul\":11808:11826   */\n      tag_272\n      tag_157\n      jump\t// in\n    tag_272:\n        /* \"#utility.yul\":11689:11828   */\n    tag_271:\n        /* \"#utility.yul\":11473:11835   */\n      pop\n        /* \"#utility.yul\":11425:11835   */\n      swap3\n      swap2\n      pop\n      pop\n      jump\t// out\n        /* \"#utility.yul\":11841:12001   */\n    tag_160:\n        /* \"#utility.yul\":11981:11993   */\n      0x5a4b50206661696c656400000000000000000000000000000000000000000000\n        /* \"#utility.yul\":11977:11978   */\n      0x00\n        /* \"#utility.yul\":11969:11975   */\n      dup3\n        /* \"#utility.yul\":11965:11979   */\n      add\n        /* \"#utility.yul\":11958:11994   */\n      mstore\n        /* \"#utility.yul\":11841:12001   */\n      pop\n      jump\t// out\n        /* \"#utility.yul\":12007:12373   */\n    tag_161:\n        /* \"#utility.yul\":12149:12152   */\n      0x00\n        /* \"#utility.yul\":12170:12237   */\n      tag_275\n        /* \"#utility.yul\":12234:12236   */\n      0x0a\n        /* \"#utility.yul\":12229:12232   */\n      dup4\n        /* \"#utility.yul\":12170:12237   */\n      tag_145\n      jump\t// in\n    tag_275:\n        /* \"#utility.yul\":12163:12237   */\n      swap2\n      pop\n        /* \"#utility.yul\":12246:12339   */\n      tag_276\n        /* \"#utility.yul\":12335:12338   */\n      dup3\n        /* \"#utility.yul\":12246:12339   */\n      tag_160\n      jump\t// in\n    tag_276:\n        /* \"#utility.yul\":12364:12366   */\n      0x20\n        /* \"#utility.yul\":12359:12362   */\n      dup3\n        /* \"#utility.yul\":12355:12367   */\n      add\n        /* \"#utility.yul\":12348:12367   */\n      swap1\n      pop\n        /* \"#utility.yul\":12007:12373   */\n      swap2\n      swap1\n      pop\n      jump\t// out\n        /* \"#utility.yul\":12379:12798   */\n    tag_101:\n        /* \"#utility.yul\":12545:12549   */\n      0x00\n        /* \"#utility.yul\":12583:12585   */\n      0x20\n        /* \"#utility.yul\":12572:12581   */\n      dup3\n        /* \"#utility.yul\":12568:12586   */\n      add\n        /* \"#utility.yul\":12560:12586   */\n      swap1\n      pop\n        /* \"#utility.yul\":12632:12641   */\n      dup2\n        /* \"#utility.yul\":12626:12630   */\n      dup2\n        /* \"#utility.yul\":12622:12642   */\n      sub\n        /* \"#utility.yul\":12618:12619   */\n      0x00\n        /* \"#utility.yul\":12607:12616   */\n      dup4\n        /* \"#utility.yul\":12603:12620   */\n      add\n        /* \"#utility.yul\":12596:12643   */\n      mstore\n        /* \"#utility.yul\":12660:12791   */\n      tag_278\n        /* \"#utility.yul\":12786:12790   */\n      dup2\n        /* \"#utility.yul\":12660:12791   */\n      tag_161\n      jump\t// in\n    tag_278:\n        /* \"#utility.yul\":12652:12791   */\n      swap1\n      pop\n        /* \"#utility.yul\":12379:12798   */\n      swap2\n      swap1\n      pop\n      jump\t// out\n        /* \"#utility.yul\":12804:13037   */\n    tag_103:\n        /* \"#utility.yul\":12843:12846   */\n      0x00\n        /* \"#utility.yul\":12866:12890   */\n      tag_280\n        /* \"#utility.yul\":12884:12889   */\n      dup3\n        /* \"#utility.yul\":12866:12890   */\n      tag_134\n      jump\t// in\n    tag_280:\n        /* \"#utility.yul\":12857:12890   */\n      swap2\n      pop\n        /* \"#utility.yul\":12912:12978   */\n      0xffffffffffffffffffffffffffffffffffffffffffffffffffffffffffffffff\n        /* \"#utility.yul\":12905:12910   */\n      dup3\n        /* \"#utility.yul\":12902:12979   */\n      sub\n        /* \"#utility.yul\":12899:13002   */\n      tag_281\n      jumpi\n        /* \"#utility.yul\":12982:13000   */\n      tag_282\n      tag_157\n      jump\t// in\n    tag_282:\n        /* \"#utility.yul\":12899:13002   */\n    tag_281:\n        /* \"#utility.yul\":13029:13030   */\n      0x01\n        /* \"#utility.yul\":13022:13027   */\n      dup3\n        /* \"#utility.yul\":13018:13031   */\n      add\n        /* \"#utility.yul\":13011:13031   */\n      swap1\n      pop\n        /* \"#utility.yul\":12804:13037   */\n      swap2\n      swap1\n      pop\n      jump\t// out\n        /* \"#utility.yul\":13043:13228   */\n    tag_115:\n        /* \"#utility.yul\":13083:13084   */\n      0x00\n        /* \"#utility.yul\":13100:13120   */\n      tag_284\n        /* \"#utility.yul\":13118:13119   */\n      dup3\n        /* \"#utility.yul\":13100:13120   */\n      tag_134\n      jump\t// in\n    tag_284:\n        /* \"#utility.yul\":13095:13120   */\n      swap2\n      pop\n        /* \"#utility.yul\":13134:13154   */\n      tag_285\n        /* \"#utility.yul\":13152:13153   */\n      dup4\n        /* \"#utility.yul\":13134:13154   */\n      tag_134\n      jump\t// in\n    tag_285:\n        /* \"#utility.yul\":13129:13154   */\n      swap3\n      pop\n        /* \"#utility.yul\":13173:13174   */\n      dup3\n        /* \"#utility.yul\":13163:13198   */\n      tag_286\n      jumpi\n        /* \"#utility.yul\":13178:13196   */\n      tag_287\n      tag_156\n      jump\t// in\n    tag_287:\n        /* \"#utility.yul\":13163:13198   */\n    tag_286:\n        /* \"#utility.yul\":13220:13221   */\n      dup3\n        /* \"#utility.yul\":13217:13218   */\n      dup3\n        /* \"#utility.yul\":13213:13222   */\n      div\n        /* \"#utility.yul\":13208:13222   */\n      swap1\n      pop\n        /* \"#utility.yul\":13043:13228   */\n      swap3\n      swap2\n      pop\n      pop\n      jump\t// out\n        /* \"#utility.yul\":13234:13428   */\n    tag_130:\n        /* \"#utility.yul\":13274:13278   */\n      0x00\n        /* \"#utility.yul\":13294:13314   */\n      tag_289\n        /* \"#utility.yul\":13312:13313   */\n      dup3\n        /* \"#utility.yul\":13294:13314   */\n      tag_134\n      jump\t// in\n    tag_289:\n        /* \"#utility.yul\":13289:13314   */\n      swap2\n      pop\n        /* \"#utility.yul\":13328:13348   */\n      tag_290\n        /* \"#utility.yul\":13346:13347   */\n      dup4\n        /* \"#utility.yul\":13328:13348   */\n      tag_134\n      jump\t// in\n    tag_290:\n        /* \"#utility.yul\":13323:13348   */\n      swap3\n      pop\n        /* \"#utility.yul\":13372:13373   */\n      dup3\n        /* \"#utility.yul\":13369:13370   */\n      dup3\n        /* \"#utility.yul\":13365:13374   */\n      sub\n        /* \"#utility.yul\":13357:13374   */\n      swap1\n      pop\n        /* \"#utility.yul\":13396:13397   */\n      dup2\n        /* \"#utility.yul\":13390:13394   */\n      dup2\n        /* \"#utility.yul\":13387:13398   */\n      gt\n        /* \"#utility.yul\":13384:13421   */\n      iszero\n      tag_291\n      jumpi\n        /* \"#utility.yul\":13401:13419   */\n      tag_292\n      tag_157\n      jump\t// in\n    tag_292:\n        /* \"#utility.yul\":13384:13421   */\n    tag_291:\n        /* \"#utility.yul\":13234:13428   */\n      swap3\n      swap2\n      pop\n      pop\n      jump\t// out\n\n    auxdata: 0xa2646970667358221220b47fd1890354cceaf5667dd97c1e6a5cfa2bb2c6b52b78fa6c56c15c173ca6e564736f6c634300081a0033\n}\n",
				"bytecode": {
					"linkReferences": {},
					"object": "6080604052348015600e575f80fd5b503360035f6101000a81548173ffffffffffffffffffffffffffffffffffffffff021916908373ffffffffffffffffffffffffffffffffffffffff16021790555061112a8061005c5f395ff3fe608060405234801561000f575f80fd5b50600436106100a7575f3560e01c80638b8fbd921161006f5780638b8fbd921461013d578063a3ec138d1461015b578063c63840711461018b578063d8bff5a5146101a9578063e493ef8c146101e0578063e7b3387c146101fe576100a7565b806306ad0732146100ab5780632e4176cf146100c757806338db6dd3146100e55780636fecb6231461010157806370a5d8611461011f575b5f80fd5b6100c560048036038101906100c09190610a4f565b61021c565b005b6100cf61046f565b6040516100dc9190610b2b565b60405180910390f35b6100ff60048036038101906100fa9190610b6e565b610494565b005b610109610604565b6040516101169190610ba8565b60405180910390f35b610127610609565b6040516101349190610ba8565b60405180910390f35b61014561060e565b6040516101529190610ba8565b60405180910390f35b61017560048036038101906101709190610b6e565b610613565b6040516101829190610bdb565b60405180910390f35b610193610630565b6040516101a09190610ba8565b60405180910390f35b6101c360048036038101906101be9190610b6e565b610636565b6040516101d7989796959493929190610bf4565b60405180910390f35b6101e8610685565b6040516101f59190610ba8565b60405180910390f35b61020661068a565b6040516102139190610ba8565b60405180910390f35b60015f3373ffffffffffffffffffffffffffffffffffffffff1673ffffffffffffffffffffffffffffffffffffffff1681526020019081526020015f205f9054906101000a900460ff166102a5576040517f08c379a000000000000000000000000000000000000000000000000000000000815260040161029c90610cca565b60405180910390fd5b5f803373ffffffffffffffffffffffffffffffffffffffff1673ffffffffffffffffffffffffffffffffffffffff1681526020019081526020015f206007015f9054906101000a900460ff1615610331576040517f08c379a000000000000000000000000000000000000000000000000000000000815260040161032890610d32565b60405180910390fd5b6040518061010001604052808881526020018781526020018681526020018581526020018481526020018381526020018281526020015f15158152505f803373ffffffffffffffffffffffffffffffffffffffff1673ffffffffffffffffffffffffffffffffffffffff1681526020019081526020015f205f820151815f01556020820151816001015560408201518160020155606082015181600301556080820151816004015560a0820151816005015560c0820151816006015560e0820151816007015f6101000a81548160ff0219169083151502179055509050503373ffffffffffffffffffffffffffffffffffffffff167fa36cc2bebb74db33e9f88110a07ef56e1b31b24b4c4f51b54b1664266e29f45b886040516104559190610ba8565b60405180910390a261046633610693565b50505050505050565b60035f9054906101000a900473ffffffffffffffffffffffffffffffffffffffff1681565b60035f9054906101000a900473ffffffffffffffffffffffffffffffffffffffff1673ffffffffffffffffffffffffffffffffffffffff163373ffffffffffffffffffffffffffffffffffffffff1614610523576040517f08c379a000000000000000000000000000000000000000000000000000000000815260040161051a90610d9a565b60405180910390fd5b60015f8273ffffffffffffffffffffffffffffffffffffffff1673ffffffffffffffffffffffffffffffffffffffff1681526020019081526020015f205f9054906101000a900460ff16156105ad576040517f08c379a00000000000000000000000000000000000000000000000000000000081526004016105a490610e02565b60405180910390fd5b6001805f8373ffffffffffffffffffffffffffffffffffffffff1673ffffffffffffffffffffffffffffffffffffffff1681526020019081526020015f205f6101000a81548160ff02191690831515021790555050565b600281565b600381565b601781565b6001602052805f5260405f205f915054906101000a900460ff1681565b60025481565b5f602052805f5260405f205f91509050805f015490806001015490806002015490806003015490806004015490806005015490806006015490806007015f9054906101000a900460ff16905088565b600b81565b5f600254905090565b5f805f8373ffffffffffffffffffffffffffffffffffffffff1673ffffffffffffffffffffffffffffffffffffffff1681526020019081526020015f2090505f815f0154826001015483600201546040516020016106f393929190610e40565b6040516020818303038152906040528051906020012090505f600b825f1c61071b9190610ea9565b905080836006015484600501546107329190610f06565b14610772576040517f08c379a000000000000000000000000000000000000000000000000000000000815260040161076990610f83565b60405180910390fd5b5f6107846003856003015460176108f0565b90505f601761079c865f0154876005015460176108f0565b86600101546107ab9190610fa1565b6107b59190610ea9565b90505f60176107c660026017610973565b875f01546107d49190610fa1565b6107de9190610ea9565b90505f6107f26003886004015460176108f0565b90505f6017610807848a6006015460176108f0565b89600201546108169190610fa1565b6108209190610ea9565b9050838514801561083057508082145b61086f576040517f08c379a00000000000000000000000000000000000000000000000000000000081526004016108669061102c565b60405180910390fd5b6001886007015f6101000a81548160ff02191690831515021790555060025f81548092919061089d9061104a565b91905055508873ffffffffffffffffffffffffffffffffffffffff167ff27a34de99b426efb150041eb1b2213c0c05389b03d76b624fd5ce8076fab43c60405160405180910390a2505050505050505050565b5f806001905082856109029190610ea9565b94505b5f84111561096857600160028561091c9190610ea9565b0361093b5782858261092e9190610fa1565b6109389190610ea9565b90505b8285866109489190610fa1565b6109529190610ea9565b94506002846109619190611091565b9350610905565b809150509392505050565b5f8061097f84846109ad565b509050828384836109909190610ea9565b61099a9190610f06565b6109a49190610ea9565b91505092915050565b5f805f84036109c157825f91509150610a11565b5f806109d886866109d29190610ea9565b876109ad565b915091508182876109e99190611091565b87876109f59190611091565b6109ff9190610fa1565b82610a0a91906110c1565b9350935050505b9250929050565b5f80fd5b5f819050919050565b610a2e81610a1c565b8114610a38575f80fd5b50565b5f81359050610a4981610a25565b92915050565b5f805f805f805f60e0888a031215610a6a57610a69610a18565b5b5f610a778a828b01610a3b565b9750506020610a888a828b01610a3b565b9650506040610a998a828b01610a3b565b9550506060610aaa8a828b01610a3b565b9450506080610abb8a828b01610a3b565b93505060a0610acc8a828b01610a3b565b92505060c0610add8a828b01610a3b565b91505092959891949750929550565b5f73ffffffffffffffffffffffffffffffffffffffff82169050919050565b5f610b1582610aec565b9050919050565b610b2581610b0b565b82525050565b5f602082019050610b3e5f830184610b1c565b92915050565b610b4d81610b0b565b8114610b57575f80fd5b50565b5f81359050610b6881610b44565b92915050565b5f60208284031215610b8357610b82610a18565b5b5f610b9084828501610b5a565b91505092915050565b610ba281610a1c565b82525050565b5f602082019050610bbb5f830184610b99565b92915050565b5f8115159050919050565b610bd581610bc1565b82525050565b5f602082019050610bee5f830184610bcc565b92915050565b5f61010082019050610c085f83018b610b99565b610c15602083018a610b99565b610c226040830189610b99565b610c2f6060830188610b99565b610c3c6080830187610b99565b610c4960a0830186610b99565b610c5660c0830185610b99565b610c6360e0830184610bcc565b9998505050505050505050565b5f82825260208201905092915050565b7f4e6f7420726567697374657265640000000000000000000000000000000000005f82015250565b5f610cb4600e83610c70565b9150610cbf82610c80565b602082019050919050565b5f6020820190508181035f830152610ce181610ca8565b9050919050565b7f416c726561647920766f746564000000000000000000000000000000000000005f82015250565b5f610d1c600d83610c70565b9150610d2782610ce8565b602082019050919050565b5f6020820190508181035f830152610d4981610d10565b9050919050565b7f4f6e6c79206368616972706572736f6e000000000000000000000000000000005f82015250565b5f610d84601083610c70565b9150610d8f82610d50565b602082019050919050565b5f6020820190508181035f830152610db181610d78565b9050919050565b7f416c7265616479207265676973746572656400000000000000000000000000005f82015250565b5f610dec601283610c70565b9150610df782610db8565b602082019050919050565b5f6020820190508181035f830152610e1981610de0565b9050919050565b5f819050919050565b610e3a610e3582610a1c565b610e20565b82525050565b5f610e4b8286610e29565b602082019150610e5b8285610e29565b602082019150610e6b8284610e29565b602082019150819050949350505050565b7f4e487b71000000000000000000000000000000000000000000000000000000005f52601260045260245ffd5b5f610eb382610a1c565b9150610ebe83610a1c565b925082610ece57610ecd610e7c565b5b828206905092915050565b7f4e487b71000000000000000000000000000000000000000000000000000000005f52601160045260245ffd5b5f610f1082610a1c565b9150610f1b83610a1c565b9250828201905080821115610f3357610f32610ed9565b5b92915050565b7f4368616c6c656e6765206d69736d6174636800000000000000000000000000005f82015250565b5f610f6d601283610c70565b9150610f7882610f39565b602082019050919050565b5f6020820190508181035f830152610f9a81610f61565b9050919050565b5f610fab82610a1c565b9150610fb683610a1c565b9250828202610fc481610a1c565b91508282048414831517610fdb57610fda610ed9565b5b5092915050565b7f5a4b50206661696c6564000000000000000000000000000000000000000000005f82015250565b5f611016600a83610c70565b915061102182610fe2565b602082019050919050565b5f6020820190508181035f8301526110438161100a565b9050919050565b5f61105482610a1c565b91507fffffffffffffffffffffffffffffffffffffffffffffffffffffffffffffffff820361108657611085610ed9565b5b600182019050919050565b5f61109b82610a1c565b91506110a683610a1c565b9250826110b6576110b5610e7c565b5b828204905092915050565b5f6110cb82610a1c565b91506110d683610a1c565b92508282039050818111156110ee576110ed610ed9565b5b9291505056fea2646970667358221220b47fd1890354cceaf5667dd97c1e6a5cfa2bb2c6b52b78fa6c56c15c173ca6e564736f6c634300081a0033",
					"opcodes": "PUSH1 0x80 PUSH1 0x40 MSTORE CALLVALUE DUP1 ISZERO PUSH1 0xE JUMPI PUSH0 DUP1 REVERT JUMPDEST POP CALLER PUSH1 0x3 PUSH0 PUSH2 0x100 EXP DUP2 SLOAD DUP2 PUSH20 0xFFFFFFFFFFFFFFFFFFFFFFFFFFFFFFFFFFFFFFFF MUL NOT AND SWAP1 DUP4 PUSH20 0xFFFFFFFFFFFFFFFFFFFFFFFFFFFFFFFFFFFFFFFF AND MUL OR SWAP1 SSTORE POP PUSH2 0x112A DUP1 PUSH2 0x5C PUSH0 CODECOPY PUSH0 RETURN INVALID PUSH1 0x80 PUSH1 0x40 MSTORE CALLVALUE DUP1 ISZERO PUSH2 0xF JUMPI PUSH0 DUP1 REVERT JUMPDEST POP PUSH1 0x4 CALLDATASIZE LT PUSH2 0xA7 JUMPI PUSH0 CALLDATALOAD PUSH1 0xE0 SHR DUP1 PUSH4 0x8B8FBD92 GT PUSH2 0x6F JUMPI DUP1 PUSH4 0x8B8FBD92 EQ PUSH2 0x13D JUMPI DUP1 PUSH4 0xA3EC138D EQ PUSH2 0x15B JUMPI DUP1 PUSH4 0xC6384071 EQ PUSH2 0x18B JUMPI DUP1 PUSH4 0xD8BFF5A5 EQ PUSH2 0x1A9 JUMPI DUP1 PUSH4 0xE493EF8C EQ PUSH2 0x1E0 JUMPI DUP1 PUSH4 0xE7B3387C EQ PUSH2 0x1FE JUMPI PUSH2 0xA7 JUMP JUMPDEST DUP1 PUSH4 0x6AD0732 EQ PUSH2 0xAB JUMPI DUP1 PUSH4 0x2E4176CF EQ PUSH2 0xC7 JUMPI DUP1 PUSH4 0x38DB6DD3 EQ PUSH2 0xE5 JUMPI DUP1 PUSH4 0x6FECB623 EQ PUSH2 0x101 JUMPI DUP1 PUSH4 0x70A5D861 EQ PUSH2 0x11F JUMPI JUMPDEST PUSH0 DUP1 REVERT JUMPDEST PUSH2 0xC5 PUSH1 0x4 DUP1 CALLDATASIZE SUB DUP2 ADD SWAP1 PUSH2 0xC0 SWAP2 SWAP1 PUSH2 0xA4F JUMP JUMPDEST PUSH2 0x21C JUMP JUMPDEST STOP JUMPDEST PUSH2 0xCF PUSH2 0x46F JUMP JUMPDEST PUSH1 0x40 MLOAD PUSH2 0xDC SWAP2 SWAP1 PUSH2 0xB2B JUMP JUMPDEST PUSH1 0x40 MLOAD DUP1 SWAP2 SUB SWAP1 RETURN JUMPDEST PUSH2 0xFF PUSH1 0x4 DUP1 CALLDATASIZE SUB DUP2 ADD SWAP1 PUSH2 0xFA SWAP2 SWAP1 PUSH2 0xB6E JUMP JUMPDEST PUSH2 0x494 JUMP JUMPDEST STOP JUMPDEST PUSH2 0x109 PUSH2 0x604 JUMP JUMPDEST PUSH1 0x40 MLOAD PUSH2 0x116 SWAP2 SWAP1 PUSH2 0xBA8 JUMP JUMPDEST PUSH1 0x40 MLOAD DUP1 SWAP2 SUB SWAP1 RETURN JUMPDEST PUSH2 0x127 PUSH2 0x609 JUMP JUMPDEST PUSH1 0x40 MLOAD PUSH2 0x134 SWAP2 SWAP1 PUSH2 0xBA8 JUMP JUMPDEST PUSH1 0x40 MLOAD DUP1 SWAP2 SUB SWAP1 RETURN JUMPDEST PUSH2 0x145 PUSH2 0x60E JUMP JUMPDEST PUSH1 0x40 MLOAD PUSH2 0x152 SWAP2 SWAP1 PUSH2 0xBA8 JUMP JUMPDEST PUSH1 0x40 MLOAD DUP1 SWAP2 SUB SWAP1 RETURN JUMPDEST PUSH2 0x175 PUSH1 0x4 DUP1 CALLDATASIZE SUB DUP2 ADD SWAP1 PUSH2 0x170 SWAP2 SWAP1 PUSH2 0xB6E JUMP JUMPDEST PUSH2 0x613 JUMP JUMPDEST PUSH1 0x40 MLOAD PUSH2 0x182 SWAP2 SWAP1 PUSH2 0xBDB JUMP JUMPDEST PUSH1 0x40 MLOAD DUP1 SWAP2 SUB SWAP1 RETURN JUMPDEST PUSH2 0x193 PUSH2 0x630 JUMP JUMPDEST PUSH1 0x40 MLOAD PUSH2 0x1A0 SWAP2 SWAP1 PUSH2 0xBA8 JUMP JUMPDEST PUSH1 0x40 MLOAD DUP1 SWAP2 SUB SWAP1 RETURN JUMPDEST PUSH2 0x1C3 PUSH1 0x4 DUP1 CALLDATASIZE SUB DUP2 ADD SWAP1 PUSH2 0x1BE SWAP2 SWAP1 PUSH2 0xB6E JUMP JUMPDEST PUSH2 0x636 JUMP JUMPDEST PUSH1 0x40 MLOAD PUSH2 0x1D7 SWAP9 SWAP8 SWAP7 SWAP6 SWAP5 SWAP4 SWAP3 SWAP2 SWAP1 PUSH2 0xBF4 JUMP JUMPDEST PUSH1 0x40 MLOAD DUP1 SWAP2 SUB SWAP1 RETURN JUMPDEST PUSH2 0x1E8 PUSH2 0x685 JUMP JUMPDEST PUSH1 0x40 MLOAD PUSH2 0x1F5 SWAP2 SWAP1 PUSH2 0xBA8 JUMP JUMPDEST PUSH1 0x40 MLOAD DUP1 SWAP2 SUB SWAP1 RETURN JUMPDEST PUSH2 0x206 PUSH2 0x68A JUMP JUMPDEST PUSH1 0x40 MLOAD PUSH2 0x213 SWAP2 SWAP1 PUSH2 0xBA8 JUMP JUMPDEST PUSH1 0x40 MLOAD DUP1 SWAP2 SUB SWAP1 RETURN JUMPDEST PUSH1 0x1 PUSH0 CALLER PUSH20 0xFFFFFFFFFFFFFFFFFFFFFFFFFFFFFFFFFFFFFFFF AND PUSH20 0xFFFFFFFFFFFFFFFFFFFFFFFFFFFFFFFFFFFFFFFF AND DUP2 MSTORE PUSH1 0x20 ADD SWAP1 DUP2 MSTORE PUSH1 0x20 ADD PUSH0 KECCAK256 PUSH0 SWAP1 SLOAD SWAP1 PUSH2 0x100 EXP SWAP1 DIV PUSH1 0xFF AND PUSH2 0x2A5 JUMPI PUSH1 0x40 MLOAD PUSH32 0x8C379A000000000000000000000000000000000000000000000000000000000 DUP2 MSTORE PUSH1 0x4 ADD PUSH2 0x29C SWAP1 PUSH2 0xCCA JUMP JUMPDEST PUSH1 0x40 MLOAD DUP1 SWAP2 SUB SWAP1 REVERT JUMPDEST PUSH0 DUP1 CALLER PUSH20 0xFFFFFFFFFFFFFFFFFFFFFFFFFFFFFFFFFFFFFFFF AND PUSH20 0xFFFFFFFFFFFFFFFFFFFFFFFFFFFFFFFFFFFFFFFF AND DUP2 MSTORE PUSH1 0x20 ADD SWAP1 DUP2 MSTORE PUSH1 0x20 ADD PUSH0 KECCAK256 PUSH1 0x7 ADD PUSH0 SWAP1 SLOAD SWAP1 PUSH2 0x100 EXP SWAP1 DIV PUSH1 0xFF AND ISZERO PUSH2 0x331 JUMPI PUSH1 0x40 MLOAD PUSH32 0x8C379A000000000000000000000000000000000000000000000000000000000 DUP2 MSTORE PUSH1 0x4 ADD PUSH2 0x328 SWAP1 PUSH2 0xD32 JUMP JUMPDEST PUSH1 0x40 MLOAD DUP1 SWAP2 SUB SWAP1 REVERT JUMPDEST PUSH1 0x40 MLOAD DUP1 PUSH2 0x100 ADD PUSH1 0x40 MSTORE DUP1 DUP9 DUP2 MSTORE PUSH1 0x20 ADD DUP8 DUP2 MSTORE PUSH1 0x20 ADD DUP7 DUP2 MSTORE PUSH1 0x20 ADD DUP6 DUP2 MSTORE PUSH1 0x20 ADD DUP5 DUP2 MSTORE PUSH1 0x20 ADD DUP4 DUP2 MSTORE PUSH1 0x20 ADD DUP3 DUP2 MSTORE PUSH1 0x20 ADD PUSH0 ISZERO ISZERO DUP2 MSTORE POP PUSH0 DUP1 CALLER PUSH20 0xFFFFFFFFFFFFFFFFFFFFFFFFFFFFFFFFFFFFFFFF AND PUSH20 0xFFFFFFFFFFFFFFFFFFFFFFFFFFFFFFFFFFFFFFFF AND DUP2 MSTORE PUSH1 0x20 ADD SWAP1 DUP2 MSTORE PUSH1 0x20 ADD PUSH0 KECCAK256 PUSH0 DUP3 ADD MLOAD DUP2 PUSH0 ADD SSTORE PUSH1 0x20 DUP3 ADD MLOAD DUP2 PUSH1 0x1 ADD SSTORE PUSH1 0x40 DUP3 ADD MLOAD DUP2 PUSH1 0x2 ADD SSTORE PUSH1 0x60 DUP3 ADD MLOAD DUP2 PUSH1 0x3 ADD SSTORE PUSH1 0x80 DUP3 ADD MLOAD DUP2 PUSH1 0x4 ADD SSTORE PUSH1 0xA0 DUP3 ADD MLOAD DUP2 PUSH1 0x5 ADD SSTORE PUSH1 0xC0 DUP3 ADD MLOAD DUP2 PUSH1 0x6 ADD SSTORE PUSH1 0xE0 DUP3 ADD MLOAD DUP2 PUSH1 0x7 ADD PUSH0 PUSH2 0x100 EXP DUP2 SLOAD DUP2 PUSH1 0xFF MUL NOT AND SWAP1 DUP4 ISZERO ISZERO MUL OR SWAP1 SSTORE POP SWAP1 POP POP CALLER PUSH20 0xFFFFFFFFFFFFFFFFFFFFFFFFFFFFFFFFFFFFFFFF AND PUSH32 0xA36CC2BEBB74DB33E9F88110A07EF56E1B31B24B4C4F51B54B1664266E29F45B DUP9 PUSH1 0x40 MLOAD PUSH2 0x455 SWAP2 SWAP1 PUSH2 0xBA8 JUMP JUMPDEST PUSH1 0x40 MLOAD DUP1 SWAP2 SUB SWAP1 LOG2 PUSH2 0x466 CALLER PUSH2 0x693 JUMP JUMPDEST POP POP POP POP POP POP POP JUMP JUMPDEST PUSH1 0x3 PUSH0 SWAP1 SLOAD SWAP1 PUSH2 0x100 EXP SWAP1 DIV PUSH20 0xFFFFFFFFFFFFFFFFFFFFFFFFFFFFFFFFFFFFFFFF AND DUP2 JUMP JUMPDEST PUSH1 0x3 PUSH0 SWAP1 SLOAD SWAP1 PUSH2 0x100 EXP SWAP1 DIV PUSH20 0xFFFFFFFFFFFFFFFFFFFFFFFFFFFFFFFFFFFFFFFF AND PUSH20 0xFFFFFFFFFFFFFFFFFFFFFFFFFFFFFFFFFFFFFFFF AND CALLER PUSH20 0xFFFFFFFFFFFFFFFFFFFFFFFFFFFFFFFFFFFFFFFF AND EQ PUSH2 0x523 JUMPI PUSH1 0x40 MLOAD PUSH32 0x8C379A000000000000000000000000000000000000000000000000000000000 DUP2 MSTORE PUSH1 0x4 ADD PUSH2 0x51A SWAP1 PUSH2 0xD9A JUMP JUMPDEST PUSH1 0x40 MLOAD DUP1 SWAP2 SUB SWAP1 REVERT JUMPDEST PUSH1 0x1 PUSH0 DUP3 PUSH20 0xFFFFFFFFFFFFFFFFFFFFFFFFFFFFFFFFFFFFFFFF AND PUSH20 0xFFFFFFFFFFFFFFFFFFFFFFFFFFFFFFFFFFFFFFFF AND DUP2 MSTORE PUSH1 0x20 ADD SWAP1 DUP2 MSTORE PUSH1 0x20 ADD PUSH0 KECCAK256 PUSH0 SWAP1 SLOAD SWAP1 PUSH2 0x100 EXP SWAP1 DIV PUSH1 0xFF AND ISZERO PUSH2 0x5AD JUMPI PUSH1 0x40 MLOAD PUSH32 0x8C379A000000000000000000000000000000000000000000000000000000000 DUP2 MSTORE PUSH1 0x4 ADD PUSH2 0x5A4 SWAP1 PUSH2 0xE02 JUMP JUMPDEST PUSH1 0x40 MLOAD DUP1 SWAP2 SUB SWAP1 REVERT JUMPDEST PUSH1 0x1 DUP1 PUSH0 DUP4 PUSH20 0xFFFFFFFFFFFFFFFFFFFFFFFFFFFFFFFFFFFFFFFF AND PUSH20 0xFFFFFFFFFFFFFFFFFFFFFFFFFFFFFFFFFFFFFFFF AND DUP2 MSTORE PUSH1 0x20 ADD SWAP1 DUP2 MSTORE PUSH1 0x20 ADD PUSH0 KECCAK256 PUSH0 PUSH2 0x100 EXP DUP2 SLOAD DUP2 PUSH1 0xFF MUL NOT AND SWAP1 DUP4 ISZERO ISZERO MUL OR SWAP1 SSTORE POP POP JUMP JUMPDEST PUSH1 0x2 DUP2 JUMP JUMPDEST PUSH1 0x3 DUP2 JUMP JUMPDEST PUSH1 0x17 DUP2 JUMP JUMPDEST PUSH1 0x1 PUSH1 0x20 MSTORE DUP1 PUSH0 MSTORE PUSH1 0x40 PUSH0 KECCAK256 PUSH0 SWAP2 POP SLOAD SWAP1 PUSH2 0x100 EXP SWAP1 DIV PUSH1 0xFF AND DUP2 JUMP JUMPDEST PUSH1 0x2 SLOAD DUP2 JUMP JUMPDEST PUSH0 PUSH1 0x20 MSTORE DUP1 PUSH0 MSTORE PUSH1 0x40 PUSH0 KECCAK256 PUSH0 SWAP2 POP SWAP1 POP DUP1 PUSH0 ADD SLOAD SWAP1 DUP1 PUSH1 0x1 ADD SLOAD SWAP1 DUP1 PUSH1 0x2 ADD SLOAD SWAP1 DUP1 PUSH1 0x3 ADD SLOAD SWAP1 DUP1 PUSH1 0x4 ADD SLOAD SWAP1 DUP1 PUSH1 0x5 ADD SLOAD SWAP1 DUP1 PUSH1 0x6 ADD SLOAD SWAP1 DUP1 PUSH1 0x7 ADD PUSH0 SWAP1 SLOAD SWAP1 PUSH2 0x100 EXP SWAP1 DIV PUSH1 0xFF AND SWAP1 POP DUP9 JUMP JUMPDEST PUSH1 0xB DUP2 JUMP JUMPDEST PUSH0 PUSH1 0x2 SLOAD SWAP1 POP SWAP1 JUMP JUMPDEST PUSH0 DUP1 PUSH0 DUP4 PUSH20 0xFFFFFFFFFFFFFFFFFFFFFFFFFFFFFFFFFFFFFFFF AND PUSH20 0xFFFFFFFFFFFFFFFFFFFFFFFFFFFFFFFFFFFFFFFF AND DUP2 MSTORE PUSH1 0x20 ADD SWAP1 DUP2 MSTORE PUSH1 0x20 ADD PUSH0 KECCAK256 SWAP1 POP PUSH0 DUP2 PUSH0 ADD SLOAD DUP3 PUSH1 0x1 ADD SLOAD DUP4 PUSH1 0x2 ADD SLOAD PUSH1 0x40 MLOAD PUSH1 0x20 ADD PUSH2 0x6F3 SWAP4 SWAP3 SWAP2 SWAP1 PUSH2 0xE40 JUMP JUMPDEST PUSH1 0x40 MLOAD PUSH1 0x20 DUP2 DUP4 SUB SUB DUP2 MSTORE SWAP1 PUSH1 0x40 MSTORE DUP1 MLOAD SWAP1 PUSH1 0x20 ADD KECCAK256 SWAP1 POP PUSH0 PUSH1 0xB DUP3 PUSH0 SHR PUSH2 0x71B SWAP2 SWAP1 PUSH2 0xEA9 JUMP JUMPDEST SWAP1 POP DUP1 DUP4 PUSH1 0x6 ADD SLOAD DUP5 PUSH1 0x5 ADD SLOAD PUSH2 0x732 SWAP2 SWAP1 PUSH2 0xF06 JUMP JUMPDEST EQ PUSH2 0x772 JUMPI PUSH1 0x40 MLOAD PUSH32 0x8C379A000000000000000000000000000000000000000000000000000000000 DUP2 MSTORE PUSH1 0x4 ADD PUSH2 0x769 SWAP1 PUSH2 0xF83 JUMP JUMPDEST PUSH1 0x40 MLOAD DUP1 SWAP2 SUB SWAP1 REVERT JUMPDEST PUSH0 PUSH2 0x784 PUSH1 0x3 DUP6 PUSH1 0x3 ADD SLOAD PUSH1 0x17 PUSH2 0x8F0 JUMP JUMPDEST SWAP1 POP PUSH0 PUSH1 0x17 PUSH2 0x79C DUP7 PUSH0 ADD SLOAD DUP8 PUSH1 0x5 ADD SLOAD PUSH1 0x17 PUSH2 0x8F0 JUMP JUMPDEST DUP7 PUSH1 0x1 ADD SLOAD PUSH2 0x7AB SWAP2 SWAP1 PUSH2 0xFA1 JUMP JUMPDEST PUSH2 0x7B5 SWAP2 SWAP1 PUSH2 0xEA9 JUMP JUMPDEST SWAP1 POP PUSH0 PUSH1 0x17 PUSH2 0x7C6 PUSH1 0x2 PUSH1 0x17 PUSH2 0x973 JUMP JUMPDEST DUP8 PUSH0 ADD SLOAD PUSH2 0x7D4 SWAP2 SWAP1 PUSH2 0xFA1 JUMP JUMPDEST PUSH2 0x7DE SWAP2 SWAP1 PUSH2 0xEA9 JUMP JUMPDEST SWAP1 POP PUSH0 PUSH2 0x7F2 PUSH1 0x3 DUP9 PUSH1 0x4 ADD SLOAD PUSH1 0x17 PUSH2 0x8F0 JUMP JUMPDEST SWAP1 POP PUSH0 PUSH1 0x17 PUSH2 0x807 DUP5 DUP11 PUSH1 0x6 ADD SLOAD PUSH1 0x17 PUSH2 0x8F0 JUMP JUMPDEST DUP10 PUSH1 0x2 ADD SLOAD PUSH2 0x816 SWAP2 SWAP1 PUSH2 0xFA1 JUMP JUMPDEST PUSH2 0x820 SWAP2 SWAP1 PUSH2 0xEA9 JUMP JUMPDEST SWAP1 POP DUP4 DUP6 EQ DUP1 ISZERO PUSH2 0x830 JUMPI POP DUP1 DUP3 EQ JUMPDEST PUSH2 0x86F JUMPI PUSH1 0x40 MLOAD PUSH32 0x8C379A000000000000000000000000000000000000000000000000000000000 DUP2 MSTORE PUSH1 0x4 ADD PUSH2 0x866 SWAP1 PUSH2 0x102C JUMP JUMPDEST PUSH1 0x40 MLOAD DUP1 SWAP2 SUB SWAP1 REVERT JUMPDEST PUSH1 0x1 DUP9 PUSH1 0x7 ADD PUSH0 PUSH2 0x100 EXP DUP2 SLOAD DUP2 PUSH1 0xFF MUL NOT AND SWAP1 DUP4 ISZERO ISZERO MUL OR SWAP1 SSTORE POP PUSH1 0x2 PUSH0 DUP2 SLOAD DUP1 SWAP3 SWAP2 SWAP1 PUSH2 0x89D SWAP1 PUSH2 0x104A JUMP JUMPDEST SWAP2 SWAP1 POP SSTORE POP DUP9 PUSH20 0xFFFFFFFFFFFFFFFFFFFFFFFFFFFFFFFFFFFFFFFF AND PUSH32 0xF27A34DE99B426EFB150041EB1B2213C0C05389B03D76B624FD5CE8076FAB43C PUSH1 0x40 MLOAD PUSH1 0x40 MLOAD DUP1 SWAP2 SUB SWAP1 LOG2 POP POP POP POP POP POP POP POP POP JUMP JUMPDEST PUSH0 DUP1 PUSH1 0x1 SWAP1 POP DUP3 DUP6 PUSH2 0x902 SWAP2 SWAP1 PUSH2 0xEA9 JUMP JUMPDEST SWAP5 POP JUMPDEST PUSH0 DUP5 GT ISZERO PUSH2 0x968 JUMPI PUSH1 0x1 PUSH1 0x2 DUP6 PUSH2 0x91C SWAP2 SWAP1 PUSH2 0xEA9 JUMP JUMPDEST SUB PUSH2 0x93B JUMPI DUP3 DUP6 DUP3 PUSH2 0x92E SWAP2 SWAP1 PUSH2 0xFA1 JUMP JUMPDEST PUSH2 0x938 SWAP2 SWAP1 PUSH2 0xEA9 JUMP JUMPDEST SWAP1 POP JUMPDEST DUP3 DUP6 DUP7 PUSH2 0x948 SWAP2 SWAP1 PUSH2 0xFA1 JUMP JUMPDEST PUSH2 0x952 SWAP2 SWAP1 PUSH2 0xEA9 JUMP JUMPDEST SWAP5 POP PUSH1 0x2 DUP5 PUSH2 0x961 SWAP2 SWAP1 PUSH2 0x1091 JUMP JUMPDEST SWAP4 POP PUSH2 0x905 JUMP JUMPDEST DUP1 SWAP2 POP POP SWAP4 SWAP3 POP POP POP JUMP JUMPDEST PUSH0 DUP1 PUSH2 0x97F DUP5 DUP5 PUSH2 0x9AD JUMP JUMPDEST POP SWAP1 POP DUP3 DUP4 DUP5 DUP4 PUSH2 0x990 SWAP2 SWAP1 PUSH2 0xEA9 JUMP JUMPDEST PUSH2 0x99A SWAP2 SWAP1 PUSH2 0xF06 JUMP JUMPDEST PUSH2 0x9A4 SWAP2 SWAP1 PUSH2 0xEA9 JUMP JUMPDEST SWAP2 POP POP SWAP3 SWAP2 POP POP JUMP JUMPDEST PUSH0 DUP1 PUSH0 DUP5 SUB PUSH2 0x9C1 JUMPI DUP3 PUSH0 SWAP2 POP SWAP2 POP PUSH2 0xA11 JUMP JUMPDEST PUSH0 DUP1 PUSH2 0x9D8 DUP7 DUP7 PUSH2 0x9D2 SWAP2 SWAP1 PUSH2 0xEA9 JUMP JUMPDEST DUP8 PUSH2 0x9AD JUMP JUMPDEST SWAP2 POP SWAP2 POP DUP2 DUP3 DUP8 PUSH2 0x9E9 SWAP2 SWAP1 PUSH2 0x1091 JUMP JUMPDEST DUP8 DUP8 PUSH2 0x9F5 SWAP2 SWAP1 PUSH2 0x1091 JUMP JUMPDEST PUSH2 0x9FF SWAP2 SWAP1 PUSH2 0xFA1 JUMP JUMPDEST DUP3 PUSH2 0xA0A SWAP2 SWAP1 PUSH2 0x10C1 JUMP JUMPDEST SWAP4 POP SWAP4 POP POP POP JUMPDEST SWAP3 POP SWAP3 SWAP1 POP JUMP JUMPDEST PUSH0 DUP1 REVERT JUMPDEST PUSH0 DUP2 SWAP1 POP SWAP2 SWAP1 POP JUMP JUMPDEST PUSH2 0xA2E DUP2 PUSH2 0xA1C JUMP JUMPDEST DUP2 EQ PUSH2 0xA38 JUMPI PUSH0 DUP1 REVERT JUMPDEST POP JUMP JUMPDEST PUSH0 DUP2 CALLDATALOAD SWAP1 POP PUSH2 0xA49 DUP2 PUSH2 0xA25 JUMP JUMPDEST SWAP3 SWAP2 POP POP JUMP JUMPDEST PUSH0 DUP1 PUSH0 DUP1 PUSH0 DUP1 PUSH0 PUSH1 0xE0 DUP9 DUP11 SUB SLT ISZERO PUSH2 0xA6A JUMPI PUSH2 0xA69 PUSH2 0xA18 JUMP JUMPDEST JUMPDEST PUSH0 PUSH2 0xA77 DUP11 DUP3 DUP12 ADD PUSH2 0xA3B JUMP JUMPDEST SWAP8 POP POP PUSH1 0x20 PUSH2 0xA88 DUP11 DUP3 DUP12 ADD PUSH2 0xA3B JUMP JUMPDEST SWAP7 POP POP PUSH1 0x40 PUSH2 0xA99 DUP11 DUP3 DUP12 ADD PUSH2 0xA3B JUMP JUMPDEST SWAP6 POP POP PUSH1 0x60 PUSH2 0xAAA DUP11 DUP3 DUP12 ADD PUSH2 0xA3B JUMP JUMPDEST SWAP5 POP POP PUSH1 0x80 PUSH2 0xABB DUP11 DUP3 DUP12 ADD PUSH2 0xA3B JUMP JUMPDEST SWAP4 POP POP PUSH1 0xA0 PUSH2 0xACC DUP11 DUP3 DUP12 ADD PUSH2 0xA3B JUMP JUMPDEST SWAP3 POP POP PUSH1 0xC0 PUSH2 0xADD DUP11 DUP3 DUP12 ADD PUSH2 0xA3B JUMP JUMPDEST SWAP2 POP POP SWAP3 SWAP6 SWAP9 SWAP2 SWAP5 SWAP8 POP SWAP3 SWAP6 POP JUMP JUMPDEST PUSH0 PUSH20 0xFFFFFFFFFFFFFFFFFFFFFFFFFFFFFFFFFFFFFFFF DUP3 AND SWAP1 POP SWAP2 SWAP1 POP JUMP JUMPDEST PUSH0 PUSH2 0xB15 DUP3 PUSH2 0xAEC JUMP JUMPDEST SWAP1 POP SWAP2 SWAP1 POP JUMP JUMPDEST PUSH2 0xB25 DUP2 PUSH2 0xB0B JUMP JUMPDEST DUP3 MSTORE POP POP JUMP JUMPDEST PUSH0 PUSH1 0x20 DUP3 ADD SWAP1 POP PUSH2 0xB3E PUSH0 DUP4 ADD DUP5 PUSH2 0xB1C JUMP JUMPDEST SWAP3 SWAP2 POP POP JUMP JUMPDEST PUSH2 0xB4D DUP2 PUSH2 0xB0B JUMP JUMPDEST DUP2 EQ PUSH2 0xB57 JUMPI PUSH0 DUP1 REVERT JUMPDEST POP JUMP JUMPDEST PUSH0 DUP2 CALLDATALOAD SWAP1 POP PUSH2 0xB68 DUP2 PUSH2 0xB44 JUMP JUMPDEST SWAP3 SWAP2 POP POP JUMP JUMPDEST PUSH0 PUSH1 0x20 DUP3 DUP5 SUB SLT ISZERO PUSH2 0xB83 JUMPI PUSH2 0xB82 PUSH2 0xA18 JUMP JUMPDEST JUMPDEST PUSH0 PUSH2 0xB90 DUP5 DUP3 DUP6 ADD PUSH2 0xB5A JUMP JUMPDEST SWAP2 POP POP SWAP3 SWAP2 POP POP JUMP JUMPDEST PUSH2 0xBA2 DUP2 PUSH2 0xA1C JUMP JUMPDEST DUP3 MSTORE POP POP JUMP JUMPDEST PUSH0 PUSH1 0x20 DUP3 ADD SWAP1 POP PUSH2 0xBBB PUSH0 DUP4 ADD DUP5 PUSH2 0xB99 JUMP JUMPDEST SWAP3 SWAP2 POP POP JUMP JUMPDEST PUSH0 DUP2 ISZERO ISZERO SWAP1 POP SWAP2 SWAP1 POP JUMP JUMPDEST PUSH2 0xBD5 DUP2 PUSH2 0xBC1 JUMP JUMPDEST DUP3 MSTORE POP POP JUMP JUMPDEST PUSH0 PUSH1 0x20 DUP3 ADD SWAP1 POP PUSH2 0xBEE PUSH0 DUP4 ADD DUP5 PUSH2 0xBCC JUMP JUMPDEST SWAP3 SWAP2 POP POP JUMP JUMPDEST PUSH0 PUSH2 0x100 DUP3 ADD SWAP1 POP PUSH2 0xC08 PUSH0 DUP4 ADD DUP12 PUSH2 0xB99 JUMP JUMPDEST PUSH2 0xC15 PUSH1 0x20 DUP4 ADD DUP11 PUSH2 0xB99 JUMP JUMPDEST PUSH2 0xC22 PUSH1 0x40 DUP4 ADD DUP10 PUSH2 0xB99 JUMP JUMPDEST PUSH2 0xC2F PUSH1 0x60 DUP4 ADD DUP9 PUSH2 0xB99 JUMP JUMPDEST PUSH2 0xC3C PUSH1 0x80 DUP4 ADD DUP8 PUSH2 0xB99 JUMP JUMPDEST PUSH2 0xC49 PUSH1 0xA0 DUP4 ADD DUP7 PUSH2 0xB99 JUMP JUMPDEST PUSH2 0xC56 PUSH1 0xC0 DUP4 ADD DUP6 PUSH2 0xB99 JUMP JUMPDEST PUSH2 0xC63 PUSH1 0xE0 DUP4 ADD DUP5 PUSH2 0xBCC JUMP JUMPDEST SWAP10 SWAP9 POP POP POP POP POP POP POP POP POP JUMP JUMPDEST PUSH0 DUP3 DUP3 MSTORE PUSH1 0x20 DUP3 ADD SWAP1 POP SWAP3 SWAP2 POP POP JUMP JUMPDEST PUSH32 0x4E6F742072656769737465726564000000000000000000000000000000000000 PUSH0 DUP3 ADD MSTORE POP JUMP JUMPDEST PUSH0 PUSH2 0xCB4 PUSH1 0xE DUP4 PUSH2 0xC70 JUMP JUMPDEST SWAP2 POP PUSH2 0xCBF DUP3 PUSH2 0xC80 JUMP JUMPDEST PUSH1 0x20 DUP3 ADD SWAP1 POP SWAP2 SWAP1 POP JUMP JUMPDEST PUSH0 PUSH1 0x20 DUP3 ADD SWAP1 POP DUP2 DUP2 SUB PUSH0 DUP4 ADD MSTORE PUSH2 0xCE1 DUP2 PUSH2 0xCA8 JUMP JUMPDEST SWAP1 POP SWAP2 SWAP1 POP JUMP JUMPDEST PUSH32 0x416C726561647920766F74656400000000000000000000000000000000000000 PUSH0 DUP3 ADD MSTORE POP JUMP JUMPDEST PUSH0 PUSH2 0xD1C PUSH1 0xD DUP4 PUSH2 0xC70 JUMP JUMPDEST SWAP2 POP PUSH2 0xD27 DUP3 PUSH2 0xCE8 JUMP JUMPDEST PUSH1 0x20 DUP3 ADD SWAP1 POP SWAP2 SWAP1 POP JUMP JUMPDEST PUSH0 PUSH1 0x20 DUP3 ADD SWAP1 POP DUP2 DUP2 SUB PUSH0 DUP4 ADD MSTORE PUSH2 0xD49 DUP2 PUSH2 0xD10 JUMP JUMPDEST SWAP1 POP SWAP2 SWAP1 POP JUMP JUMPDEST PUSH32 0x4F6E6C79206368616972706572736F6E00000000000000000000000000000000 PUSH0 DUP3 ADD MSTORE POP JUMP JUMPDEST PUSH0 PUSH2 0xD84 PUSH1 0x10 DUP4 PUSH2 0xC70 JUMP JUMPDEST SWAP2 POP PUSH2 0xD8F DUP3 PUSH2 0xD50 JUMP JUMPDEST PUSH1 0x20 DUP3 ADD SWAP1 POP SWAP2 SWAP1 POP JUMP JUMPDEST PUSH0 PUSH1 0x20 DUP3 ADD SWAP1 POP DUP2 DUP2 SUB PUSH0 DUP4 ADD MSTORE PUSH2 0xDB1 DUP2 PUSH2 0xD78 JUMP JUMPDEST SWAP1 POP SWAP2 SWAP1 POP JUMP JUMPDEST PUSH32 0x416C726561647920726567697374657265640000000000000000000000000000 PUSH0 DUP3 ADD MSTORE POP JUMP JUMPDEST PUSH0 PUSH2 0xDEC PUSH1 0x12 DUP4 PUSH2 0xC70 JUMP JUMPDEST SWAP2 POP PUSH2 0xDF7 DUP3 PUSH2 0xDB8 JUMP JUMPDEST PUSH1 0x20 DUP3 ADD SWAP1 POP SWAP2 SWAP1 POP JUMP JUMPDEST PUSH0 PUSH1 0x20 DUP3 ADD SWAP1 POP DUP2 DUP2 SUB PUSH0 DUP4 ADD MSTORE PUSH2 0xE19 DUP2 PUSH2 0xDE0 JUMP JUMPDEST SWAP1 POP SWAP2 SWAP1 POP JUMP JUMPDEST PUSH0 DUP2 SWAP1 POP SWAP2 SWAP1 POP JUMP JUMPDEST PUSH2 0xE3A PUSH2 0xE35 DUP3 PUSH2 0xA1C JUMP JUMPDEST PUSH2 0xE20 JUMP JUMPDEST DUP3 MSTORE POP POP JUMP JUMPDEST PUSH0 PUSH2 0xE4B DUP3 DUP7 PUSH2 0xE29 JUMP JUMPDEST PUSH1 0x20 DUP3 ADD SWAP2 POP PUSH2 0xE5B DUP3 DUP6 PUSH2 0xE29 JUMP JUMPDEST PUSH1 0x20 DUP3 ADD SWAP2 POP PUSH2 0xE6B DUP3 DUP5 PUSH2 0xE29 JUMP JUMPDEST PUSH1 0x20 DUP3 ADD SWAP2 POP DUP2 SWAP1 POP SWAP5 SWAP4 POP POP POP POP JUMP JUMPDEST PUSH32 0x4E487B7100000000000000000000000000000000000000000000000000000000 PUSH0 MSTORE PUSH1 0x12 PUSH1 0x4 MSTORE PUSH1 0x24 PUSH0 REVERT JUMPDEST PUSH0 PUSH2 0xEB3 DUP3 PUSH2 0xA1C JUMP JUMPDEST SWAP2 POP PUSH2 0xEBE DUP4 PUSH2 0xA1C JUMP JUMPDEST SWAP3 POP DUP3 PUSH2 0xECE JUMPI PUSH2 0xECD PUSH2 0xE7C JUMP JUMPDEST JUMPDEST DUP3 DUP3 MOD SWAP1 POP SWAP3 SWAP2 POP POP JUMP JUMPDEST PUSH32 0x4E487B7100000000000000000000000000000000000000000000000000000000 PUSH0 MSTORE PUSH1 0x11 PUSH1 0x4 MSTORE PUSH1 0x24 PUSH0 REVERT JUMPDEST PUSH0 PUSH2 0xF10 DUP3 PUSH2 0xA1C JUMP JUMPDEST SWAP2 POP PUSH2 0xF1B DUP4 PUSH2 0xA1C JUMP JUMPDEST SWAP3 POP DUP3 DUP3 ADD SWAP1 POP DUP1 DUP3 GT ISZERO PUSH2 0xF33 JUMPI PUSH2 0xF32 PUSH2 0xED9 JUMP JUMPDEST JUMPDEST SWAP3 SWAP2 POP POP JUMP JUMPDEST PUSH32 0x4368616C6C656E6765206D69736D617463680000000000000000000000000000 PUSH0 DUP3 ADD MSTORE POP JUMP JUMPDEST PUSH0 PUSH2 0xF6D PUSH1 0x12 DUP4 PUSH2 0xC70 JUMP JUMPDEST SWAP2 POP PUSH2 0xF78 DUP3 PUSH2 0xF39 JUMP JUMPDEST PUSH1 0x20 DUP3 ADD SWAP1 POP SWAP2 SWAP1 POP JUMP JUMPDEST PUSH0 PUSH1 0x20 DUP3 ADD SWAP1 POP DUP2 DUP2 SUB PUSH0 DUP4 ADD MSTORE PUSH2 0xF9A DUP2 PUSH2 0xF61 JUMP JUMPDEST SWAP1 POP SWAP2 SWAP1 POP JUMP JUMPDEST PUSH0 PUSH2 0xFAB DUP3 PUSH2 0xA1C JUMP JUMPDEST SWAP2 POP PUSH2 0xFB6 DUP4 PUSH2 0xA1C JUMP JUMPDEST SWAP3 POP DUP3 DUP3 MUL PUSH2 0xFC4 DUP2 PUSH2 0xA1C JUMP JUMPDEST SWAP2 POP DUP3 DUP3 DIV DUP5 EQ DUP4 ISZERO OR PUSH2 0xFDB JUMPI PUSH2 0xFDA PUSH2 0xED9 JUMP JUMPDEST JUMPDEST POP SWAP3 SWAP2 POP POP JUMP JUMPDEST PUSH32 0x5A4B50206661696C656400000000000000000000000000000000000000000000 PUSH0 DUP3 ADD MSTORE POP JUMP JUMPDEST PUSH0 PUSH2 0x1016 PUSH1 0xA DUP4 PUSH2 0xC70 JUMP JUMPDEST SWAP2 POP PUSH2 0x1021 DUP3 PUSH2 0xFE2 JUMP JUMPDEST PUSH1 0x20 DUP3 ADD SWAP1 POP SWAP2 SWAP1 POP JUMP JUMPDEST PUSH0 PUSH1 0x20 DUP3 ADD SWAP1 POP DUP2 DUP2 SUB PUSH0 DUP4 ADD MSTORE PUSH2 0x1043 DUP2 PUSH2 0x100A JUMP JUMPDEST SWAP1 POP SWAP2 SWAP1 POP JUMP JUMPDEST PUSH0 PUSH2 0x1054 DUP3 PUSH2 0xA1C JUMP JUMPDEST SWAP2 POP PUSH32 0xFFFFFFFFFFFFFFFFFFFFFFFFFFFFFFFFFFFFFFFFFFFFFFFFFFFFFFFFFFFFFFFF DUP3 SUB PUSH2 0x1086 JUMPI PUSH2 0x1085 PUSH2 0xED9 JUMP JUMPDEST JUMPDEST PUSH1 0x1 DUP3 ADD SWAP1 POP SWAP2 SWAP1 POP JUMP JUMPDEST PUSH0 PUSH2 0x109B DUP3 PUSH2 0xA1C JUMP JUMPDEST SWAP2 POP PUSH2 0x10A6 DUP4 PUSH2 0xA1C JUMP JUMPDEST SWAP3 POP DUP3 PUSH2 0x10B6 JUMPI PUSH2 0x10B5 PUSH2 0xE7C JUMP JUMPDEST JUMPDEST DUP3 DUP3 DIV SWAP1 POP SWAP3 SWAP2 POP POP JUMP JUMPDEST PUSH0 PUSH2 0x10CB DUP3 PUSH2 0xA1C JUMP JUMPDEST SWAP2 POP PUSH2 0x10D6 DUP4 PUSH2 0xA1C JUMP JUMPDEST SWAP3 POP DUP3 DUP3 SUB SWAP1 POP DUP2 DUP2 GT ISZERO PUSH2 0x10EE JUMPI PUSH2 0x10ED PUSH2 0xED9 JUMP JUMPDEST JUMPDEST SWAP3 SWAP2 POP POP JUMP INVALID LOG2 PUSH5 0x6970667358 0x22 SLT KECCAK256 0xB4 PUSH32 0xD1890354CCEAF5667DD97C1E6A5CFA2BB2C6B52B78FA6C56C15C173CA6E56473 PUSH16 0x6C634300081A00330000000000000000 "
				},
				"gasEstimates": {
					"creation": {
						"codeDepositCost": "878800",
						"executionCost": "25179",
						"totalCost": "903979"
					},
					"external": {
						"G()": "392",
						"H()": "414",
						"P()": "325",
						"Q()": "413",
						"castVote(uint256,uint256,uint256,uint256,uint256,uint256,uint256)": "infinite",
						"chairperson()": "2531",
						"getVoteCount()": "2542",
						"registerVoter(address)": "29260",
						"voteCount()": "2469",
						"voters(address)": "2855",
						"votes(address)": "infinite"
					},
					"internal": {
						"extendedGCD(uint256,uint256)": "infinite",
						"modExp(uint256,uint256,uint256)": "infinite",
						"modInverse(uint256,uint256)": "infinite",
						"verifyVote(address)": "infinite"
					}
				},
				"methodIdentifiers": {
					"G()": "6fecb623",
					"H()": "70a5d861",
					"P()": "8b8fbd92",
					"Q()": "e493ef8c",
					"castVote(uint256,uint256,uint256,uint256,uint256,uint256,uint256)": "06ad0732",
					"chairperson()": "2e4176cf",
					"getVoteCount()": "e7b3387c",
					"registerVoter(address)": "38db6dd3",
					"voteCount()": "c6384071",
					"voters(address)": "a3ec138d",
					"votes(address)": "d8bff5a5"
				}
			},
			"storageLayout": {
				"storage": [
					{
						"astId": 36,
						"contract": "ZKPVoting.sol:ZKPVoting",
						"label": "votes",
						"offset": 0,
						"slot": "0",
						"type": "t_mapping(t_address,t_struct(Vote)31_storage)"
					},
					{
						"astId": 40,
						"contract": "ZKPVoting.sol:ZKPVoting",
						"label": "voters",
						"offset": 0,
						"slot": "1",
						"type": "t_mapping(t_address,t_bool)"
					},
					{
						"astId": 42,
						"contract": "ZKPVoting.sol:ZKPVoting",
						"label": "voteCount",
						"offset": 0,
						"slot": "2",
						"type": "t_uint256"
					},
					{
						"astId": 44,
						"contract": "ZKPVoting.sol:ZKPVoting",
						"label": "chairperson",
						"offset": 0,
						"slot": "3",
						"type": "t_address"
					}
				],
				"types": {
					"t_address": {
						"encoding": "inplace",
						"label": "address",
						"numberOfBytes": "20"
					},
					"t_bool": {
						"encoding": "inplace",
						"label": "bool",
						"numberOfBytes": "1"
					},
					"t_mapping(t_address,t_bool)": {
						"encoding": "mapping",
						"key": "t_address",
						"label": "mapping(address => bool)",
						"numberOfBytes": "32",
						"value": "t_bool"
					},
					"t_mapping(t_address,t_struct(Vote)31_storage)": {
						"encoding": "mapping",
						"key": "t_address",
						"label": "mapping(address => struct ZKPVoting.Vote)",
						"numberOfBytes": "32",
						"value": "t_struct(Vote)31_storage"
					},
					"t_struct(Vote)31_storage": {
						"encoding": "inplace",
						"label": "struct ZKPVoting.Vote",
						"members": [
							{
								"astId": 16,
								"contract": "ZKPVoting.sol:ZKPVoting",
								"label": "commitment",
								"offset": 0,
								"slot": "0",
								"type": "t_uint256"
							},
							{
								"astId": 18,
								"contract": "ZKPVoting.sol:ZKPVoting",
								"label": "a0",
								"offset": 0,
								"slot": "1",
								"type": "t_uint256"
							},
							{
								"astId": 20,
								"contract": "ZKPVoting.sol:ZKPVoting",
								"label": "a1",
								"offset": 0,
								"slot": "2",
								"type": "t_uint256"
							},
							{
								"astId": 22,
								"contract": "ZKPVoting.sol:ZKPVoting",
								"label": "s0",
								"offset": 0,
								"slot": "3",
								"type": "t_uint256"
							},
							{
								"astId": 24,
								"contract": "ZKPVoting.sol:ZKPVoting",
								"label": "s1",
								"offset": 0,
								"slot": "4",
								"type": "t_uint256"
							},
							{
								"astId": 26,
								"contract": "ZKPVoting.sol:ZKPVoting",
								"label": "e0",
								"offset": 0,
								"slot": "5",
								"type": "t_uint256"
							},
							{
								"astId": 28,
								"contract": "ZKPVoting.sol:ZKPVoting",
								"label": "e1",
								"offset": 0,
								"slot": "6",
								"type": "t_uint256"
							},
							{
								"astId": 30,
								"contract": "ZKPVoting.sol:ZKPVoting",
								"label": "verified",
								"offset": 0,
								"slot": "7",
								"type": "t_bool"
							}
						],
						"numberOfBytes": "256"
					},
					"t_uint256": {
						"encoding": "inplace",
						"label": "uint256",
						"numberOfBytes": "32"
					}
				}
			},
			"userdoc": {
				"kind": "user",
				"methods": {},
				"version": 1
			}
		}
	}
}