{
	"verifier.sol": {
		"Verifier": {
			"abi": [
				{
					"inputs": [
						{
							"components": [
								{
									"components": [
										{
											"internalType": "uint256",
											"name": "X",
											"type": "uint256"
										},
										{
											"internalType": "uint256",
											"name": "Y",
											"type": "uint256"
										}
									],
									"internalType": "struct Pairing.G1Point",
									"name": "a",
									"type": "tuple"
								},
								{
									"components": [
										{
											"internalType": "uint256[2]",
											"name": "X",
											"type": "uint256[2]"
										},
										{
											"internalType": "uint256[2]",
											"name": "Y",
											"type": "uint256[2]"
										}
									],
									"internalType": "struct Pairing.G2Point",
									"name": "b",
									"type": "tuple"
								},
								{
									"components": [
										{
											"internalType": "uint256",
											"name": "X",
											"type": "uint256"
										},
										{
											"internalType": "uint256",
											"name": "Y",
											"type": "uint256"
										}
									],
									"internalType": "struct Pairing.G1Point",
									"name": "c",
									"type": "tuple"
								}
							],
							"internalType": "struct Verifier.Proof",
							"name": "proof",
							"type": "tuple"
						},
						{
							"internalType": "uint256[1]",
							"name": "input",
							"type": "uint256[1]"
						}
					],
					"name": "verifyTx",
					"outputs": [
						{
							"internalType": "bool",
							"name": "r",
							"type": "bool"
						}
					],
					"stateMutability": "view",
					"type": "function"
				}
			],
			"devdoc": {
				"kind": "dev",
				"methods": {},
				"version": 1
			},
			"evm": {
				"assembly": "    /* \"verifier.sol\":5198:8633  contract Verifier {... */\n  mstore(0x40, 0x80)\n  callvalue\n  dup1\n  iszero\n  tag_1\n  jumpi\n  0x00\n  dup1\n  revert\ntag_1:\n  pop\n  dataSize(sub_0)\n  dup1\n  dataOffset(sub_0)\n  0x00\n  codecopy\n  0x00\n  return\nstop\n\nsub_0: assembly {\n        /* \"verifier.sol\":5198:8633  contract Verifier {... */\n      mstore(0x40, 0x80)\n      callvalue\n      dup1\n      iszero\n      tag_1\n      jumpi\n      0x00\n      dup1\n      revert\n    tag_1:\n      pop\n      jumpi(tag_2, lt(calldatasize, 0x04))\n      shr(0xe0, calldataload(0x00))\n      dup1\n      0xf48d7729\n      eq\n      tag_3\n      jumpi\n    tag_2:\n      0x00\n      dup1\n      revert\n        /* \"verifier.sol\":8231:8631  function verifyTx(... */\n    tag_3:\n      tag_4\n      0x04\n      dup1\n      calldatasize\n      sub\n      dup2\n      add\n      swap1\n      tag_5\n      swap2\n      swap1\n      tag_6\n      jump\t// in\n    tag_5:\n      tag_7\n      jump\t// in\n    tag_4:\n      mload(0x40)\n      tag_8\n      swap2\n      swap1\n      tag_9\n      jump\t// in\n    tag_8:\n      mload(0x40)\n      dup1\n      swap2\n      sub\n      swap1\n      return\n    tag_7:\n        /* \"verifier.sol\":8334:8340  bool r */\n      0x00\n        /* \"verifier.sol\":8352:8377  uint[] memory inputValues */\n      dup1\n        /* \"verifier.sol\":8391:8392  1 */\n      0x01\n        /* \"verifier.sol\":8380:8393  new uint[](1) */\n      0xffffffffffffffff\n      dup2\n      gt\n      dup1\n      iszero\n      tag_11\n      jumpi\n      0x00\n      dup1\n      revert\n    tag_11:\n      pop\n      mload(0x40)\n      swap1\n      dup1\n      dup3\n      mstore\n      dup1\n      0x20\n      mul\n      0x20\n      add\n      dup3\n      add\n      0x40\n      mstore\n      dup1\n      iszero\n      tag_12\n      jumpi\n      dup2\n      0x20\n      add\n      0x20\n      dup3\n      mul\n      dup1\n      calldatasize\n      dup4\n      calldatacopy\n      dup1\n      dup3\n      add\n      swap2\n      pop\n      pop\n      swap1\n      pop\n    tag_12:\n      pop\n        /* \"verifier.sol\":8352:8393  uint[] memory inputValues = new uint[](1) */\n      swap1\n      pop\n        /* \"verifier.sol\":8416:8422  uint i */\n      0x00\n        /* \"verifier.sol\":8412:8500  for(uint i = 0; i < input.length; i++){... */\n    tag_13:\n        /* \"verifier.sol\":8432:8444  input.length */\n      0x01\n        /* \"verifier.sol\":8428:8429  i */\n      dup2\n        /* \"verifier.sol\":8428:8444  i < input.length */\n      lt\n        /* \"verifier.sol\":8412:8500  for(uint i = 0; i < input.length; i++){... */\n      iszero\n      tag_14\n      jumpi\n        /* \"verifier.sol\":8481:8486  input */\n      dup4\n        /* \"verifier.sol\":8487:8488  i */\n      dup2\n        /* \"verifier.sol\":8481:8489  input[i] */\n      0x01\n      dup2\n      lt\n      tag_16\n      jumpi\n      invalid\n    tag_16:\n      0x20\n      mul\n      add\n      mload\n        /* \"verifier.sol\":8464:8475  inputValues */\n      dup3\n        /* \"verifier.sol\":8476:8477  i */\n      dup3\n        /* \"verifier.sol\":8464:8478  inputValues[i] */\n      dup2\n      mload\n      dup2\n      lt\n      tag_17\n      jumpi\n      invalid\n    tag_17:\n      0x20\n      mul\n      0x20\n      add\n      add\n        /* \"verifier.sol\":8464:8489  inputValues[i] = input[i] */\n      dup2\n      dup2\n      mstore\n      pop\n      pop\n        /* \"verifier.sol\":8446:8449  i++ */\n      dup1\n      dup1\n      0x01\n      add\n      swap2\n      pop\n      pop\n        /* \"verifier.sol\":8412:8500  for(uint i = 0; i < input.length; i++){... */\n      jump(tag_13)\n    tag_14:\n      pop\n        /* \"verifier.sol\":8543:8544  0 */\n      0x00\n        /* \"verifier.sol\":8513:8539  verify(inputValues, proof) */\n      tag_18\n        /* \"verifier.sol\":8520:8531  inputValues */\n      dup3\n        /* \"verifier.sol\":8533:8538  proof */\n      dup7\n        /* \"verifier.sol\":8513:8519  verify */\n      tag_19\n        /* \"verifier.sol\":8513:8539  verify(inputValues, proof) */\n      jump\t// in\n    tag_18:\n        /* \"verifier.sol\":8513:8544  verify(inputValues, proof) == 0 */\n      eq\n        /* \"verifier.sol\":8509:8625  if (verify(inputValues, proof) == 0) {... */\n      iszero\n      tag_20\n      jumpi\n        /* \"verifier.sol\":8567:8571  true */\n      0x01\n        /* \"verifier.sol\":8560:8571  return true */\n      swap2\n      pop\n      pop\n      jump(tag_10)\n        /* \"verifier.sol\":8509:8625  if (verify(inputValues, proof) == 0) {... */\n    tag_20:\n        /* \"verifier.sol\":8609:8614  false */\n      0x00\n        /* \"verifier.sol\":8602:8614  return false */\n      swap2\n      pop\n      pop\n        /* \"verifier.sol\":8231:8631  function verifyTx(... */\n    tag_10:\n      swap3\n      swap2\n      pop\n      pop\n      jump\t// out\n        /* \"verifier.sol\":7304:8226  function verify(uint[] memory input, Proof memory proof) internal view returns (uint) {... */\n    tag_19:\n        /* \"verifier.sol\":7384:7388  uint */\n      0x00\n        /* \"verifier.sol\":7400:7426  uint256 snark_scalar_field */\n      dup1\n        /* \"verifier.sol\":7429:7506  21888242871839275222246405745257275088548364400416034343698204186575808495617 */\n      0x30644e72e131a029b85045b68181585d2833e84879b9709143e1f593f0000001\n        /* \"verifier.sol\":7400:7506  uint256 snark_scalar_field = 21888242871839275222246405745257275088548364400416034343698204186575808495617 */\n      swap1\n      pop\n        /* \"verifier.sol\":7516:7538  VerifyingKey memory vk */\n      0x00\n        /* \"verifier.sol\":7541:7555  verifyingKey() */\n      tag_23\n        /* \"verifier.sol\":7541:7553  verifyingKey */\n      tag_24\n        /* \"verifier.sol\":7541:7555  verifyingKey() */\n      jump\t// in\n    tag_23:\n        /* \"verifier.sol\":7516:7555  VerifyingKey memory vk = verifyingKey() */\n      swap1\n      pop\n        /* \"verifier.sol\":7593:7595  vk */\n      dup1\n        /* \"verifier.sol\":7593:7605  vk.gamma_abc */\n      0x80\n      add\n      mload\n        /* \"verifier.sol\":7593:7612  vk.gamma_abc.length */\n      mload\n        /* \"verifier.sol\":7588:7589  1 */\n      0x01\n        /* \"verifier.sol\":7573:7578  input */\n      dup7\n        /* \"verifier.sol\":7573:7585  input.length */\n      mload\n        /* \"verifier.sol\":7573:7589  input.length + 1 */\n      add\n        /* \"verifier.sol\":7573:7612  input.length + 1 == vk.gamma_abc.length */\n      eq\n        /* \"verifier.sol\":7565:7613  require(input.length + 1 == vk.gamma_abc.length) */\n      tag_25\n      jumpi\n      0x00\n      dup1\n      revert\n    tag_25:\n        /* \"verifier.sol\":7670:7697  Pairing.G1Point memory vk_x */\n      0x00\n        /* \"verifier.sol\":7700:7721  Pairing.G1Point(0, 0) */\n      mload(0x40)\n      dup1\n      0x40\n      add\n      0x40\n      mstore\n      dup1\n        /* \"verifier.sol\":7716:7717  0 */\n      0x00\n        /* \"verifier.sol\":7700:7721  Pairing.G1Point(0, 0) */\n      dup2\n      mstore\n      0x20\n      add\n        /* \"verifier.sol\":7719:7720  0 */\n      0x00\n        /* \"verifier.sol\":7700:7721  Pairing.G1Point(0, 0) */\n      dup2\n      mstore\n      pop\n        /* \"verifier.sol\":7670:7721  Pairing.G1Point memory vk_x = Pairing.G1Point(0, 0) */\n      swap1\n      pop\n        /* \"verifier.sol\":7736:7742  uint i */\n      0x00\n        /* \"verifier.sol\":7731:7928  for (uint i = 0; i < input.length; i++) {... */\n    tag_26:\n        /* \"verifier.sol\":7752:7757  input */\n      dup7\n        /* \"verifier.sol\":7752:7764  input.length */\n      mload\n        /* \"verifier.sol\":7748:7749  i */\n      dup2\n        /* \"verifier.sol\":7748:7764  i < input.length */\n      lt\n        /* \"verifier.sol\":7731:7928  for (uint i = 0; i < input.length; i++) {... */\n      iszero\n      tag_27\n      jumpi\n        /* \"verifier.sol\":7804:7822  snark_scalar_field */\n      dup4\n        /* \"verifier.sol\":7793:7798  input */\n      dup8\n        /* \"verifier.sol\":7799:7800  i */\n      dup3\n        /* \"verifier.sol\":7793:7801  input[i] */\n      dup2\n      mload\n      dup2\n      lt\n      tag_29\n      jumpi\n      invalid\n    tag_29:\n      0x20\n      mul\n      0x20\n      add\n      add\n      mload\n        /* \"verifier.sol\":7793:7822  input[i] < snark_scalar_field */\n      lt\n        /* \"verifier.sol\":7785:7823  require(input[i] < snark_scalar_field) */\n      tag_30\n      jumpi\n      0x00\n      dup1\n      revert\n    tag_30:\n        /* \"verifier.sol\":7844:7917  Pairing.addition(vk_x, Pairing.scalar_mul(vk.gamma_abc[i + 1], input[i])) */\n      tag_31\n        /* \"verifier.sol\":7861:7865  vk_x */\n      dup3\n        /* \"verifier.sol\":7867:7916  Pairing.scalar_mul(vk.gamma_abc[i + 1], input[i]) */\n      tag_32\n        /* \"verifier.sol\":7886:7888  vk */\n      dup6\n        /* \"verifier.sol\":7886:7898  vk.gamma_abc */\n      0x80\n      add\n      mload\n        /* \"verifier.sol\":7903:7904  1 */\n      0x01\n        /* \"verifier.sol\":7899:7900  i */\n      dup6\n        /* \"verifier.sol\":7899:7904  i + 1 */\n      add\n        /* \"verifier.sol\":7886:7905  vk.gamma_abc[i + 1] */\n      dup2\n      mload\n      dup2\n      lt\n      tag_33\n      jumpi\n      invalid\n    tag_33:\n      0x20\n      mul\n      0x20\n      add\n      add\n      mload\n        /* \"verifier.sol\":7907:7912  input */\n      dup11\n        /* \"verifier.sol\":7913:7914  i */\n      dup6\n        /* \"verifier.sol\":7907:7915  input[i] */\n      dup2\n      mload\n      dup2\n      lt\n      tag_34\n      jumpi\n      invalid\n    tag_34:\n      0x20\n      mul\n      0x20\n      add\n      add\n      mload\n        /* \"verifier.sol\":7867:7885  Pairing.scalar_mul */\n      tag_35\n        /* \"verifier.sol\":7867:7916  Pairing.scalar_mul(vk.gamma_abc[i + 1], input[i]) */\n      jump\t// in\n    tag_32:\n        /* \"verifier.sol\":7844:7860  Pairing.addition */\n      tag_36\n        /* \"verifier.sol\":7844:7917  Pairing.addition(vk_x, Pairing.scalar_mul(vk.gamma_abc[i + 1], input[i])) */\n      jump\t// in\n    tag_31:\n        /* \"verifier.sol\":7837:7917  vk_x = Pairing.addition(vk_x, Pairing.scalar_mul(vk.gamma_abc[i + 1], input[i])) */\n      swap2\n      pop\n        /* \"verifier.sol\":7766:7769  i++ */\n      dup1\n      dup1\n      0x01\n      add\n      swap2\n      pop\n      pop\n        /* \"verifier.sol\":7731:7928  for (uint i = 0; i < input.length; i++) {... */\n      jump(tag_26)\n    tag_27:\n      pop\n        /* \"verifier.sol\":7944:7983  Pairing.addition(vk_x, vk.gamma_abc[0]) */\n      tag_37\n        /* \"verifier.sol\":7961:7965  vk_x */\n      dup2\n        /* \"verifier.sol\":7967:7969  vk */\n      dup4\n        /* \"verifier.sol\":7967:7979  vk.gamma_abc */\n      0x80\n      add\n      mload\n        /* \"verifier.sol\":7980:7981  0 */\n      0x00\n        /* \"verifier.sol\":7967:7982  vk.gamma_abc[0] */\n      dup2\n      mload\n      dup2\n      lt\n      tag_38\n      jumpi\n      invalid\n    tag_38:\n      0x20\n      mul\n      0x20\n      add\n      add\n      mload\n        /* \"verifier.sol\":7944:7960  Pairing.addition */\n      tag_36\n        /* \"verifier.sol\":7944:7983  Pairing.addition(vk_x, vk.gamma_abc[0]) */\n      jump\t// in\n    tag_37:\n        /* \"verifier.sol\":7937:7983  vk_x = Pairing.addition(vk_x, vk.gamma_abc[0]) */\n      swap1\n      pop\n        /* \"verifier.sol\":7998:8191  Pairing.pairingProd4(... */\n      tag_39\n        /* \"verifier.sol\":8033:8038  proof */\n      dup6\n        /* \"verifier.sol\":8033:8040  proof.a */\n      0x00\n      add\n      mload\n        /* \"verifier.sol\":8042:8047  proof */\n      dup7\n        /* \"verifier.sol\":8042:8049  proof.b */\n      0x20\n      add\n      mload\n        /* \"verifier.sol\":8064:8084  Pairing.negate(vk_x) */\n      tag_40\n        /* \"verifier.sol\":8079:8083  vk_x */\n      dup5\n        /* \"verifier.sol\":8064:8078  Pairing.negate */\n      tag_41\n        /* \"verifier.sol\":8064:8084  Pairing.negate(vk_x) */\n      jump\t// in\n    tag_40:\n        /* \"verifier.sol\":8086:8088  vk */\n      dup6\n        /* \"verifier.sol\":8086:8094  vk.gamma */\n      0x40\n      add\n      mload\n        /* \"verifier.sol\":8109:8132  Pairing.negate(proof.c) */\n      tag_42\n        /* \"verifier.sol\":8124:8129  proof */\n      dup11\n        /* \"verifier.sol\":8124:8131  proof.c */\n      0x40\n      add\n      mload\n        /* \"verifier.sol\":8109:8123  Pairing.negate */\n      tag_41\n        /* \"verifier.sol\":8109:8132  Pairing.negate(proof.c) */\n      jump\t// in\n    tag_42:\n        /* \"verifier.sol\":8134:8136  vk */\n      dup8\n        /* \"verifier.sol\":8134:8142  vk.delta */\n      0x60\n      add\n      mload\n        /* \"verifier.sol\":8157:8181  Pairing.negate(vk.alpha) */\n      tag_43\n        /* \"verifier.sol\":8172:8174  vk */\n      dup10\n        /* \"verifier.sol\":8172:8180  vk.alpha */\n      0x00\n      add\n      mload\n        /* \"verifier.sol\":8157:8171  Pairing.negate */\n      tag_41\n        /* \"verifier.sol\":8157:8181  Pairing.negate(vk.alpha) */\n      jump\t// in\n    tag_43:\n        /* \"verifier.sol\":8183:8185  vk */\n      dup10\n        /* \"verifier.sol\":8183:8190  vk.beta */\n      0x20\n      add\n      mload\n        /* \"verifier.sol\":7998:8018  Pairing.pairingProd4 */\n      tag_44\n        /* \"verifier.sol\":7998:8191  Pairing.pairingProd4(... */\n      jump\t// in\n    tag_39:\n        /* \"verifier.sol\":7993:8201  if (!Pairing.pairingProd4(... */\n      tag_45\n      jumpi\n        /* \"verifier.sol\":8200:8201  1 */\n      0x01\n        /* \"verifier.sol\":8193:8201  return 1 */\n      swap4\n      pop\n      pop\n      pop\n      pop\n      jump(tag_22)\n        /* \"verifier.sol\":7993:8201  if (!Pairing.pairingProd4(... */\n    tag_45:\n        /* \"verifier.sol\":8218:8219  0 */\n      0x00\n        /* \"verifier.sol\":8211:8219  return 0 */\n      swap4\n      pop\n      pop\n      pop\n      pop\n        /* \"verifier.sol\":7304:8226  function verify(uint[] memory input, Proof memory proof) internal view returns (uint) {... */\n    tag_22:\n      swap3\n      swap2\n      pop\n      pop\n      jump\t// out\n        /* \"verifier.sol\":5545:7299  function verifyingKey() pure internal returns (VerifyingKey memory vk) {... */\n    tag_24:\n        /* \"verifier.sol\":5592:5614  VerifyingKey memory vk */\n      tag_46\n      tag_47\n      jump\t// in\n    tag_46:\n        /* \"verifier.sol\":5637:5806  Pairing.G1Point(uint256(0x279e985f7f112c664efb572451fd77300d02c8dd247ef3cd181508a1c72c09ec), uint256(0x2b4f0c7db13f64da24ad741a18a874e184661af7acd3e65e3c9a730370fb969a)) */\n      mload(0x40)\n      dup1\n      0x40\n      add\n      0x40\n      mstore\n      dup1\n        /* \"verifier.sol\":5661:5727  0x279e985f7f112c664efb572451fd77300d02c8dd247ef3cd181508a1c72c09ec */\n      0x279e985f7f112c664efb572451fd77300d02c8dd247ef3cd181508a1c72c09ec\n        /* \"verifier.sol\":5637:5806  Pairing.G1Point(uint256(0x279e985f7f112c664efb572451fd77300d02c8dd247ef3cd181508a1c72c09ec), uint256(0x2b4f0c7db13f64da24ad741a18a874e184661af7acd3e65e3c9a730370fb969a)) */\n      dup2\n      mstore\n      0x20\n      add\n        /* \"verifier.sol\":5738:5804  0x2b4f0c7db13f64da24ad741a18a874e184661af7acd3e65e3c9a730370fb969a */\n      0x2b4f0c7db13f64da24ad741a18a874e184661af7acd3e65e3c9a730370fb969a\n        /* \"verifier.sol\":5637:5806  Pairing.G1Point(uint256(0x279e985f7f112c664efb572451fd77300d02c8dd247ef3cd181508a1c72c09ec), uint256(0x2b4f0c7db13f64da24ad741a18a874e184661af7acd3e65e3c9a730370fb969a)) */\n      dup2\n      mstore\n      pop\n        /* \"verifier.sol\":5626:5628  vk */\n      dup2\n        /* \"verifier.sol\":5626:5634  vk.alpha */\n      0x00\n      add\n        /* \"verifier.sol\":5626:5806  vk.alpha = Pairing.G1Point(uint256(0x279e985f7f112c664efb572451fd77300d02c8dd247ef3cd181508a1c72c09ec), uint256(0x2b4f0c7db13f64da24ad741a18a874e184661af7acd3e65e3c9a730370fb969a)) */\n      dup2\n      swap1\n      mstore\n      pop\n        /* \"verifier.sol\":5826:6153  Pairing.G2Point([uint256(0x0d3b4c19daa587b054d7f39cf23d82ae42ac4e0c881517f3e69b467fc1e57e18), uint256(0x0cfeaed21ec45b3cc31514a05e86ebed17e684570b05d398079d076a7a2674fa)], [uint256(0x1fc8d5ccde6ffabbd9f55b8f87f9f8aca6a51766f2981651b31ce47a1c6434fb), uint256(0x22ba52e7737d0099e519711615b272f7f3b9c17819a28da09de9488289e02ed8)]) */\n      mload(0x40)\n      dup1\n      0x40\n      add\n      0x40\n      mstore\n      dup1\n      mload(0x40)\n      dup1\n      0x40\n      add\n      0x40\n      mstore\n      dup1\n        /* \"verifier.sol\":5851:5917  0x0d3b4c19daa587b054d7f39cf23d82ae42ac4e0c881517f3e69b467fc1e57e18 */\n      0x0d3b4c19daa587b054d7f39cf23d82ae42ac4e0c881517f3e69b467fc1e57e18\n        /* \"verifier.sol\":5826:6153  Pairing.G2Point([uint256(0x0d3b4c19daa587b054d7f39cf23d82ae42ac4e0c881517f3e69b467fc1e57e18), uint256(0x0cfeaed21ec45b3cc31514a05e86ebed17e684570b05d398079d076a7a2674fa)], [uint256(0x1fc8d5ccde6ffabbd9f55b8f87f9f8aca6a51766f2981651b31ce47a1c6434fb), uint256(0x22ba52e7737d0099e519711615b272f7f3b9c17819a28da09de9488289e02ed8)]) */\n      dup2\n      mstore\n      0x20\n      add\n        /* \"verifier.sol\":5928:5994  0x0cfeaed21ec45b3cc31514a05e86ebed17e684570b05d398079d076a7a2674fa */\n      0x0cfeaed21ec45b3cc31514a05e86ebed17e684570b05d398079d076a7a2674fa\n        /* \"verifier.sol\":5826:6153  Pairing.G2Point([uint256(0x0d3b4c19daa587b054d7f39cf23d82ae42ac4e0c881517f3e69b467fc1e57e18), uint256(0x0cfeaed21ec45b3cc31514a05e86ebed17e684570b05d398079d076a7a2674fa)], [uint256(0x1fc8d5ccde6ffabbd9f55b8f87f9f8aca6a51766f2981651b31ce47a1c6434fb), uint256(0x22ba52e7737d0099e519711615b272f7f3b9c17819a28da09de9488289e02ed8)]) */\n      dup2\n      mstore\n      pop\n      dup2\n      mstore\n      0x20\n      add\n      mload(0x40)\n      dup1\n      0x40\n      add\n      0x40\n      mstore\n      dup1\n        /* \"verifier.sol\":6007:6073  0x1fc8d5ccde6ffabbd9f55b8f87f9f8aca6a51766f2981651b31ce47a1c6434fb */\n      0x1fc8d5ccde6ffabbd9f55b8f87f9f8aca6a51766f2981651b31ce47a1c6434fb\n        /* \"verifier.sol\":5826:6153  Pairing.G2Point([uint256(0x0d3b4c19daa587b054d7f39cf23d82ae42ac4e0c881517f3e69b467fc1e57e18), uint256(0x0cfeaed21ec45b3cc31514a05e86ebed17e684570b05d398079d076a7a2674fa)], [uint256(0x1fc8d5ccde6ffabbd9f55b8f87f9f8aca6a51766f2981651b31ce47a1c6434fb), uint256(0x22ba52e7737d0099e519711615b272f7f3b9c17819a28da09de9488289e02ed8)]) */\n      dup2\n      mstore\n      0x20\n      add\n        /* \"verifier.sol\":6084:6150  0x22ba52e7737d0099e519711615b272f7f3b9c17819a28da09de9488289e02ed8 */\n      0x22ba52e7737d0099e519711615b272f7f3b9c17819a28da09de9488289e02ed8\n        /* \"verifier.sol\":5826:6153  Pairing.G2Point([uint256(0x0d3b4c19daa587b054d7f39cf23d82ae42ac4e0c881517f3e69b467fc1e57e18), uint256(0x0cfeaed21ec45b3cc31514a05e86ebed17e684570b05d398079d076a7a2674fa)], [uint256(0x1fc8d5ccde6ffabbd9f55b8f87f9f8aca6a51766f2981651b31ce47a1c6434fb), uint256(0x22ba52e7737d0099e519711615b272f7f3b9c17819a28da09de9488289e02ed8)]) */\n      dup2\n      mstore\n      pop\n      dup2\n      mstore\n      pop\n        /* \"verifier.sol\":5816:5818  vk */\n      dup2\n        /* \"verifier.sol\":5816:5823  vk.beta */\n      0x20\n      add\n        /* \"verifier.sol\":5816:6153  vk.beta = Pairing.G2Point([uint256(0x0d3b4c19daa587b054d7f39cf23d82ae42ac4e0c881517f3e69b467fc1e57e18), uint256(0x0cfeaed21ec45b3cc31514a05e86ebed17e684570b05d398079d076a7a2674fa)], [uint256(0x1fc8d5ccde6ffabbd9f55b8f87f9f8aca6a51766f2981651b31ce47a1c6434fb), uint256(0x22ba52e7737d0099e519711615b272f7f3b9c17819a28da09de9488289e02ed8)]) */\n      dup2\n      swap1\n      mstore\n      pop\n        /* \"verifier.sol\":6174:6501  Pairing.G2Point([uint256(0x09111e364336c2e286515c87c6f06c6487af2be7a2c5717bb9af2d9e99dbe3d1), uint256(0x1ac8f6cd5fc86962ec711262c8a87c71831cc858a17e00200a6af066a1038857)], [uint256(0x17f52a350e4c41d3987ef3391a58055716d3553a2a3c97d6f7492e8ab677f0b6), uint256(0x2f9d19f1218c003002d09237603a7b94c389004aad77696651e35dd01b6a7b72)]) */\n      mload(0x40)\n      dup1\n      0x40\n      add\n      0x40\n      mstore\n      dup1\n      mload(0x40)\n      dup1\n      0x40\n      add\n      0x40\n      mstore\n      dup1\n        /* \"verifier.sol\":6199:6265  0x09111e364336c2e286515c87c6f06c6487af2be7a2c5717bb9af2d9e99dbe3d1 */\n      0x09111e364336c2e286515c87c6f06c6487af2be7a2c5717bb9af2d9e99dbe3d1\n        /* \"verifier.sol\":6174:6501  Pairing.G2Point([uint256(0x09111e364336c2e286515c87c6f06c6487af2be7a2c5717bb9af2d9e99dbe3d1), uint256(0x1ac8f6cd5fc86962ec711262c8a87c71831cc858a17e00200a6af066a1038857)], [uint256(0x17f52a350e4c41d3987ef3391a58055716d3553a2a3c97d6f7492e8ab677f0b6), uint256(0x2f9d19f1218c003002d09237603a7b94c389004aad77696651e35dd01b6a7b72)]) */\n      dup2\n      mstore\n      0x20\n      add\n        /* \"verifier.sol\":6276:6342  0x1ac8f6cd5fc86962ec711262c8a87c71831cc858a17e00200a6af066a1038857 */\n      0x1ac8f6cd5fc86962ec711262c8a87c71831cc858a17e00200a6af066a1038857\n        /* \"verifier.sol\":6174:6501  Pairing.G2Point([uint256(0x09111e364336c2e286515c87c6f06c6487af2be7a2c5717bb9af2d9e99dbe3d1), uint256(0x1ac8f6cd5fc86962ec711262c8a87c71831cc858a17e00200a6af066a1038857)], [uint256(0x17f52a350e4c41d3987ef3391a58055716d3553a2a3c97d6f7492e8ab677f0b6), uint256(0x2f9d19f1218c003002d09237603a7b94c389004aad77696651e35dd01b6a7b72)]) */\n      dup2\n      mstore\n      pop\n      dup2\n      mstore\n      0x20\n      add\n      mload(0x40)\n      dup1\n      0x40\n      add\n      0x40\n      mstore\n      dup1\n        /* \"verifier.sol\":6355:6421  0x17f52a350e4c41d3987ef3391a58055716d3553a2a3c97d6f7492e8ab677f0b6 */\n      0x17f52a350e4c41d3987ef3391a58055716d3553a2a3c97d6f7492e8ab677f0b6\n        /* \"verifier.sol\":6174:6501  Pairing.G2Point([uint256(0x09111e364336c2e286515c87c6f06c6487af2be7a2c5717bb9af2d9e99dbe3d1), uint256(0x1ac8f6cd5fc86962ec711262c8a87c71831cc858a17e00200a6af066a1038857)], [uint256(0x17f52a350e4c41d3987ef3391a58055716d3553a2a3c97d6f7492e8ab677f0b6), uint256(0x2f9d19f1218c003002d09237603a7b94c389004aad77696651e35dd01b6a7b72)]) */\n      dup2\n      mstore\n      0x20\n      add\n        /* \"verifier.sol\":6432:6498  0x2f9d19f1218c003002d09237603a7b94c389004aad77696651e35dd01b6a7b72 */\n      0x2f9d19f1218c003002d09237603a7b94c389004aad77696651e35dd01b6a7b72\n        /* \"verifier.sol\":6174:6501  Pairing.G2Point([uint256(0x09111e364336c2e286515c87c6f06c6487af2be7a2c5717bb9af2d9e99dbe3d1), uint256(0x1ac8f6cd5fc86962ec711262c8a87c71831cc858a17e00200a6af066a1038857)], [uint256(0x17f52a350e4c41d3987ef3391a58055716d3553a2a3c97d6f7492e8ab677f0b6), uint256(0x2f9d19f1218c003002d09237603a7b94c389004aad77696651e35dd01b6a7b72)]) */\n      dup2\n      mstore\n      pop\n      dup2\n      mstore\n      pop\n        /* \"verifier.sol\":6163:6165  vk */\n      dup2\n        /* \"verifier.sol\":6163:6171  vk.gamma */\n      0x40\n      add\n        /* \"verifier.sol\":6163:6501  vk.gamma = Pairing.G2Point([uint256(0x09111e364336c2e286515c87c6f06c6487af2be7a2c5717bb9af2d9e99dbe3d1), uint256(0x1ac8f6cd5fc86962ec711262c8a87c71831cc858a17e00200a6af066a1038857)], [uint256(0x17f52a350e4c41d3987ef3391a58055716d3553a2a3c97d6f7492e8ab677f0b6), uint256(0x2f9d19f1218c003002d09237603a7b94c389004aad77696651e35dd01b6a7b72)]) */\n      dup2\n      swap1\n      mstore\n      pop\n        /* \"verifier.sol\":6522:6849  Pairing.G2Point([uint256(0x23d394975811539663b0780ee63a712ea26d742d6b55c9f96337f24990f22f48), uint256(0x065aa761e9103f6686ff4cffd6a1f37265cc874613b55b6ef17ab60d9b6ef074)], [uint256(0x296fb02adf5f670c7beb39875dc82cf21b5cee85dfde7ea4d978a84c59d11819), uint256(0x09cb81cb080ed79887edd964d107a6fc21b9cec13511ce9f5a51febc5430650c)]) */\n      mload(0x40)\n      dup1\n      0x40\n      add\n      0x40\n      mstore\n      dup1\n      mload(0x40)\n      dup1\n      0x40\n      add\n      0x40\n      mstore\n      dup1\n        /* \"verifier.sol\":6547:6613  0x23d394975811539663b0780ee63a712ea26d742d6b55c9f96337f24990f22f48 */\n      0x23d394975811539663b0780ee63a712ea26d742d6b55c9f96337f24990f22f48\n        /* \"verifier.sol\":6522:6849  Pairing.G2Point([uint256(0x23d394975811539663b0780ee63a712ea26d742d6b55c9f96337f24990f22f48), uint256(0x065aa761e9103f6686ff4cffd6a1f37265cc874613b55b6ef17ab60d9b6ef074)], [uint256(0x296fb02adf5f670c7beb39875dc82cf21b5cee85dfde7ea4d978a84c59d11819), uint256(0x09cb81cb080ed79887edd964d107a6fc21b9cec13511ce9f5a51febc5430650c)]) */\n      dup2\n      mstore\n      0x20\n      add\n        /* \"verifier.sol\":6624:6690  0x065aa761e9103f6686ff4cffd6a1f37265cc874613b55b6ef17ab60d9b6ef074 */\n      0x065aa761e9103f6686ff4cffd6a1f37265cc874613b55b6ef17ab60d9b6ef074\n        /* \"verifier.sol\":6522:6849  Pairing.G2Point([uint256(0x23d394975811539663b0780ee63a712ea26d742d6b55c9f96337f24990f22f48), uint256(0x065aa761e9103f6686ff4cffd6a1f37265cc874613b55b6ef17ab60d9b6ef074)], [uint256(0x296fb02adf5f670c7beb39875dc82cf21b5cee85dfde7ea4d978a84c59d11819), uint256(0x09cb81cb080ed79887edd964d107a6fc21b9cec13511ce9f5a51febc5430650c)]) */\n      dup2\n      mstore\n      pop\n      dup2\n      mstore\n      0x20\n      add\n      mload(0x40)\n      dup1\n      0x40\n      add\n      0x40\n      mstore\n      dup1\n        /* \"verifier.sol\":6703:6769  0x296fb02adf5f670c7beb39875dc82cf21b5cee85dfde7ea4d978a84c59d11819 */\n      0x296fb02adf5f670c7beb39875dc82cf21b5cee85dfde7ea4d978a84c59d11819\n        /* \"verifier.sol\":6522:6849  Pairing.G2Point([uint256(0x23d394975811539663b0780ee63a712ea26d742d6b55c9f96337f24990f22f48), uint256(0x065aa761e9103f6686ff4cffd6a1f37265cc874613b55b6ef17ab60d9b6ef074)], [uint256(0x296fb02adf5f670c7beb39875dc82cf21b5cee85dfde7ea4d978a84c59d11819), uint256(0x09cb81cb080ed79887edd964d107a6fc21b9cec13511ce9f5a51febc5430650c)]) */\n      dup2\n      mstore\n      0x20\n      add\n        /* \"verifier.sol\":6780:6846  0x09cb81cb080ed79887edd964d107a6fc21b9cec13511ce9f5a51febc5430650c */\n      0x09cb81cb080ed79887edd964d107a6fc21b9cec13511ce9f5a51febc5430650c\n        /* \"verifier.sol\":6522:6849  Pairing.G2Point([uint256(0x23d394975811539663b0780ee63a712ea26d742d6b55c9f96337f24990f22f48), uint256(0x065aa761e9103f6686ff4cffd6a1f37265cc874613b55b6ef17ab60d9b6ef074)], [uint256(0x296fb02adf5f670c7beb39875dc82cf21b5cee85dfde7ea4d978a84c59d11819), uint256(0x09cb81cb080ed79887edd964d107a6fc21b9cec13511ce9f5a51febc5430650c)]) */\n      dup2\n      mstore\n      pop\n      dup2\n      mstore\n      pop\n        /* \"verifier.sol\":6511:6513  vk */\n      dup2\n        /* \"verifier.sol\":6511:6519  vk.delta */\n      0x60\n      add\n        /* \"verifier.sol\":6511:6849  vk.delta = Pairing.G2Point([uint256(0x23d394975811539663b0780ee63a712ea26d742d6b55c9f96337f24990f22f48), uint256(0x065aa761e9103f6686ff4cffd6a1f37265cc874613b55b6ef17ab60d9b6ef074)], [uint256(0x296fb02adf5f670c7beb39875dc82cf21b5cee85dfde7ea4d978a84c59d11819), uint256(0x09cb81cb080ed79887edd964d107a6fc21b9cec13511ce9f5a51febc5430650c)]) */\n      dup2\n      swap1\n      mstore\n      pop\n        /* \"verifier.sol\":6896:6897  2 */\n      0x02\n        /* \"verifier.sol\":6874:6898  new Pairing.G1Point[](2) */\n      0xffffffffffffffff\n      dup2\n      gt\n      dup1\n      iszero\n      tag_49\n      jumpi\n      0x00\n      dup1\n      revert\n    tag_49:\n      pop\n      mload(0x40)\n      swap1\n      dup1\n      dup3\n      mstore\n      dup1\n      0x20\n      mul\n      0x20\n      add\n      dup3\n      add\n      0x40\n      mstore\n      dup1\n      iszero\n      tag_50\n      jumpi\n      dup2\n      0x20\n      add\n    tag_51:\n      tag_52\n      tag_53\n      jump\t// in\n    tag_52:\n      dup2\n      mstore\n      0x20\n      add\n      swap1\n      0x01\n      swap1\n      sub\n      swap1\n      dup2\n      tag_51\n      jumpi\n      swap1\n      pop\n    tag_50:\n      pop\n        /* \"verifier.sol\":6859:6861  vk */\n      dup2\n        /* \"verifier.sol\":6859:6871  vk.gamma_abc */\n      0x80\n      add\n        /* \"verifier.sol\":6859:6898  vk.gamma_abc = new Pairing.G1Point[](2) */\n      dup2\n      swap1\n      mstore\n      pop\n        /* \"verifier.sol\":6926:7095  Pairing.G1Point(uint256(0x0d908a5650ad5de280ca9a0cdfa73cc4febe207ccef7be41f18ef26d6cb097e2), uint256(0x2498d0c069b66f8a1645e975e52b8a3f16c4a8a94b79e3eb9ecd7d449821c9ed)) */\n      mload(0x40)\n      dup1\n      0x40\n      add\n      0x40\n      mstore\n      dup1\n        /* \"verifier.sol\":6950:7016  0x0d908a5650ad5de280ca9a0cdfa73cc4febe207ccef7be41f18ef26d6cb097e2 */\n      0x0d908a5650ad5de280ca9a0cdfa73cc4febe207ccef7be41f18ef26d6cb097e2\n        /* \"verifier.sol\":6926:7095  Pairing.G1Point(uint256(0x0d908a5650ad5de280ca9a0cdfa73cc4febe207ccef7be41f18ef26d6cb097e2), uint256(0x2498d0c069b66f8a1645e975e52b8a3f16c4a8a94b79e3eb9ecd7d449821c9ed)) */\n      dup2\n      mstore\n      0x20\n      add\n        /* \"verifier.sol\":7027:7093  0x2498d0c069b66f8a1645e975e52b8a3f16c4a8a94b79e3eb9ecd7d449821c9ed */\n      0x2498d0c069b66f8a1645e975e52b8a3f16c4a8a94b79e3eb9ecd7d449821c9ed\n        /* \"verifier.sol\":6926:7095  Pairing.G1Point(uint256(0x0d908a5650ad5de280ca9a0cdfa73cc4febe207ccef7be41f18ef26d6cb097e2), uint256(0x2498d0c069b66f8a1645e975e52b8a3f16c4a8a94b79e3eb9ecd7d449821c9ed)) */\n      dup2\n      mstore\n      pop\n        /* \"verifier.sol\":6908:6910  vk */\n      dup2\n        /* \"verifier.sol\":6908:6920  vk.gamma_abc */\n      0x80\n      add\n      mload\n        /* \"verifier.sol\":6921:6922  0 */\n      0x00\n        /* \"verifier.sol\":6908:6923  vk.gamma_abc[0] */\n      dup2\n      mload\n      dup2\n      lt\n      tag_54\n      jumpi\n      invalid\n    tag_54:\n      0x20\n      mul\n      0x20\n      add\n      add\n        /* \"verifier.sol\":6908:7095  vk.gamma_abc[0] = Pairing.G1Point(uint256(0x0d908a5650ad5de280ca9a0cdfa73cc4febe207ccef7be41f18ef26d6cb097e2), uint256(0x2498d0c069b66f8a1645e975e52b8a3f16c4a8a94b79e3eb9ecd7d449821c9ed)) */\n      dup2\n      swap1\n      mstore\n      pop\n        /* \"verifier.sol\":7123:7292  Pairing.G1Point(uint256(0x0e02fa37c101f36563589a92ebb4326fa27dfd4342754511f95428462d7812b7), uint256(0x2e832d29854f8365b69b63ae8278a89a1767e7649cd732f26b8d7eceadefe592)) */\n      mload(0x40)\n      dup1\n      0x40\n      add\n      0x40\n      mstore\n      dup1\n        /* \"verifier.sol\":7147:7213  0x0e02fa37c101f36563589a92ebb4326fa27dfd4342754511f95428462d7812b7 */\n      0x0e02fa37c101f36563589a92ebb4326fa27dfd4342754511f95428462d7812b7\n        /* \"verifier.sol\":7123:7292  Pairing.G1Point(uint256(0x0e02fa37c101f36563589a92ebb4326fa27dfd4342754511f95428462d7812b7), uint256(0x2e832d29854f8365b69b63ae8278a89a1767e7649cd732f26b8d7eceadefe592)) */\n      dup2\n      mstore\n      0x20\n      add\n        /* \"verifier.sol\":7224:7290  0x2e832d29854f8365b69b63ae8278a89a1767e7649cd732f26b8d7eceadefe592 */\n      0x2e832d29854f8365b69b63ae8278a89a1767e7649cd732f26b8d7eceadefe592\n        /* \"verifier.sol\":7123:7292  Pairing.G1Point(uint256(0x0e02fa37c101f36563589a92ebb4326fa27dfd4342754511f95428462d7812b7), uint256(0x2e832d29854f8365b69b63ae8278a89a1767e7649cd732f26b8d7eceadefe592)) */\n      dup2\n      mstore\n      pop\n        /* \"verifier.sol\":7105:7107  vk */\n      dup2\n        /* \"verifier.sol\":7105:7117  vk.gamma_abc */\n      0x80\n      add\n      mload\n        /* \"verifier.sol\":7118:7119  1 */\n      0x01\n        /* \"verifier.sol\":7105:7120  vk.gamma_abc[1] */\n      dup2\n      mload\n      dup2\n      lt\n      tag_55\n      jumpi\n      invalid\n    tag_55:\n      0x20\n      mul\n      0x20\n      add\n      add\n        /* \"verifier.sol\":7105:7292  vk.gamma_abc[1] = Pairing.G1Point(uint256(0x0e02fa37c101f36563589a92ebb4326fa27dfd4342754511f95428462d7812b7), uint256(0x2e832d29854f8365b69b63ae8278a89a1767e7649cd732f26b8d7eceadefe592)) */\n      dup2\n      swap1\n      mstore\n      pop\n        /* \"verifier.sol\":5545:7299  function verifyingKey() pure internal returns (VerifyingKey memory vk) {... */\n      swap1\n      jump\t// out\n        /* \"verifier.sol\":3109:3505  function scalar_mul(G1Point memory p, uint s) internal view returns (G1Point memory r) {... */\n    tag_35:\n        /* \"verifier.sol\":3178:3194  G1Point memory r */\n      tag_56\n      tag_53\n      jump\t// in\n    tag_56:\n        /* \"verifier.sol\":3206:3226  uint[3] memory input */\n      tag_58\n      tag_59\n      jump\t// in\n    tag_58:\n        /* \"verifier.sol\":3247:3248  p */\n      dup4\n        /* \"verifier.sol\":3247:3250  p.X */\n      0x00\n      add\n      mload\n        /* \"verifier.sol\":3236:3241  input */\n      dup2\n        /* \"verifier.sol\":3242:3243  0 */\n      0x00\n        /* \"verifier.sol\":3236:3244  input[0] */\n      0x03\n      dup2\n      lt\n      tag_60\n      jumpi\n      invalid\n    tag_60:\n      0x20\n      mul\n      add\n        /* \"verifier.sol\":3236:3250  input[0] = p.X */\n      dup2\n      dup2\n      mstore\n      pop\n      pop\n        /* \"verifier.sol\":3271:3272  p */\n      dup4\n        /* \"verifier.sol\":3271:3274  p.Y */\n      0x20\n      add\n      mload\n        /* \"verifier.sol\":3260:3265  input */\n      dup2\n        /* \"verifier.sol\":3266:3267  1 */\n      0x01\n        /* \"verifier.sol\":3260:3268  input[1] */\n      0x03\n      dup2\n      lt\n      tag_61\n      jumpi\n      invalid\n    tag_61:\n      0x20\n      mul\n      add\n        /* \"verifier.sol\":3260:3274  input[1] = p.Y */\n      dup2\n      dup2\n      mstore\n      pop\n      pop\n        /* \"verifier.sol\":3295:3296  s */\n      dup3\n        /* \"verifier.sol\":3284:3289  input */\n      dup2\n        /* \"verifier.sol\":3290:3291  2 */\n      0x02\n        /* \"verifier.sol\":3284:3292  input[2] */\n      0x03\n      dup2\n      lt\n      tag_62\n      jumpi\n      invalid\n    tag_62:\n      0x20\n      mul\n      add\n        /* \"verifier.sol\":3284:3296  input[2] = s */\n      dup2\n      dup2\n      mstore\n      pop\n      pop\n        /* \"verifier.sol\":3306:3318  bool success */\n      0x00\n        /* \"verifier.sol\":3410:3414  0x60 */\n      0x60\n        /* \"verifier.sol\":3407:3408  r */\n      dup4\n        /* \"verifier.sol\":3401:3405  0x80 */\n      0x80\n        /* \"verifier.sol\":3394:3399  input */\n      dup5\n        /* \"verifier.sol\":3391:3392  7 */\n      0x07\n        /* \"verifier.sol\":3384:3388  2000 */\n      0x07d0\n        /* \"verifier.sol\":3377:3382  gas() */\n      gas\n        /* \"verifier.sol\":3373:3389  sub(gas(), 2000) */\n      sub\n        /* \"verifier.sol\":3362:3415  staticcall(sub(gas(), 2000), 7, input, 0x80, r, 0x60) */\n      staticcall\n        /* \"verifier.sol\":3351:3415  success := staticcall(sub(gas(), 2000), 7, input, 0x80, r, 0x60) */\n      swap1\n      pop\n        /* \"verifier.sol\":3435:3442  success */\n      dup1\n        /* \"verifier.sol\":3448:3449  0 */\n      0x00\n        /* \"verifier.sol\":3443:3463  case 0 { invalid() } */\n      dup2\n      eq\n      tag_64\n      jumpi\n        /* \"verifier.sol\":3428:3463  switch success case 0 { invalid() } */\n      jump(tag_63)\n        /* \"verifier.sol\":3443:3463  case 0 { invalid() } */\n    tag_64:\n        /* \"verifier.sol\":3452:3461  invalid() */\n      invalid\n        /* \"verifier.sol\":3428:3463  switch success case 0 { invalid() } */\n    tag_63:\n      pop\n        /* \"verifier.sol\":3490:3497  success */\n      dup1\n        /* \"verifier.sol\":3482:3498  require(success) */\n      tag_65\n      jumpi\n      0x00\n      dup1\n      revert\n    tag_65:\n        /* \"verifier.sol\":3109:3505  function scalar_mul(G1Point memory p, uint s) internal view returns (G1Point memory r) {... */\n      pop\n      pop\n      swap3\n      swap2\n      pop\n      pop\n      jump\t// out\n        /* \"verifier.sol\":2518:2954  function addition(G1Point memory p1, G1Point memory p2) internal view returns (G1Point memory r) {... */\n    tag_36:\n        /* \"verifier.sol\":2597:2613  G1Point memory r */\n      tag_66\n      tag_53\n      jump\t// in\n    tag_66:\n        /* \"verifier.sol\":2625:2645  uint[4] memory input */\n      tag_68\n      tag_69\n      jump\t// in\n    tag_68:\n        /* \"verifier.sol\":2666:2668  p1 */\n      dup4\n        /* \"verifier.sol\":2666:2670  p1.X */\n      0x00\n      add\n      mload\n        /* \"verifier.sol\":2655:2660  input */\n      dup2\n        /* \"verifier.sol\":2661:2662  0 */\n      0x00\n        /* \"verifier.sol\":2655:2663  input[0] */\n      0x04\n      dup2\n      lt\n      tag_70\n      jumpi\n      invalid\n    tag_70:\n      0x20\n      mul\n      add\n        /* \"verifier.sol\":2655:2670  input[0] = p1.X */\n      dup2\n      dup2\n      mstore\n      pop\n      pop\n        /* \"verifier.sol\":2691:2693  p1 */\n      dup4\n        /* \"verifier.sol\":2691:2695  p1.Y */\n      0x20\n      add\n      mload\n        /* \"verifier.sol\":2680:2685  input */\n      dup2\n        /* \"verifier.sol\":2686:2687  1 */\n      0x01\n        /* \"verifier.sol\":2680:2688  input[1] */\n      0x04\n      dup2\n      lt\n      tag_71\n      jumpi\n      invalid\n    tag_71:\n      0x20\n      mul\n      add\n        /* \"verifier.sol\":2680:2695  input[1] = p1.Y */\n      dup2\n      dup2\n      mstore\n      pop\n      pop\n        /* \"verifier.sol\":2716:2718  p2 */\n      dup3\n        /* \"verifier.sol\":2716:2720  p2.X */\n      0x00\n      add\n      mload\n        /* \"verifier.sol\":2705:2710  input */\n      dup2\n        /* \"verifier.sol\":2711:2712  2 */\n      0x02\n        /* \"verifier.sol\":2705:2713  input[2] */\n      0x04\n      dup2\n      lt\n      tag_72\n      jumpi\n      invalid\n    tag_72:\n      0x20\n      mul\n      add\n        /* \"verifier.sol\":2705:2720  input[2] = p2.X */\n      dup2\n      dup2\n      mstore\n      pop\n      pop\n        /* \"verifier.sol\":2741:2743  p2 */\n      dup3\n        /* \"verifier.sol\":2741:2745  p2.Y */\n      0x20\n      add\n      mload\n        /* \"verifier.sol\":2730:2735  input */\n      dup2\n        /* \"verifier.sol\":2736:2737  3 */\n      0x03\n        /* \"verifier.sol\":2730:2738  input[3] */\n      0x04\n      dup2\n      lt\n      tag_73\n      jumpi\n      invalid\n    tag_73:\n      0x20\n      mul\n      add\n        /* \"verifier.sol\":2730:2745  input[3] = p2.Y */\n      dup2\n      dup2\n      mstore\n      pop\n      pop\n        /* \"verifier.sol\":2755:2767  bool success */\n      0x00\n        /* \"verifier.sol\":2859:2863  0x60 */\n      0x60\n        /* \"verifier.sol\":2856:2857  r */\n      dup4\n        /* \"verifier.sol\":2850:2854  0xc0 */\n      0xc0\n        /* \"verifier.sol\":2843:2848  input */\n      dup5\n        /* \"verifier.sol\":2840:2841  6 */\n      0x06\n        /* \"verifier.sol\":2833:2837  2000 */\n      0x07d0\n        /* \"verifier.sol\":2826:2831  gas() */\n      gas\n        /* \"verifier.sol\":2822:2838  sub(gas(), 2000) */\n      sub\n        /* \"verifier.sol\":2811:2864  staticcall(sub(gas(), 2000), 6, input, 0xc0, r, 0x60) */\n      staticcall\n        /* \"verifier.sol\":2800:2864  success := staticcall(sub(gas(), 2000), 6, input, 0xc0, r, 0x60) */\n      swap1\n      pop\n        /* \"verifier.sol\":2884:2891  success */\n      dup1\n        /* \"verifier.sol\":2897:2898  0 */\n      0x00\n        /* \"verifier.sol\":2892:2912  case 0 { invalid() } */\n      dup2\n      eq\n      tag_75\n      jumpi\n        /* \"verifier.sol\":2877:2912  switch success case 0 { invalid() } */\n      jump(tag_74)\n        /* \"verifier.sol\":2892:2912  case 0 { invalid() } */\n    tag_75:\n        /* \"verifier.sol\":2901:2910  invalid() */\n      invalid\n        /* \"verifier.sol\":2877:2912  switch success case 0 { invalid() } */\n    tag_74:\n      pop\n        /* \"verifier.sol\":2939:2946  success */\n      dup1\n        /* \"verifier.sol\":2931:2947  require(success) */\n      tag_76\n      jumpi\n      0x00\n      dup1\n      revert\n    tag_76:\n        /* \"verifier.sol\":2518:2954  function addition(G1Point memory p1, G1Point memory p2) internal view returns (G1Point memory r) {... */\n      pop\n      pop\n      swap3\n      swap2\n      pop\n      pop\n      jump\t// out\n        /* \"verifier.sol\":2127:2467  function negate(G1Point memory p) pure internal returns (G1Point memory) {... */\n    tag_41:\n        /* \"verifier.sol\":2184:2198  G1Point memory */\n      tag_77\n      tag_53\n      jump\t// in\n    tag_77:\n        /* \"verifier.sol\":2262:2268  uint q */\n      0x00\n        /* \"verifier.sol\":2271:2348  21888242871839275222246405745257275088696311157297823662689037894645226208583 */\n      0x30644e72e131a029b85045b68181585d97816a916871ca8d3c208c16d87cfd47\n        /* \"verifier.sol\":2262:2348  uint q = 21888242871839275222246405745257275088696311157297823662689037894645226208583 */\n      swap1\n      pop\n        /* \"verifier.sol\":2369:2370  0 */\n      0x00\n        /* \"verifier.sol\":2362:2363  p */\n      dup4\n        /* \"verifier.sol\":2362:2365  p.X */\n      0x00\n      add\n      mload\n        /* \"verifier.sol\":2362:2370  p.X == 0 */\n      eq\n        /* \"verifier.sol\":2362:2382  p.X == 0 && p.Y == 0 */\n      dup1\n      iszero\n      tag_79\n      jumpi\n      pop\n        /* \"verifier.sol\":2381:2382  0 */\n      0x00\n        /* \"verifier.sol\":2374:2375  p */\n      dup4\n        /* \"verifier.sol\":2374:2377  p.Y */\n      0x20\n      add\n      mload\n        /* \"verifier.sol\":2374:2382  p.Y == 0 */\n      eq\n        /* \"verifier.sol\":2362:2382  p.X == 0 && p.Y == 0 */\n    tag_79:\n        /* \"verifier.sol\":2358:2416  if (p.X == 0 && p.Y == 0)... */\n      iszero\n      tag_80\n      jumpi\n        /* \"verifier.sol\":2403:2416  G1Point(0, 0) */\n      mload(0x40)\n      dup1\n      0x40\n      add\n      0x40\n      mstore\n      dup1\n        /* \"verifier.sol\":2411:2412  0 */\n      0x00\n        /* \"verifier.sol\":2403:2416  G1Point(0, 0) */\n      dup2\n      mstore\n      0x20\n      add\n        /* \"verifier.sol\":2414:2415  0 */\n      0x00\n        /* \"verifier.sol\":2403:2416  G1Point(0, 0) */\n      dup2\n      mstore\n      pop\n        /* \"verifier.sol\":2396:2416  return G1Point(0, 0) */\n      swap2\n      pop\n      pop\n      jump(tag_78)\n        /* \"verifier.sol\":2358:2416  if (p.X == 0 && p.Y == 0)... */\n    tag_80:\n        /* \"verifier.sol\":2433:2460  G1Point(p.X, q - (p.Y % q)) */\n      mload(0x40)\n      dup1\n      0x40\n      add\n      0x40\n      mstore\n      dup1\n        /* \"verifier.sol\":2441:2442  p */\n      dup5\n        /* \"verifier.sol\":2441:2444  p.X */\n      0x00\n      add\n      mload\n        /* \"verifier.sol\":2433:2460  G1Point(p.X, q - (p.Y % q)) */\n      dup2\n      mstore\n      0x20\n      add\n        /* \"verifier.sol\":2457:2458  q */\n      dup3\n        /* \"verifier.sol\":2451:2452  p */\n      dup6\n        /* \"verifier.sol\":2451:2454  p.Y */\n      0x20\n      add\n      mload\n        /* \"verifier.sol\":2451:2458  p.Y % q */\n      dup2\n      tag_81\n      jumpi\n      invalid\n    tag_81:\n      mod\n        /* \"verifier.sol\":2446:2447  q */\n      dup4\n        /* \"verifier.sol\":2446:2459  q - (p.Y % q) */\n      sub\n        /* \"verifier.sol\":2433:2460  G1Point(p.X, q - (p.Y % q)) */\n      dup2\n      mstore\n      pop\n        /* \"verifier.sol\":2426:2460  return G1Point(p.X, q - (p.Y % q)) */\n      swap2\n      pop\n      pop\n        /* \"verifier.sol\":2127:2467  function negate(G1Point memory p) pure internal returns (G1Point memory) {... */\n    tag_78:\n      swap2\n      swap1\n      pop\n      jump\t// out\n        /* \"verifier.sol\":4642:5194  function pairingProd4(... */\n    tag_44:\n        /* \"verifier.sol\":4893:4897  bool */\n      0x00\n        /* \"verifier.sol\":4909:4928  G1Point[] memory p1 */\n      dup1\n        /* \"verifier.sol\":4945:4946  4 */\n      0x04\n        /* \"verifier.sol\":4931:4947  new G1Point[](4) */\n      0xffffffffffffffff\n      dup2\n      gt\n      dup1\n      iszero\n      tag_83\n      jumpi\n      0x00\n      dup1\n      revert\n    tag_83:\n      pop\n      mload(0x40)\n      swap1\n      dup1\n      dup3\n      mstore\n      dup1\n      0x20\n      mul\n      0x20\n      add\n      dup3\n      add\n      0x40\n      mstore\n      dup1\n      iszero\n      tag_84\n      jumpi\n      dup2\n      0x20\n      add\n    tag_85:\n      tag_86\n      tag_53\n      jump\t// in\n    tag_86:\n      dup2\n      mstore\n      0x20\n      add\n      swap1\n      0x01\n      swap1\n      sub\n      swap1\n      dup2\n      tag_85\n      jumpi\n      swap1\n      pop\n    tag_84:\n      pop\n        /* \"verifier.sol\":4909:4947  G1Point[] memory p1 = new G1Point[](4) */\n      swap1\n      pop\n        /* \"verifier.sol\":4957:4976  G2Point[] memory p2 */\n      0x00\n        /* \"verifier.sol\":4993:4994  4 */\n      0x04\n        /* \"verifier.sol\":4979:4995  new G2Point[](4) */\n      0xffffffffffffffff\n      dup2\n      gt\n      dup1\n      iszero\n      tag_87\n      jumpi\n      0x00\n      dup1\n      revert\n    tag_87:\n      pop\n      mload(0x40)\n      swap1\n      dup1\n      dup3\n      mstore\n      dup1\n      0x20\n      mul\n      0x20\n      add\n      dup3\n      add\n      0x40\n      mstore\n      dup1\n      iszero\n      tag_88\n      jumpi\n      dup2\n      0x20\n      add\n    tag_89:\n      tag_90\n      tag_91\n      jump\t// in\n    tag_90:\n      dup2\n      mstore\n      0x20\n      add\n      swap1\n      0x01\n      swap1\n      sub\n      swap1\n      dup2\n      tag_89\n      jumpi\n      swap1\n      pop\n    tag_88:\n      pop\n        /* \"verifier.sol\":4957:4995  G2Point[] memory p2 = new G2Point[](4) */\n      swap1\n      pop\n        /* \"verifier.sol\":5013:5015  a1 */\n      dup11\n        /* \"verifier.sol\":5005:5007  p1 */\n      dup3\n        /* \"verifier.sol\":5008:5009  0 */\n      0x00\n        /* \"verifier.sol\":5005:5010  p1[0] */\n      dup2\n      mload\n      dup2\n      lt\n      tag_92\n      jumpi\n      invalid\n    tag_92:\n      0x20\n      mul\n      0x20\n      add\n      add\n        /* \"verifier.sol\":5005:5015  p1[0] = a1 */\n      dup2\n      swap1\n      mstore\n      pop\n        /* \"verifier.sol\":5033:5035  b1 */\n      dup9\n        /* \"verifier.sol\":5025:5027  p1 */\n      dup3\n        /* \"verifier.sol\":5028:5029  1 */\n      0x01\n        /* \"verifier.sol\":5025:5030  p1[1] */\n      dup2\n      mload\n      dup2\n      lt\n      tag_93\n      jumpi\n      invalid\n    tag_93:\n      0x20\n      mul\n      0x20\n      add\n      add\n        /* \"verifier.sol\":5025:5035  p1[1] = b1 */\n      dup2\n      swap1\n      mstore\n      pop\n        /* \"verifier.sol\":5053:5055  c1 */\n      dup7\n        /* \"verifier.sol\":5045:5047  p1 */\n      dup3\n        /* \"verifier.sol\":5048:5049  2 */\n      0x02\n        /* \"verifier.sol\":5045:5050  p1[2] */\n      dup2\n      mload\n      dup2\n      lt\n      tag_94\n      jumpi\n      invalid\n    tag_94:\n      0x20\n      mul\n      0x20\n      add\n      add\n        /* \"verifier.sol\":5045:5055  p1[2] = c1 */\n      dup2\n      swap1\n      mstore\n      pop\n        /* \"verifier.sol\":5073:5075  d1 */\n      dup5\n        /* \"verifier.sol\":5065:5067  p1 */\n      dup3\n        /* \"verifier.sol\":5068:5069  3 */\n      0x03\n        /* \"verifier.sol\":5065:5070  p1[3] */\n      dup2\n      mload\n      dup2\n      lt\n      tag_95\n      jumpi\n      invalid\n    tag_95:\n      0x20\n      mul\n      0x20\n      add\n      add\n        /* \"verifier.sol\":5065:5075  p1[3] = d1 */\n      dup2\n      swap1\n      mstore\n      pop\n        /* \"verifier.sol\":5093:5095  a2 */\n      dup10\n        /* \"verifier.sol\":5085:5087  p2 */\n      dup2\n        /* \"verifier.sol\":5088:5089  0 */\n      0x00\n        /* \"verifier.sol\":5085:5090  p2[0] */\n      dup2\n      mload\n      dup2\n      lt\n      tag_96\n      jumpi\n      invalid\n    tag_96:\n      0x20\n      mul\n      0x20\n      add\n      add\n        /* \"verifier.sol\":5085:5095  p2[0] = a2 */\n      dup2\n      swap1\n      mstore\n      pop\n        /* \"verifier.sol\":5113:5115  b2 */\n      dup8\n        /* \"verifier.sol\":5105:5107  p2 */\n      dup2\n        /* \"verifier.sol\":5108:5109  1 */\n      0x01\n        /* \"verifier.sol\":5105:5110  p2[1] */\n      dup2\n      mload\n      dup2\n      lt\n      tag_97\n      jumpi\n      invalid\n    tag_97:\n      0x20\n      mul\n      0x20\n      add\n      add\n        /* \"verifier.sol\":5105:5115  p2[1] = b2 */\n      dup2\n      swap1\n      mstore\n      pop\n        /* \"verifier.sol\":5133:5135  c2 */\n      dup6\n        /* \"verifier.sol\":5125:5127  p2 */\n      dup2\n        /* \"verifier.sol\":5128:5129  2 */\n      0x02\n        /* \"verifier.sol\":5125:5130  p2[2] */\n      dup2\n      mload\n      dup2\n      lt\n      tag_98\n      jumpi\n      invalid\n    tag_98:\n      0x20\n      mul\n      0x20\n      add\n      add\n        /* \"verifier.sol\":5125:5135  p2[2] = c2 */\n      dup2\n      swap1\n      mstore\n      pop\n        /* \"verifier.sol\":5153:5155  d2 */\n      dup4\n        /* \"verifier.sol\":5145:5147  p2 */\n      dup2\n        /* \"verifier.sol\":5148:5149  3 */\n      0x03\n        /* \"verifier.sol\":5145:5150  p2[3] */\n      dup2\n      mload\n      dup2\n      lt\n      tag_99\n      jumpi\n      invalid\n    tag_99:\n      0x20\n      mul\n      0x20\n      add\n      add\n        /* \"verifier.sol\":5145:5155  p2[3] = d2 */\n      dup2\n      swap1\n      mstore\n      pop\n        /* \"verifier.sol\":5172:5187  pairing(p1, p2) */\n      tag_100\n        /* \"verifier.sol\":5180:5182  p1 */\n      dup3\n        /* \"verifier.sol\":5184:5186  p2 */\n      dup3\n        /* \"verifier.sol\":5172:5179  pairing */\n      tag_101\n        /* \"verifier.sol\":5172:5187  pairing(p1, p2) */\n      jump\t// in\n    tag_100:\n        /* \"verifier.sol\":5165:5187  return pairing(p1, p2) */\n      swap3\n      pop\n      pop\n      pop\n        /* \"verifier.sol\":4642:5194  function pairingProd4(... */\n      swap9\n      swap8\n      pop\n      pop\n      pop\n      pop\n      pop\n      pop\n      pop\n      pop\n      jump\t// out\n        /* \"verifier.sol\":3716:4574  function pairing(G1Point[] memory p1, G2Point[] memory p2) internal view returns (bool) {... */\n    tag_101:\n        /* \"verifier.sol\":3798:3802  bool */\n      0x00\n        /* \"verifier.sol\":3835:3837  p2 */\n      dup2\n        /* \"verifier.sol\":3835:3844  p2.length */\n      mload\n        /* \"verifier.sol\":3822:3824  p1 */\n      dup4\n        /* \"verifier.sol\":3822:3831  p1.length */\n      mload\n        /* \"verifier.sol\":3822:3844  p1.length == p2.length */\n      eq\n        /* \"verifier.sol\":3814:3845  require(p1.length == p2.length) */\n      tag_103\n      jumpi\n      0x00\n      dup1\n      revert\n    tag_103:\n        /* \"verifier.sol\":3855:3868  uint elements */\n      0x00\n        /* \"verifier.sol\":3871:3873  p1 */\n      dup4\n        /* \"verifier.sol\":3871:3880  p1.length */\n      mload\n        /* \"verifier.sol\":3855:3880  uint elements = p1.length */\n      swap1\n      pop\n        /* \"verifier.sol\":3890:3904  uint inputSize */\n      0x00\n        /* \"verifier.sol\":3918:3919  6 */\n      0x06\n        /* \"verifier.sol\":3907:3915  elements */\n      dup3\n        /* \"verifier.sol\":3907:3919  elements * 6 */\n      mul\n        /* \"verifier.sol\":3890:3919  uint inputSize = elements * 6 */\n      swap1\n      pop\n        /* \"verifier.sol\":3929:3948  uint[] memory input */\n      0x00\n        /* \"verifier.sol\":3962:3971  inputSize */\n      dup2\n        /* \"verifier.sol\":3951:3972  new uint[](inputSize) */\n      0xffffffffffffffff\n      dup2\n      gt\n      dup1\n      iszero\n      tag_104\n      jumpi\n      0x00\n      dup1\n      revert\n    tag_104:\n      pop\n      mload(0x40)\n      swap1\n      dup1\n      dup3\n      mstore\n      dup1\n      0x20\n      mul\n      0x20\n      add\n      dup3\n      add\n      0x40\n      mstore\n      dup1\n      iszero\n      tag_105\n      jumpi\n      dup2\n      0x20\n      add\n      0x20\n      dup3\n      mul\n      dup1\n      calldatasize\n      dup4\n      calldatacopy\n      dup1\n      dup3\n      add\n      swap2\n      pop\n      pop\n      swap1\n      pop\n    tag_105:\n      pop\n        /* \"verifier.sol\":3929:3972  uint[] memory input = new uint[](inputSize) */\n      swap1\n      pop\n        /* \"verifier.sol\":3987:3993  uint i */\n      0x00\n        /* \"verifier.sol\":3982:4281  for (uint i = 0; i < elements; i++) {... */\n    tag_106:\n        /* \"verifier.sol\":4003:4011  elements */\n      dup4\n        /* \"verifier.sol\":3999:4000  i */\n      dup2\n        /* \"verifier.sol\":3999:4011  i < elements */\n      lt\n        /* \"verifier.sol\":3982:4281  for (uint i = 0; i < elements; i++) {... */\n      iszero\n      tag_107\n      jumpi\n        /* \"verifier.sol\":4051:4053  p1 */\n      dup7\n        /* \"verifier.sol\":4054:4055  i */\n      dup2\n        /* \"verifier.sol\":4051:4056  p1[i] */\n      dup2\n      mload\n      dup2\n      lt\n      tag_109\n      jumpi\n      invalid\n    tag_109:\n      0x20\n      mul\n      0x20\n      add\n      add\n      mload\n        /* \"verifier.sol\":4051:4058  p1[i].X */\n      0x00\n      add\n      mload\n        /* \"verifier.sol\":4032:4037  input */\n      dup3\n        /* \"verifier.sol\":4046:4047  0 */\n      0x00\n        /* \"verifier.sol\":4042:4043  6 */\n      0x06\n        /* \"verifier.sol\":4038:4039  i */\n      dup5\n        /* \"verifier.sol\":4038:4043  i * 6 */\n      mul\n        /* \"verifier.sol\":4038:4047  i * 6 + 0 */\n      add\n        /* \"verifier.sol\":4032:4048  input[i * 6 + 0] */\n      dup2\n      mload\n      dup2\n      lt\n      tag_110\n      jumpi\n      invalid\n    tag_110:\n      0x20\n      mul\n      0x20\n      add\n      add\n        /* \"verifier.sol\":4032:4058  input[i * 6 + 0] = p1[i].X */\n      dup2\n      dup2\n      mstore\n      pop\n      pop\n        /* \"verifier.sol\":4091:4093  p1 */\n      dup7\n        /* \"verifier.sol\":4094:4095  i */\n      dup2\n        /* \"verifier.sol\":4091:4096  p1[i] */\n      dup2\n      mload\n      dup2\n      lt\n      tag_111\n      jumpi\n      invalid\n    tag_111:\n      0x20\n      mul\n      0x20\n      add\n      add\n      mload\n        /* \"verifier.sol\":4091:4098  p1[i].Y */\n      0x20\n      add\n      mload\n        /* \"verifier.sol\":4072:4077  input */\n      dup3\n        /* \"verifier.sol\":4086:4087  1 */\n      0x01\n        /* \"verifier.sol\":4082:4083  6 */\n      0x06\n        /* \"verifier.sol\":4078:4079  i */\n      dup5\n        /* \"verifier.sol\":4078:4083  i * 6 */\n      mul\n        /* \"verifier.sol\":4078:4087  i * 6 + 1 */\n      add\n        /* \"verifier.sol\":4072:4088  input[i * 6 + 1] */\n      dup2\n      mload\n      dup2\n      lt\n      tag_112\n      jumpi\n      invalid\n    tag_112:\n      0x20\n      mul\n      0x20\n      add\n      add\n        /* \"verifier.sol\":4072:4098  input[i * 6 + 1] = p1[i].Y */\n      dup2\n      dup2\n      mstore\n      pop\n      pop\n        /* \"verifier.sol\":4131:4133  p2 */\n      dup6\n        /* \"verifier.sol\":4134:4135  i */\n      dup2\n        /* \"verifier.sol\":4131:4136  p2[i] */\n      dup2\n      mload\n      dup2\n      lt\n      tag_113\n      jumpi\n      invalid\n    tag_113:\n      0x20\n      mul\n      0x20\n      add\n      add\n      mload\n        /* \"verifier.sol\":4131:4138  p2[i].X */\n      0x00\n      add\n      mload\n        /* \"verifier.sol\":4139:4140  1 */\n      0x01\n        /* \"verifier.sol\":4131:4141  p2[i].X[1] */\n      0x02\n      dup2\n      lt\n      tag_114\n      jumpi\n      invalid\n    tag_114:\n      0x20\n      mul\n      add\n      mload\n        /* \"verifier.sol\":4112:4117  input */\n      dup3\n        /* \"verifier.sol\":4126:4127  2 */\n      0x02\n        /* \"verifier.sol\":4122:4123  6 */\n      0x06\n        /* \"verifier.sol\":4118:4119  i */\n      dup5\n        /* \"verifier.sol\":4118:4123  i * 6 */\n      mul\n        /* \"verifier.sol\":4118:4127  i * 6 + 2 */\n      add\n        /* \"verifier.sol\":4112:4128  input[i * 6 + 2] */\n      dup2\n      mload\n      dup2\n      lt\n      tag_115\n      jumpi\n      invalid\n    tag_115:\n      0x20\n      mul\n      0x20\n      add\n      add\n        /* \"verifier.sol\":4112:4141  input[i * 6 + 2] = p2[i].X[1] */\n      dup2\n      dup2\n      mstore\n      pop\n      pop\n        /* \"verifier.sol\":4174:4176  p2 */\n      dup6\n        /* \"verifier.sol\":4177:4178  i */\n      dup2\n        /* \"verifier.sol\":4174:4179  p2[i] */\n      dup2\n      mload\n      dup2\n      lt\n      tag_116\n      jumpi\n      invalid\n    tag_116:\n      0x20\n      mul\n      0x20\n      add\n      add\n      mload\n        /* \"verifier.sol\":4174:4181  p2[i].X */\n      0x00\n      add\n      mload\n        /* \"verifier.sol\":4182:4183  0 */\n      0x00\n        /* \"verifier.sol\":4174:4184  p2[i].X[0] */\n      0x02\n      dup2\n      lt\n      tag_117\n      jumpi\n      invalid\n    tag_117:\n      0x20\n      mul\n      add\n      mload\n        /* \"verifier.sol\":4155:4160  input */\n      dup3\n        /* \"verifier.sol\":4169:4170  3 */\n      0x03\n        /* \"verifier.sol\":4165:4166  6 */\n      0x06\n        /* \"verifier.sol\":4161:4162  i */\n      dup5\n        /* \"verifier.sol\":4161:4166  i * 6 */\n      mul\n        /* \"verifier.sol\":4161:4170  i * 6 + 3 */\n      add\n        /* \"verifier.sol\":4155:4171  input[i * 6 + 3] */\n      dup2\n      mload\n      dup2\n      lt\n      tag_118\n      jumpi\n      invalid\n    tag_118:\n      0x20\n      mul\n      0x20\n      add\n      add\n        /* \"verifier.sol\":4155:4184  input[i * 6 + 3] = p2[i].X[0] */\n      dup2\n      dup2\n      mstore\n      pop\n      pop\n        /* \"verifier.sol\":4217:4219  p2 */\n      dup6\n        /* \"verifier.sol\":4220:4221  i */\n      dup2\n        /* \"verifier.sol\":4217:4222  p2[i] */\n      dup2\n      mload\n      dup2\n      lt\n      tag_119\n      jumpi\n      invalid\n    tag_119:\n      0x20\n      mul\n      0x20\n      add\n      add\n      mload\n        /* \"verifier.sol\":4217:4224  p2[i].Y */\n      0x20\n      add\n      mload\n        /* \"verifier.sol\":4225:4226  1 */\n      0x01\n        /* \"verifier.sol\":4217:4227  p2[i].Y[1] */\n      0x02\n      dup2\n      lt\n      tag_120\n      jumpi\n      invalid\n    tag_120:\n      0x20\n      mul\n      add\n      mload\n        /* \"verifier.sol\":4198:4203  input */\n      dup3\n        /* \"verifier.sol\":4212:4213  4 */\n      0x04\n        /* \"verifier.sol\":4208:4209  6 */\n      0x06\n        /* \"verifier.sol\":4204:4205  i */\n      dup5\n        /* \"verifier.sol\":4204:4209  i * 6 */\n      mul\n        /* \"verifier.sol\":4204:4213  i * 6 + 4 */\n      add\n        /* \"verifier.sol\":4198:4214  input[i * 6 + 4] */\n      dup2\n      mload\n      dup2\n      lt\n      tag_121\n      jumpi\n      invalid\n    tag_121:\n      0x20\n      mul\n      0x20\n      add\n      add\n        /* \"verifier.sol\":4198:4227  input[i * 6 + 4] = p2[i].Y[1] */\n      dup2\n      dup2\n      mstore\n      pop\n      pop\n        /* \"verifier.sol\":4260:4262  p2 */\n      dup6\n        /* \"verifier.sol\":4263:4264  i */\n      dup2\n        /* \"verifier.sol\":4260:4265  p2[i] */\n      dup2\n      mload\n      dup2\n      lt\n      tag_122\n      jumpi\n      invalid\n    tag_122:\n      0x20\n      mul\n      0x20\n      add\n      add\n      mload\n        /* \"verifier.sol\":4260:4267  p2[i].Y */\n      0x20\n      add\n      mload\n        /* \"verifier.sol\":4268:4269  0 */\n      0x00\n        /* \"verifier.sol\":4260:4270  p2[i].Y[0] */\n      0x02\n      dup2\n      lt\n      tag_123\n      jumpi\n      invalid\n    tag_123:\n      0x20\n      mul\n      add\n      mload\n        /* \"verifier.sol\":4241:4246  input */\n      dup3\n        /* \"verifier.sol\":4255:4256  5 */\n      0x05\n        /* \"verifier.sol\":4251:4252  6 */\n      0x06\n        /* \"verifier.sol\":4247:4248  i */\n      dup5\n        /* \"verifier.sol\":4247:4252  i * 6 */\n      mul\n        /* \"verifier.sol\":4247:4256  i * 6 + 5 */\n      add\n        /* \"verifier.sol\":4241:4257  input[i * 6 + 5] */\n      dup2\n      mload\n      dup2\n      lt\n      tag_124\n      jumpi\n      invalid\n    tag_124:\n      0x20\n      mul\n      0x20\n      add\n      add\n        /* \"verifier.sol\":4241:4270  input[i * 6 + 5] = p2[i].Y[0] */\n      dup2\n      dup2\n      mstore\n      pop\n      pop\n        /* \"verifier.sol\":4013:4016  i++ */\n      dup1\n      dup1\n      0x01\n      add\n      swap2\n      pop\n      pop\n        /* \"verifier.sol\":3982:4281  for (uint i = 0; i < elements; i++) {... */\n      jump(tag_106)\n    tag_107:\n      pop\n        /* \"verifier.sol\":4290:4308  uint[1] memory out */\n      tag_125\n      tag_126\n      jump\t// in\n    tag_125:\n        /* \"verifier.sol\":4318:4330  bool success */\n      0x00\n        /* \"verifier.sol\":4451:4455  0x20 */\n      0x20\n        /* \"verifier.sol\":4446:4449  out */\n      dup3\n        /* \"verifier.sol\":4439:4443  0x20 */\n      0x20\n        /* \"verifier.sol\":4428:4437  inputSize */\n      dup7\n        /* \"verifier.sol\":4424:4444  mul(inputSize, 0x20) */\n      mul\n        /* \"verifier.sol\":4417:4421  0x20 */\n      0x20\n        /* \"verifier.sol\":4410:4415  input */\n      dup7\n        /* \"verifier.sol\":4406:4422  add(input, 0x20) */\n      add\n        /* \"verifier.sol\":4403:4404  8 */\n      0x08\n        /* \"verifier.sol\":4396:4400  2000 */\n      0x07d0\n        /* \"verifier.sol\":4389:4394  gas() */\n      gas\n        /* \"verifier.sol\":4385:4401  sub(gas(), 2000) */\n      sub\n        /* \"verifier.sol\":4374:4456  staticcall(sub(gas(), 2000), 8, add(input, 0x20), mul(inputSize, 0x20), out, 0x20) */\n      staticcall\n        /* \"verifier.sol\":4363:4456  success := staticcall(sub(gas(), 2000), 8, add(input, 0x20), mul(inputSize, 0x20), out, 0x20) */\n      swap1\n      pop\n        /* \"verifier.sol\":4476:4483  success */\n      dup1\n        /* \"verifier.sol\":4489:4490  0 */\n      0x00\n        /* \"verifier.sol\":4484:4504  case 0 { invalid() } */\n      dup2\n      eq\n      tag_128\n      jumpi\n        /* \"verifier.sol\":4469:4504  switch success case 0 { invalid() } */\n      jump(tag_127)\n        /* \"verifier.sol\":4484:4504  case 0 { invalid() } */\n    tag_128:\n        /* \"verifier.sol\":4493:4502  invalid() */\n      invalid\n        /* \"verifier.sol\":4469:4504  switch success case 0 { invalid() } */\n    tag_127:\n      pop\n        /* \"verifier.sol\":4531:4538  success */\n      dup1\n        /* \"verifier.sol\":4523:4539  require(success) */\n      tag_129\n      jumpi\n      0x00\n      dup1\n      revert\n    tag_129:\n        /* \"verifier.sol\":4566:4567  0 */\n      0x00\n        /* \"verifier.sol\":4556:4559  out */\n      dup3\n        /* \"verifier.sol\":4560:4561  0 */\n      0x00\n        /* \"verifier.sol\":4556:4562  out[0] */\n      0x01\n      dup2\n      lt\n      tag_130\n      jumpi\n      invalid\n    tag_130:\n      0x20\n      mul\n      add\n      mload\n        /* \"verifier.sol\":4556:4567  out[0] != 0 */\n      eq\n      iszero\n        /* \"verifier.sol\":4549:4567  return out[0] != 0 */\n      swap6\n      pop\n      pop\n      pop\n      pop\n      pop\n      pop\n        /* \"verifier.sol\":3716:4574  function pairing(G1Point[] memory p1, G2Point[] memory p2) internal view returns (bool) {... */\n      swap3\n      swap2\n      pop\n      pop\n      jump\t// out\n    tag_47:\n      mload(0x40)\n      dup1\n      0xa0\n      add\n      0x40\n      mstore\n      dup1\n      tag_131\n      tag_53\n      jump\t// in\n    tag_131:\n      dup2\n      mstore\n      0x20\n      add\n      tag_132\n      tag_91\n      jump\t// in\n    tag_132:\n      dup2\n      mstore\n      0x20\n      add\n      tag_133\n      tag_91\n      jump\t// in\n    tag_133:\n      dup2\n      mstore\n      0x20\n      add\n      tag_134\n      tag_91\n      jump\t// in\n    tag_134:\n      dup2\n      mstore\n      0x20\n      add\n      0x60\n      dup2\n      mstore\n      pop\n      swap1\n      jump\t// out\n    tag_53:\n      mload(0x40)\n      dup1\n      0x40\n      add\n      0x40\n      mstore\n      dup1\n      0x00\n      dup2\n      mstore\n      0x20\n      add\n      0x00\n      dup2\n      mstore\n      pop\n      swap1\n      jump\t// out\n    tag_59:\n      mload(0x40)\n      dup1\n      0x60\n      add\n      0x40\n      mstore\n      dup1\n      0x03\n      swap1\n      0x20\n      dup3\n      mul\n      dup1\n      calldatasize\n      dup4\n      calldatacopy\n      dup1\n      dup3\n      add\n      swap2\n      pop\n      pop\n      swap1\n      pop\n      pop\n      swap1\n      jump\t// out\n    tag_69:\n      mload(0x40)\n      dup1\n      0x80\n      add\n      0x40\n      mstore\n      dup1\n      0x04\n      swap1\n      0x20\n      dup3\n      mul\n      dup1\n      calldatasize\n      dup4\n      calldatacopy\n      dup1\n      dup3\n      add\n      swap2\n      pop\n      pop\n      swap1\n      pop\n      pop\n      swap1\n      jump\t// out\n    tag_91:\n      mload(0x40)\n      dup1\n      0x40\n      add\n      0x40\n      mstore\n      dup1\n      tag_135\n      tag_136\n      jump\t// in\n    tag_135:\n      dup2\n      mstore\n      0x20\n      add\n      tag_137\n      tag_136\n      jump\t// in\n    tag_137:\n      dup2\n      mstore\n      pop\n      swap1\n      jump\t// out\n    tag_126:\n      mload(0x40)\n      dup1\n      0x20\n      add\n      0x40\n      mstore\n      dup1\n      0x01\n      swap1\n      0x20\n      dup3\n      mul\n      dup1\n      calldatasize\n      dup4\n      calldatacopy\n      dup1\n      dup3\n      add\n      swap2\n      pop\n      pop\n      swap1\n      pop\n      pop\n      swap1\n      jump\t// out\n    tag_136:\n      mload(0x40)\n      dup1\n      0x40\n      add\n      0x40\n      mstore\n      dup1\n      0x02\n      swap1\n      0x20\n      dup3\n      mul\n      dup1\n      calldatasize\n      dup4\n      calldatacopy\n      dup1\n      dup3\n      add\n      swap2\n      pop\n      pop\n      swap1\n      pop\n      pop\n      swap1\n      jump\t// out\n        /* \"#utility.yul\":25:590   */\n    tag_139:\n      0x00\n        /* \"#utility.yul\":144:222   */\n      tag_141\n        /* \"#utility.yul\":159:221   */\n      tag_142\n        /* \"#utility.yul\":214:220   */\n      dup5\n        /* \"#utility.yul\":159:221   */\n      tag_143\n      jump\t// in\n    tag_142:\n        /* \"#utility.yul\":144:222   */\n      tag_144\n      jump\t// in\n    tag_141:\n        /* \"#utility.yul\":135:222   */\n      swap1\n      pop\n        /* \"#utility.yul\":242:247   */\n      dup1\n        /* \"#utility.yul\":268:274   */\n      dup3\n        /* \"#utility.yul\":318:321   */\n      dup6\n        /* \"#utility.yul\":310:314   */\n      0x20\n        /* \"#utility.yul\":302:308   */\n      dup7\n        /* \"#utility.yul\":298:315   */\n      mul\n        /* \"#utility.yul\":293:296   */\n      dup3\n        /* \"#utility.yul\":289:316   */\n      add\n        /* \"#utility.yul\":286:322   */\n      gt\n        /* \"#utility.yul\":283:285   */\n      iszero\n      tag_145\n      jumpi\n        /* \"#utility.yul\":335:336   */\n      0x00\n        /* \"#utility.yul\":332:333   */\n      dup1\n        /* \"#utility.yul\":325:337   */\n      revert\n        /* \"#utility.yul\":283:285   */\n    tag_145:\n        /* \"#utility.yul\":363:364   */\n      0x00\n        /* \"#utility.yul\":348:584   */\n    tag_146:\n        /* \"#utility.yul\":373:379   */\n      dup6\n        /* \"#utility.yul\":370:371   */\n      dup2\n        /* \"#utility.yul\":367:380   */\n      lt\n        /* \"#utility.yul\":348:584   */\n      iszero\n      tag_148\n      jumpi\n        /* \"#utility.yul\":440:443   */\n      dup2\n        /* \"#utility.yul\":468:505   */\n      tag_149\n        /* \"#utility.yul\":501:504   */\n      dup9\n        /* \"#utility.yul\":489:499   */\n      dup3\n        /* \"#utility.yul\":468:505   */\n      tag_150\n      jump\t// in\n    tag_149:\n        /* \"#utility.yul\":463:466   */\n      dup5\n        /* \"#utility.yul\":456:506   */\n      mstore\n        /* \"#utility.yul\":535:539   */\n      0x20\n        /* \"#utility.yul\":530:533   */\n      dup5\n        /* \"#utility.yul\":526:540   */\n      add\n        /* \"#utility.yul\":519:540   */\n      swap4\n      pop\n        /* \"#utility.yul\":569:573   */\n      0x20\n        /* \"#utility.yul\":564:567   */\n      dup4\n        /* \"#utility.yul\":560:574   */\n      add\n        /* \"#utility.yul\":553:574   */\n      swap3\n      pop\n        /* \"#utility.yul\":408:584   */\n      pop\n        /* \"#utility.yul\":395:396   */\n      0x01\n        /* \"#utility.yul\":392:393   */\n      dup2\n        /* \"#utility.yul\":388:397   */\n      add\n        /* \"#utility.yul\":383:397   */\n      swap1\n      pop\n        /* \"#utility.yul\":348:584   */\n      jump(tag_146)\n    tag_148:\n        /* \"#utility.yul\":352:366   */\n      pop\n        /* \"#utility.yul\":125:590   */\n      pop\n      pop\n      swap4\n      swap3\n      pop\n      pop\n      pop\n      jump\t// out\n        /* \"#utility.yul\":614:1179   */\n    tag_151:\n      0x00\n        /* \"#utility.yul\":733:811   */\n      tag_153\n        /* \"#utility.yul\":748:810   */\n      tag_154\n        /* \"#utility.yul\":803:809   */\n      dup5\n        /* \"#utility.yul\":748:810   */\n      tag_155\n      jump\t// in\n    tag_154:\n        /* \"#utility.yul\":733:811   */\n      tag_144\n      jump\t// in\n    tag_153:\n        /* \"#utility.yul\":724:811   */\n      swap1\n      pop\n        /* \"#utility.yul\":831:836   */\n      dup1\n        /* \"#utility.yul\":857:863   */\n      dup3\n        /* \"#utility.yul\":907:910   */\n      dup6\n        /* \"#utility.yul\":899:903   */\n      0x20\n        /* \"#utility.yul\":891:897   */\n      dup7\n        /* \"#utility.yul\":887:904   */\n      mul\n        /* \"#utility.yul\":882:885   */\n      dup3\n        /* \"#utility.yul\":878:905   */\n      add\n        /* \"#utility.yul\":875:911   */\n      gt\n        /* \"#utility.yul\":872:874   */\n      iszero\n      tag_156\n      jumpi\n        /* \"#utility.yul\":924:925   */\n      0x00\n        /* \"#utility.yul\":921:922   */\n      dup1\n        /* \"#utility.yul\":914:926   */\n      revert\n        /* \"#utility.yul\":872:874   */\n    tag_156:\n        /* \"#utility.yul\":952:953   */\n      0x00\n        /* \"#utility.yul\":937:1173   */\n    tag_157:\n        /* \"#utility.yul\":962:968   */\n      dup6\n        /* \"#utility.yul\":959:960   */\n      dup2\n        /* \"#utility.yul\":956:969   */\n      lt\n        /* \"#utility.yul\":937:1173   */\n      iszero\n      tag_159\n      jumpi\n        /* \"#utility.yul\":1029:1032   */\n      dup2\n        /* \"#utility.yul\":1057:1094   */\n      tag_160\n        /* \"#utility.yul\":1090:1093   */\n      dup9\n        /* \"#utility.yul\":1078:1088   */\n      dup3\n        /* \"#utility.yul\":1057:1094   */\n      tag_150\n      jump\t// in\n    tag_160:\n        /* \"#utility.yul\":1052:1055   */\n      dup5\n        /* \"#utility.yul\":1045:1095   */\n      mstore\n        /* \"#utility.yul\":1124:1128   */\n      0x20\n        /* \"#utility.yul\":1119:1122   */\n      dup5\n        /* \"#utility.yul\":1115:1129   */\n      add\n        /* \"#utility.yul\":1108:1129   */\n      swap4\n      pop\n        /* \"#utility.yul\":1158:1162   */\n      0x20\n        /* \"#utility.yul\":1153:1156   */\n      dup4\n        /* \"#utility.yul\":1149:1163   */\n      add\n        /* \"#utility.yul\":1142:1163   */\n      swap3\n      pop\n        /* \"#utility.yul\":997:1173   */\n      pop\n        /* \"#utility.yul\":984:985   */\n      0x01\n        /* \"#utility.yul\":981:982   */\n      dup2\n        /* \"#utility.yul\":977:986   */\n      add\n        /* \"#utility.yul\":972:986   */\n      swap1\n      pop\n        /* \"#utility.yul\":937:1173   */\n      jump(tag_157)\n    tag_159:\n        /* \"#utility.yul\":941:955   */\n      pop\n        /* \"#utility.yul\":714:1179   */\n      pop\n      pop\n      swap4\n      swap3\n      pop\n      pop\n      pop\n      jump\t// out\n        /* \"#utility.yul\":1203:1475   */\n    tag_161:\n      0x00\n        /* \"#utility.yul\":1321:1324   */\n      dup3\n        /* \"#utility.yul\":1314:1318   */\n      0x1f\n        /* \"#utility.yul\":1306:1312   */\n      dup4\n        /* \"#utility.yul\":1302:1319   */\n      add\n        /* \"#utility.yul\":1298:1325   */\n      slt\n        /* \"#utility.yul\":1288:1290   */\n      tag_163\n      jumpi\n        /* \"#utility.yul\":1339:1340   */\n      0x00\n        /* \"#utility.yul\":1336:1337   */\n      dup1\n        /* \"#utility.yul\":1329:1341   */\n      revert\n        /* \"#utility.yul\":1288:1290   */\n    tag_163:\n        /* \"#utility.yul\":1366:1370   */\n      0x01\n        /* \"#utility.yul\":1388:1469   */\n      tag_164\n        /* \"#utility.yul\":1465:1468   */\n      dup5\n        /* \"#utility.yul\":1457:1463   */\n      dup3\n        /* \"#utility.yul\":1449:1455   */\n      dup6\n        /* \"#utility.yul\":1388:1469   */\n      tag_139\n      jump\t// in\n    tag_164:\n        /* \"#utility.yul\":1379:1469   */\n      swap2\n      pop\n        /* \"#utility.yul\":1278:1475   */\n      pop\n      swap3\n      swap2\n      pop\n      pop\n      jump\t// out\n        /* \"#utility.yul\":1499:1771   */\n    tag_165:\n      0x00\n        /* \"#utility.yul\":1617:1620   */\n      dup3\n        /* \"#utility.yul\":1610:1614   */\n      0x1f\n        /* \"#utility.yul\":1602:1608   */\n      dup4\n        /* \"#utility.yul\":1598:1615   */\n      add\n        /* \"#utility.yul\":1594:1621   */\n      slt\n        /* \"#utility.yul\":1584:1586   */\n      tag_167\n      jumpi\n        /* \"#utility.yul\":1635:1636   */\n      0x00\n        /* \"#utility.yul\":1632:1633   */\n      dup1\n        /* \"#utility.yul\":1625:1637   */\n      revert\n        /* \"#utility.yul\":1584:1586   */\n    tag_167:\n        /* \"#utility.yul\":1662:1666   */\n      0x02\n        /* \"#utility.yul\":1684:1765   */\n      tag_168\n        /* \"#utility.yul\":1761:1764   */\n      dup5\n        /* \"#utility.yul\":1753:1759   */\n      dup3\n        /* \"#utility.yul\":1745:1751   */\n      dup6\n        /* \"#utility.yul\":1684:1765   */\n      tag_151\n      jump\t// in\n    tag_168:\n        /* \"#utility.yul\":1675:1765   */\n      swap2\n      pop\n        /* \"#utility.yul\":1574:1771   */\n      pop\n      swap3\n      swap2\n      pop\n      pop\n      jump\t// out\n        /* \"#utility.yul\":1807:2304   */\n    tag_169:\n      0x00\n        /* \"#utility.yul\":1922:1926   */\n      0x40\n        /* \"#utility.yul\":1910:1919   */\n      dup3\n        /* \"#utility.yul\":1905:1908   */\n      dup5\n        /* \"#utility.yul\":1901:1920   */\n      sub\n        /* \"#utility.yul\":1897:1927   */\n      slt\n        /* \"#utility.yul\":1894:1896   */\n      iszero\n      tag_171\n      jumpi\n        /* \"#utility.yul\":1940:1941   */\n      0x00\n        /* \"#utility.yul\":1937:1938   */\n      dup1\n        /* \"#utility.yul\":1930:1942   */\n      revert\n        /* \"#utility.yul\":1894:1896   */\n    tag_171:\n        /* \"#utility.yul\":1962:1982   */\n      tag_172\n        /* \"#utility.yul\":1977:1981   */\n      0x40\n        /* \"#utility.yul\":1962:1982   */\n      tag_144\n      jump\t// in\n    tag_172:\n        /* \"#utility.yul\":1953:1982   */\n      swap1\n      pop\n        /* \"#utility.yul\":2038:2039   */\n      0x00\n        /* \"#utility.yul\":2078:2127   */\n      tag_173\n        /* \"#utility.yul\":2123:2126   */\n      dup5\n        /* \"#utility.yul\":2114:2120   */\n      dup3\n        /* \"#utility.yul\":2103:2112   */\n      dup6\n        /* \"#utility.yul\":2099:2121   */\n      add\n        /* \"#utility.yul\":2078:2127   */\n      tag_150\n      jump\t// in\n    tag_173:\n        /* \"#utility.yul\":2071:2075   */\n      0x00\n        /* \"#utility.yul\":2064:2069   */\n      dup4\n        /* \"#utility.yul\":2060:2076   */\n      add\n        /* \"#utility.yul\":2053:2128   */\n      mstore\n        /* \"#utility.yul\":1992:2139   */\n      pop\n        /* \"#utility.yul\":2195:2197   */\n      0x20\n        /* \"#utility.yul\":2236:2285   */\n      tag_174\n        /* \"#utility.yul\":2281:2284   */\n      dup5\n        /* \"#utility.yul\":2272:2278   */\n      dup3\n        /* \"#utility.yul\":2261:2270   */\n      dup6\n        /* \"#utility.yul\":2257:2279   */\n      add\n        /* \"#utility.yul\":2236:2285   */\n      tag_150\n      jump\t// in\n    tag_174:\n        /* \"#utility.yul\":2229:2233   */\n      0x20\n        /* \"#utility.yul\":2222:2227   */\n      dup4\n        /* \"#utility.yul\":2218:2234   */\n      add\n        /* \"#utility.yul\":2211:2286   */\n      mstore\n        /* \"#utility.yul\":2149:2297   */\n      pop\n        /* \"#utility.yul\":1884:2304   */\n      swap3\n      swap2\n      pop\n      pop\n      jump\t// out\n        /* \"#utility.yul\":2340:2884   */\n    tag_175:\n      0x00\n        /* \"#utility.yul\":2456:2460   */\n      0x80\n        /* \"#utility.yul\":2444:2453   */\n      dup3\n        /* \"#utility.yul\":2439:2442   */\n      dup5\n        /* \"#utility.yul\":2435:2454   */\n      sub\n        /* \"#utility.yul\":2431:2461   */\n      slt\n        /* \"#utility.yul\":2428:2430   */\n      iszero\n      tag_177\n      jumpi\n        /* \"#utility.yul\":2474:2475   */\n      0x00\n        /* \"#utility.yul\":2471:2472   */\n      dup1\n        /* \"#utility.yul\":2464:2476   */\n      revert\n        /* \"#utility.yul\":2428:2430   */\n    tag_177:\n        /* \"#utility.yul\":2496:2516   */\n      tag_178\n        /* \"#utility.yul\":2511:2515   */\n      0x40\n        /* \"#utility.yul\":2496:2516   */\n      tag_144\n      jump\t// in\n    tag_178:\n        /* \"#utility.yul\":2487:2516   */\n      swap1\n      pop\n        /* \"#utility.yul\":2572:2573   */\n      0x00\n        /* \"#utility.yul\":2612:2684   */\n      tag_179\n        /* \"#utility.yul\":2680:2683   */\n      dup5\n        /* \"#utility.yul\":2671:2677   */\n      dup3\n        /* \"#utility.yul\":2660:2669   */\n      dup6\n        /* \"#utility.yul\":2656:2678   */\n      add\n        /* \"#utility.yul\":2612:2684   */\n      tag_165\n      jump\t// in\n    tag_179:\n        /* \"#utility.yul\":2605:2609   */\n      0x00\n        /* \"#utility.yul\":2598:2603   */\n      dup4\n        /* \"#utility.yul\":2594:2610   */\n      add\n        /* \"#utility.yul\":2587:2685   */\n      mstore\n        /* \"#utility.yul\":2526:2696   */\n      pop\n        /* \"#utility.yul\":2752:2754   */\n      0x40\n        /* \"#utility.yul\":2793:2865   */\n      tag_180\n        /* \"#utility.yul\":2861:2864   */\n      dup5\n        /* \"#utility.yul\":2852:2858   */\n      dup3\n        /* \"#utility.yul\":2841:2850   */\n      dup6\n        /* \"#utility.yul\":2837:2859   */\n      add\n        /* \"#utility.yul\":2793:2865   */\n      tag_165\n      jump\t// in\n    tag_180:\n        /* \"#utility.yul\":2786:2790   */\n      0x20\n        /* \"#utility.yul\":2779:2784   */\n      dup4\n        /* \"#utility.yul\":2775:2791   */\n      add\n        /* \"#utility.yul\":2768:2866   */\n      mstore\n        /* \"#utility.yul\":2706:2877   */\n      pop\n        /* \"#utility.yul\":2418:2884   */\n      swap3\n      swap2\n      pop\n      pop\n      jump\t// out\n        /* \"#utility.yul\":2919:3644   */\n    tag_181:\n      0x00\n        /* \"#utility.yul\":3034:3040   */\n      0x0100\n        /* \"#utility.yul\":3022:3031   */\n      dup3\n        /* \"#utility.yul\":3017:3020   */\n      dup5\n        /* \"#utility.yul\":3013:3032   */\n      sub\n        /* \"#utility.yul\":3009:3041   */\n      slt\n        /* \"#utility.yul\":3006:3008   */\n      iszero\n      tag_183\n      jumpi\n        /* \"#utility.yul\":3054:3055   */\n      0x00\n        /* \"#utility.yul\":3051:3052   */\n      dup1\n        /* \"#utility.yul\":3044:3056   */\n      revert\n        /* \"#utility.yul\":3006:3008   */\n    tag_183:\n        /* \"#utility.yul\":3076:3096   */\n      tag_184\n        /* \"#utility.yul\":3091:3095   */\n      0x60\n        /* \"#utility.yul\":3076:3096   */\n      tag_144\n      jump\t// in\n    tag_184:\n        /* \"#utility.yul\":3067:3096   */\n      swap1\n      pop\n        /* \"#utility.yul\":3152:3153   */\n      0x00\n        /* \"#utility.yul\":3192:3263   */\n      tag_185\n        /* \"#utility.yul\":3259:3262   */\n      dup5\n        /* \"#utility.yul\":3250:3256   */\n      dup3\n        /* \"#utility.yul\":3239:3248   */\n      dup6\n        /* \"#utility.yul\":3235:3257   */\n      add\n        /* \"#utility.yul\":3192:3263   */\n      tag_169\n      jump\t// in\n    tag_185:\n        /* \"#utility.yul\":3185:3189   */\n      0x00\n        /* \"#utility.yul\":3178:3183   */\n      dup4\n        /* \"#utility.yul\":3174:3190   */\n      add\n        /* \"#utility.yul\":3167:3264   */\n      mstore\n        /* \"#utility.yul\":3106:3275   */\n      pop\n        /* \"#utility.yul\":3331:3333   */\n      0x40\n        /* \"#utility.yul\":3372:3444   */\n      tag_186\n        /* \"#utility.yul\":3440:3443   */\n      dup5\n        /* \"#utility.yul\":3431:3437   */\n      dup3\n        /* \"#utility.yul\":3420:3429   */\n      dup6\n        /* \"#utility.yul\":3416:3438   */\n      add\n        /* \"#utility.yul\":3372:3444   */\n      tag_175\n      jump\t// in\n    tag_186:\n        /* \"#utility.yul\":3365:3369   */\n      0x20\n        /* \"#utility.yul\":3358:3363   */\n      dup4\n        /* \"#utility.yul\":3354:3370   */\n      add\n        /* \"#utility.yul\":3347:3445   */\n      mstore\n        /* \"#utility.yul\":3285:3456   */\n      pop\n        /* \"#utility.yul\":3512:3515   */\n      0xc0\n        /* \"#utility.yul\":3554:3625   */\n      tag_187\n        /* \"#utility.yul\":3621:3624   */\n      dup5\n        /* \"#utility.yul\":3612:3618   */\n      dup3\n        /* \"#utility.yul\":3601:3610   */\n      dup6\n        /* \"#utility.yul\":3597:3619   */\n      add\n        /* \"#utility.yul\":3554:3625   */\n      tag_169\n      jump\t// in\n    tag_187:\n        /* \"#utility.yul\":3547:3551   */\n      0x40\n        /* \"#utility.yul\":3540:3545   */\n      dup4\n        /* \"#utility.yul\":3536:3552   */\n      add\n        /* \"#utility.yul\":3529:3626   */\n      mstore\n        /* \"#utility.yul\":3466:3637   */\n      pop\n        /* \"#utility.yul\":2996:3644   */\n      swap3\n      swap2\n      pop\n      pop\n      jump\t// out\n        /* \"#utility.yul\":3650:3789   */\n    tag_150:\n      0x00\n        /* \"#utility.yul\":3734:3740   */\n      dup2\n        /* \"#utility.yul\":3721:3741   */\n      calldataload\n        /* \"#utility.yul\":3712:3741   */\n      swap1\n      pop\n        /* \"#utility.yul\":3750:3783   */\n      tag_189\n        /* \"#utility.yul\":3777:3782   */\n      dup2\n        /* \"#utility.yul\":3750:3783   */\n      tag_190\n      jump\t// in\n    tag_189:\n        /* \"#utility.yul\":3702:3789   */\n      swap3\n      swap2\n      pop\n      pop\n      jump\t// out\n        /* \"#utility.yul\":3795:4294   */\n    tag_6:\n      0x00\n      dup1\n        /* \"#utility.yul\":3965:3968   */\n      0x0120\n        /* \"#utility.yul\":3953:3962   */\n      dup4\n        /* \"#utility.yul\":3944:3951   */\n      dup6\n        /* \"#utility.yul\":3940:3963   */\n      sub\n        /* \"#utility.yul\":3936:3969   */\n      slt\n        /* \"#utility.yul\":3933:3935   */\n      iszero\n      tag_192\n      jumpi\n        /* \"#utility.yul\":3982:3983   */\n      0x00\n        /* \"#utility.yul\":3979:3980   */\n      dup1\n        /* \"#utility.yul\":3972:3984   */\n      revert\n        /* \"#utility.yul\":3933:3935   */\n    tag_192:\n        /* \"#utility.yul\":4025:4026   */\n      0x00\n        /* \"#utility.yul\":4050:4125   */\n      tag_193\n        /* \"#utility.yul\":4117:4124   */\n      dup6\n        /* \"#utility.yul\":4108:4114   */\n      dup3\n        /* \"#utility.yul\":4097:4106   */\n      dup7\n        /* \"#utility.yul\":4093:4115   */\n      add\n        /* \"#utility.yul\":4050:4125   */\n      tag_181\n      jump\t// in\n    tag_193:\n        /* \"#utility.yul\":4040:4125   */\n      swap3\n      pop\n        /* \"#utility.yul\":3996:4135   */\n      pop\n        /* \"#utility.yul\":4174:4177   */\n      0x0100\n        /* \"#utility.yul\":4201:4277   */\n      tag_194\n        /* \"#utility.yul\":4269:4276   */\n      dup6\n        /* \"#utility.yul\":4260:4266   */\n      dup3\n        /* \"#utility.yul\":4249:4258   */\n      dup7\n        /* \"#utility.yul\":4245:4267   */\n      add\n        /* \"#utility.yul\":4201:4277   */\n      tag_161\n      jump\t// in\n    tag_194:\n        /* \"#utility.yul\":4191:4277   */\n      swap2\n      pop\n        /* \"#utility.yul\":4145:4287   */\n      pop\n        /* \"#utility.yul\":3923:4294   */\n      swap3\n      pop\n      swap3\n      swap1\n      pop\n      jump\t// out\n        /* \"#utility.yul\":4300:4409   */\n    tag_195:\n        /* \"#utility.yul\":4381:4402   */\n      tag_197\n        /* \"#utility.yul\":4396:4401   */\n      dup2\n        /* \"#utility.yul\":4381:4402   */\n      tag_198\n      jump\t// in\n    tag_197:\n        /* \"#utility.yul\":4376:4379   */\n      dup3\n        /* \"#utility.yul\":4369:4403   */\n      mstore\n        /* \"#utility.yul\":4359:4409   */\n      pop\n      pop\n      jump\t// out\n        /* \"#utility.yul\":4415:4625   */\n    tag_9:\n      0x00\n        /* \"#utility.yul\":4540:4542   */\n      0x20\n        /* \"#utility.yul\":4529:4538   */\n      dup3\n        /* \"#utility.yul\":4525:4543   */\n      add\n        /* \"#utility.yul\":4517:4543   */\n      swap1\n      pop\n        /* \"#utility.yul\":4553:4618   */\n      tag_200\n        /* \"#utility.yul\":4615:4616   */\n      0x00\n        /* \"#utility.yul\":4604:4613   */\n      dup4\n        /* \"#utility.yul\":4600:4617   */\n      add\n        /* \"#utility.yul\":4591:4597   */\n      dup5\n        /* \"#utility.yul\":4553:4618   */\n      tag_195\n      jump\t// in\n    tag_200:\n        /* \"#utility.yul\":4507:4625   */\n      swap3\n      swap2\n      pop\n      pop\n      jump\t// out\n        /* \"#utility.yul\":4631:4909   */\n    tag_144:\n      0x00\n        /* \"#utility.yul\":4697:4699   */\n      0x40\n        /* \"#utility.yul\":4691:4700   */\n      mload\n        /* \"#utility.yul\":4681:4700   */\n      swap1\n      pop\n        /* \"#utility.yul\":4739:4743   */\n      dup2\n        /* \"#utility.yul\":4731:4737   */\n      dup2\n        /* \"#utility.yul\":4727:4744   */\n      add\n        /* \"#utility.yul\":4846:4852   */\n      dup2\n        /* \"#utility.yul\":4834:4844   */\n      dup2\n        /* \"#utility.yul\":4831:4853   */\n      lt\n        /* \"#utility.yul\":4810:4828   */\n      0xffffffffffffffff\n        /* \"#utility.yul\":4798:4808   */\n      dup3\n        /* \"#utility.yul\":4795:4829   */\n      gt\n        /* \"#utility.yul\":4792:4854   */\n      or\n        /* \"#utility.yul\":4789:4791   */\n      iszero\n      tag_202\n      jumpi\n        /* \"#utility.yul\":4857:4870   */\n      tag_203\n      tag_204\n      jump\t// in\n    tag_203:\n        /* \"#utility.yul\":4789:4791   */\n    tag_202:\n        /* \"#utility.yul\":4892:4902   */\n      dup1\n        /* \"#utility.yul\":4888:4890   */\n      0x40\n        /* \"#utility.yul\":4881:4903   */\n      mstore\n        /* \"#utility.yul\":4671:4909   */\n      pop\n      swap2\n      swap1\n      pop\n      jump\t// out\n        /* \"#utility.yul\":4915:5159   */\n    tag_143:\n      0x00\n        /* \"#utility.yul\":5080:5098   */\n      0xffffffffffffffff\n        /* \"#utility.yul\":5072:5078   */\n      dup3\n        /* \"#utility.yul\":5069:5099   */\n      gt\n        /* \"#utility.yul\":5066:5068   */\n      iszero\n      tag_206\n      jumpi\n        /* \"#utility.yul\":5102:5115   */\n      tag_207\n      tag_204\n      jump\t// in\n    tag_207:\n        /* \"#utility.yul\":5066:5068   */\n    tag_206:\n        /* \"#utility.yul\":5147:5151   */\n      0x20\n        /* \"#utility.yul\":5139:5145   */\n      dup3\n        /* \"#utility.yul\":5135:5152   */\n      mul\n        /* \"#utility.yul\":5127:5152   */\n      swap1\n      pop\n        /* \"#utility.yul\":4995:5159   */\n      swap2\n      swap1\n      pop\n      jump\t// out\n        /* \"#utility.yul\":5165:5409   */\n    tag_155:\n      0x00\n        /* \"#utility.yul\":5330:5348   */\n      0xffffffffffffffff\n        /* \"#utility.yul\":5322:5328   */\n      dup3\n        /* \"#utility.yul\":5319:5349   */\n      gt\n        /* \"#utility.yul\":5316:5318   */\n      iszero\n      tag_209\n      jumpi\n        /* \"#utility.yul\":5352:5365   */\n      tag_210\n      tag_204\n      jump\t// in\n    tag_210:\n        /* \"#utility.yul\":5316:5318   */\n    tag_209:\n        /* \"#utility.yul\":5397:5401   */\n      0x20\n        /* \"#utility.yul\":5389:5395   */\n      dup3\n        /* \"#utility.yul\":5385:5402   */\n      mul\n        /* \"#utility.yul\":5377:5402   */\n      swap1\n      pop\n        /* \"#utility.yul\":5245:5409   */\n      swap2\n      swap1\n      pop\n      jump\t// out\n        /* \"#utility.yul\":5415:5505   */\n    tag_198:\n      0x00\n        /* \"#utility.yul\":5492:5497   */\n      dup2\n        /* \"#utility.yul\":5485:5498   */\n      iszero\n        /* \"#utility.yul\":5478:5499   */\n      iszero\n        /* \"#utility.yul\":5467:5499   */\n      swap1\n      pop\n        /* \"#utility.yul\":5457:5505   */\n      swap2\n      swap1\n      pop\n      jump\t// out\n        /* \"#utility.yul\":5511:5588   */\n    tag_212:\n      0x00\n        /* \"#utility.yul\":5577:5582   */\n      dup2\n        /* \"#utility.yul\":5566:5582   */\n      swap1\n      pop\n        /* \"#utility.yul\":5556:5588   */\n      swap2\n      swap1\n      pop\n      jump\t// out\n        /* \"#utility.yul\":5594:5642   */\n    tag_204:\n        /* \"#utility.yul\":5627:5636   */\n      invalid\n        /* \"#utility.yul\":5648:5770   */\n    tag_190:\n        /* \"#utility.yul\":5721:5745   */\n      tag_216\n        /* \"#utility.yul\":5739:5744   */\n      dup2\n        /* \"#utility.yul\":5721:5745   */\n      tag_212\n      jump\t// in\n    tag_216:\n        /* \"#utility.yul\":5714:5719   */\n      dup2\n        /* \"#utility.yul\":5711:5746   */\n      eq\n        /* \"#utility.yul\":5701:5703   */\n      tag_217\n      jumpi\n        /* \"#utility.yul\":5760:5761   */\n      0x00\n        /* \"#utility.yul\":5757:5758   */\n      dup1\n        /* \"#utility.yul\":5750:5762   */\n      revert\n        /* \"#utility.yul\":5701:5703   */\n    tag_217:\n        /* \"#utility.yul\":5691:5770   */\n      pop\n      jump\t// out\n\n    auxdata: 0xa26469706673582212209896fa3ff8c93b5067d5d6eed5d4dcdc635003409631b6ab969a8ebe5c85d39764736f6c63430007060033\n}\n",
				"bytecode": {
					"linkReferences": {},
					"object": "608060405234801561001057600080fd5b506110bf806100206000396000f3fe608060405234801561001057600080fd5b506004361061002b5760003560e01c8063f48d772914610030575b600080fd5b61004a60048036038101906100459190610f75565b610060565b6040516100579190610fc2565b60405180910390f35b600080600167ffffffffffffffff8111801561007b57600080fd5b506040519080825280602002602001820160405280156100aa5781602001602082028036833780820191505090505b50905060005b60018110156100ef578381600181106100c557fe5b60200201518282815181106100d657fe5b60200260200101818152505080806001019150506100b0565b5060006100fc8286610118565b141561010c576001915050610112565b60009150505b92915050565b6000807f30644e72e131a029b85045b68181585d2833e84879b9709143e1f593f00000019050600061014861027b565b905080608001515160018651011461015f57600080fd5b60006040518060400160405280600081526020016000815250905060005b86518110156101f4578387828151811061019357fe5b6020026020010151106101a557600080fd5b6101e5826101e0856080015160018501815181106101bf57fe5b60200260200101518a85815181106101d357fe5b602002602001015161066f565b610701565b9150808060010191505061017d565b5061021781836080015160008151811061020a57fe5b6020026020010151610701565b905061025d8560000151866020015161022f846107b2565b85604001516102418a604001516107b2565b876060015161025389600001516107b2565b896020015161084c565b61026d5760019350505050610275565b600093505050505b92915050565b610283610c44565b60405180604001604052807f279e985f7f112c664efb572451fd77300d02c8dd247ef3cd181508a1c72c09ec81526020017f2b4f0c7db13f64da24ad741a18a874e184661af7acd3e65e3c9a730370fb969a8152508160000181905250604051806040016040528060405180604001604052807f0d3b4c19daa587b054d7f39cf23d82ae42ac4e0c881517f3e69b467fc1e57e1881526020017f0cfeaed21ec45b3cc31514a05e86ebed17e684570b05d398079d076a7a2674fa815250815260200160405180604001604052807f1fc8d5ccde6ffabbd9f55b8f87f9f8aca6a51766f2981651b31ce47a1c6434fb81526020017f22ba52e7737d0099e519711615b272f7f3b9c17819a28da09de9488289e02ed88152508152508160200181905250604051806040016040528060405180604001604052807f09111e364336c2e286515c87c6f06c6487af2be7a2c5717bb9af2d9e99dbe3d181526020017f1ac8f6cd5fc86962ec711262c8a87c71831cc858a17e00200a6af066a1038857815250815260200160405180604001604052807f17f52a350e4c41d3987ef3391a58055716d3553a2a3c97d6f7492e8ab677f0b681526020017f2f9d19f1218c003002d09237603a7b94c389004aad77696651e35dd01b6a7b728152508152508160400181905250604051806040016040528060405180604001604052807f23d394975811539663b0780ee63a712ea26d742d6b55c9f96337f24990f22f4881526020017f065aa761e9103f6686ff4cffd6a1f37265cc874613b55b6ef17ab60d9b6ef074815250815260200160405180604001604052807f296fb02adf5f670c7beb39875dc82cf21b5cee85dfde7ea4d978a84c59d1181981526020017f09cb81cb080ed79887edd964d107a6fc21b9cec13511ce9f5a51febc5430650c8152508152508160600181905250600267ffffffffffffffff8111801561054757600080fd5b5060405190808252806020026020018201604052801561058157816020015b61056e610c8b565b8152602001906001900390816105665790505b50816080018190525060405180604001604052807f0d908a5650ad5de280ca9a0cdfa73cc4febe207ccef7be41f18ef26d6cb097e281526020017f2498d0c069b66f8a1645e975e52b8a3f16c4a8a94b79e3eb9ecd7d449821c9ed81525081608001516000815181106105f057fe5b602002602001018190525060405180604001604052807f0e02fa37c101f36563589a92ebb4326fa27dfd4342754511f95428462d7812b781526020017f2e832d29854f8365b69b63ae8278a89a1767e7649cd732f26b8d7eceadefe592815250816080015160018151811061066157fe5b602002602001018190525090565b610677610c8b565b61067f610ca5565b83600001518160006003811061069157fe5b6020020181815250508360200151816001600381106106ac57fe5b60200201818152505082816002600381106106c357fe5b602002018181525050600060608360808460076107d05a03fa905080600081146106ec576106ee565bfe5b50806106f957600080fd5b505092915050565b610709610c8b565b610711610cc7565b83600001518160006004811061072357fe5b60200201818152505083602001518160016004811061073e57fe5b60200201818152505082600001518160026004811061075957fe5b60200201818152505082602001518160036004811061077457fe5b602002018181525050600060608360c08460066107d05a03fa9050806000811461079d5761079f565bfe5b50806107aa57600080fd5b505092915050565b6107ba610c8b565b60007f30644e72e131a029b85045b68181585d97816a916871ca8d3c208c16d87cfd479050600083600001511480156107f7575060008360200151145b1561081b576040518060400160405280600081526020016000815250915050610847565b6040518060400160405280846000015181526020018285602001518161083d57fe5b0683038152509150505b919050565b600080600467ffffffffffffffff8111801561086757600080fd5b506040519080825280602002602001820160405280156108a157816020015b61088e610c8b565b8152602001906001900390816108865790505b5090506000600467ffffffffffffffff811180156108be57600080fd5b506040519080825280602002602001820160405280156108f857816020015b6108e5610ce9565b8152602001906001900390816108dd5790505b5090508a8260008151811061090957fe5b6020026020010181905250888260018151811061092257fe5b6020026020010181905250868260028151811061093b57fe5b6020026020010181905250848260038151811061095457fe5b6020026020010181905250898160008151811061096d57fe5b6020026020010181905250878160018151811061098657fe5b6020026020010181905250858160028151811061099f57fe5b602002602001018190525083816003815181106109b857fe5b60200260200101819052506109cd82826109dd565b9250505098975050505050505050565b600081518351146109ed57600080fd5b600083519050600060068202905060008167ffffffffffffffff81118015610a1457600080fd5b50604051908082528060200260200182016040528015610a435781602001602082028036833780820191505090505b50905060005b83811015610be657868181518110610a5d57fe5b602002602001015160000151826000600684020181518110610a7b57fe5b602002602001018181525050868181518110610a9357fe5b602002602001015160200151826001600684020181518110610ab157fe5b602002602001018181525050858181518110610ac957fe5b602002602001015160000151600160028110610ae157fe5b6020020151826002600684020181518110610af857fe5b602002602001018181525050858181518110610b1057fe5b602002602001015160000151600060028110610b2857fe5b6020020151826003600684020181518110610b3f57fe5b602002602001018181525050858181518110610b5757fe5b602002602001015160200151600160028110610b6f57fe5b6020020151826004600684020181518110610b8657fe5b602002602001018181525050858181518110610b9e57fe5b602002602001015160200151600060028110610bb657fe5b6020020151826005600684020181518110610bcd57fe5b6020026020010181815250508080600101915050610a49565b50610bef610d0f565b6000602082602086026020860160086107d05a03fa90508060008114610c1457610c16565bfe5b5080610c2157600080fd5b600082600060018110610c3057fe5b602002015114159550505050505092915050565b6040518060a00160405280610c57610c8b565b8152602001610c64610ce9565b8152602001610c71610ce9565b8152602001610c7e610ce9565b8152602001606081525090565b604051806040016040528060008152602001600081525090565b6040518060600160405280600390602082028036833780820191505090505090565b6040518060800160405280600490602082028036833780820191505090505090565b6040518060400160405280610cfc610d31565b8152602001610d09610d31565b81525090565b6040518060200160405280600190602082028036833780820191505090505090565b6040518060400160405280600290602082028036833780820191505090505090565b6000610d66610d618461100e565b610fdd565b90508082856020860282011115610d7c57600080fd5b60005b85811015610dac5781610d928882610f60565b845260208401935060208301925050600181019050610d7f565b5050509392505050565b6000610dc9610dc484611034565b610fdd565b90508082856020860282011115610ddf57600080fd5b60005b85811015610e0f5781610df58882610f60565b845260208401935060208301925050600181019050610de2565b5050509392505050565b600082601f830112610e2a57600080fd5b6001610e37848285610d53565b91505092915050565b600082601f830112610e5157600080fd5b6002610e5e848285610db6565b91505092915050565b600060408284031215610e7957600080fd5b610e836040610fdd565b90506000610e9384828501610f60565b6000830152506020610ea784828501610f60565b60208301525092915050565b600060808284031215610ec557600080fd5b610ecf6040610fdd565b90506000610edf84828501610e40565b6000830152506040610ef384828501610e40565b60208301525092915050565b60006101008284031215610f1257600080fd5b610f1c6060610fdd565b90506000610f2c84828501610e67565b6000830152506040610f4084828501610eb3565b60208301525060c0610f5484828501610e67565b60408301525092915050565b600081359050610f6f81611072565b92915050565b6000806101208385031215610f8957600080fd5b6000610f9785828601610eff565b925050610100610fa985828601610e19565b9150509250929050565b610fbc8161105a565b82525050565b6000602082019050610fd76000830184610fb3565b92915050565b6000604051905081810181811067ffffffffffffffff8211171561100457611003611070565b5b8060405250919050565b600067ffffffffffffffff82111561102957611028611070565b5b602082029050919050565b600067ffffffffffffffff82111561104f5761104e611070565b5b602082029050919050565b60008115159050919050565b6000819050919050565bfe5b61107b81611066565b811461108657600080fd5b5056fea26469706673582212209896fa3ff8c93b5067d5d6eed5d4dcdc635003409631b6ab969a8ebe5c85d39764736f6c63430007060033",
					"opcodes": "PUSH1 0x80 PUSH1 0x40 MSTORE CALLVALUE DUP1 ISZERO PUSH2 0x10 JUMPI PUSH1 0x0 DUP1 REVERT JUMPDEST POP PUSH2 0x10BF DUP1 PUSH2 0x20 PUSH1 0x0 CODECOPY PUSH1 0x0 RETURN INVALID PUSH1 0x80 PUSH1 0x40 MSTORE CALLVALUE DUP1 ISZERO PUSH2 0x10 JUMPI PUSH1 0x0 DUP1 REVERT JUMPDEST POP PUSH1 0x4 CALLDATASIZE LT PUSH2 0x2B JUMPI PUSH1 0x0 CALLDATALOAD PUSH1 0xE0 SHR DUP1 PUSH4 0xF48D7729 EQ PUSH2 0x30 JUMPI JUMPDEST PUSH1 0x0 DUP1 REVERT JUMPDEST PUSH2 0x4A PUSH1 0x4 DUP1 CALLDATASIZE SUB DUP2 ADD SWAP1 PUSH2 0x45 SWAP2 SWAP1 PUSH2 0xF75 JUMP JUMPDEST PUSH2 0x60 JUMP JUMPDEST PUSH1 0x40 MLOAD PUSH2 0x57 SWAP2 SWAP1 PUSH2 0xFC2 JUMP JUMPDEST PUSH1 0x40 MLOAD DUP1 SWAP2 SUB SWAP1 RETURN JUMPDEST PUSH1 0x0 DUP1 PUSH1 0x1 PUSH8 0xFFFFFFFFFFFFFFFF DUP2 GT DUP1 ISZERO PUSH2 0x7B JUMPI PUSH1 0x0 DUP1 REVERT JUMPDEST POP PUSH1 0x40 MLOAD SWAP1 DUP1 DUP3 MSTORE DUP1 PUSH1 0x20 MUL PUSH1 0x20 ADD DUP3 ADD PUSH1 0x40 MSTORE DUP1 ISZERO PUSH2 0xAA JUMPI DUP2 PUSH1 0x20 ADD PUSH1 0x20 DUP3 MUL DUP1 CALLDATASIZE DUP4 CALLDATACOPY DUP1 DUP3 ADD SWAP2 POP POP SWAP1 POP JUMPDEST POP SWAP1 POP PUSH1 0x0 JUMPDEST PUSH1 0x1 DUP2 LT ISZERO PUSH2 0xEF JUMPI DUP4 DUP2 PUSH1 0x1 DUP2 LT PUSH2 0xC5 JUMPI INVALID JUMPDEST PUSH1 0x20 MUL ADD MLOAD DUP3 DUP3 DUP2 MLOAD DUP2 LT PUSH2 0xD6 JUMPI INVALID JUMPDEST PUSH1 0x20 MUL PUSH1 0x20 ADD ADD DUP2 DUP2 MSTORE POP POP DUP1 DUP1 PUSH1 0x1 ADD SWAP2 POP POP PUSH2 0xB0 JUMP JUMPDEST POP PUSH1 0x0 PUSH2 0xFC DUP3 DUP7 PUSH2 0x118 JUMP JUMPDEST EQ ISZERO PUSH2 0x10C JUMPI PUSH1 0x1 SWAP2 POP POP PUSH2 0x112 JUMP JUMPDEST PUSH1 0x0 SWAP2 POP POP JUMPDEST SWAP3 SWAP2 POP POP JUMP JUMPDEST PUSH1 0x0 DUP1 PUSH32 0x30644E72E131A029B85045B68181585D2833E84879B9709143E1F593F0000001 SWAP1 POP PUSH1 0x0 PUSH2 0x148 PUSH2 0x27B JUMP JUMPDEST SWAP1 POP DUP1 PUSH1 0x80 ADD MLOAD MLOAD PUSH1 0x1 DUP7 MLOAD ADD EQ PUSH2 0x15F JUMPI PUSH1 0x0 DUP1 REVERT JUMPDEST PUSH1 0x0 PUSH1 0x40 MLOAD DUP1 PUSH1 0x40 ADD PUSH1 0x40 MSTORE DUP1 PUSH1 0x0 DUP2 MSTORE PUSH1 0x20 ADD PUSH1 0x0 DUP2 MSTORE POP SWAP1 POP PUSH1 0x0 JUMPDEST DUP7 MLOAD DUP2 LT ISZERO PUSH2 0x1F4 JUMPI DUP4 DUP8 DUP3 DUP2 MLOAD DUP2 LT PUSH2 0x193 JUMPI INVALID JUMPDEST PUSH1 0x20 MUL PUSH1 0x20 ADD ADD MLOAD LT PUSH2 0x1A5 JUMPI PUSH1 0x0 DUP1 REVERT JUMPDEST PUSH2 0x1E5 DUP3 PUSH2 0x1E0 DUP6 PUSH1 0x80 ADD MLOAD PUSH1 0x1 DUP6 ADD DUP2 MLOAD DUP2 LT PUSH2 0x1BF JUMPI INVALID JUMPDEST PUSH1 0x20 MUL PUSH1 0x20 ADD ADD MLOAD DUP11 DUP6 DUP2 MLOAD DUP2 LT PUSH2 0x1D3 JUMPI INVALID JUMPDEST PUSH1 0x20 MUL PUSH1 0x20 ADD ADD MLOAD PUSH2 0x66F JUMP JUMPDEST PUSH2 0x701 JUMP JUMPDEST SWAP2 POP DUP1 DUP1 PUSH1 0x1 ADD SWAP2 POP POP PUSH2 0x17D JUMP JUMPDEST POP PUSH2 0x217 DUP2 DUP4 PUSH1 0x80 ADD MLOAD PUSH1 0x0 DUP2 MLOAD DUP2 LT PUSH2 0x20A JUMPI INVALID JUMPDEST PUSH1 0x20 MUL PUSH1 0x20 ADD ADD MLOAD PUSH2 0x701 JUMP JUMPDEST SWAP1 POP PUSH2 0x25D DUP6 PUSH1 0x0 ADD MLOAD DUP7 PUSH1 0x20 ADD MLOAD PUSH2 0x22F DUP5 PUSH2 0x7B2 JUMP JUMPDEST DUP6 PUSH1 0x40 ADD MLOAD PUSH2 0x241 DUP11 PUSH1 0x40 ADD MLOAD PUSH2 0x7B2 JUMP JUMPDEST DUP8 PUSH1 0x60 ADD MLOAD PUSH2 0x253 DUP10 PUSH1 0x0 ADD MLOAD PUSH2 0x7B2 JUMP JUMPDEST DUP10 PUSH1 0x20 ADD MLOAD PUSH2 0x84C JUMP JUMPDEST PUSH2 0x26D JUMPI PUSH1 0x1 SWAP4 POP POP POP POP PUSH2 0x275 JUMP JUMPDEST PUSH1 0x0 SWAP4 POP POP POP POP JUMPDEST SWAP3 SWAP2 POP POP JUMP JUMPDEST PUSH2 0x283 PUSH2 0xC44 JUMP JUMPDEST PUSH1 0x40 MLOAD DUP1 PUSH1 0x40 ADD PUSH1 0x40 MSTORE DUP1 PUSH32 0x279E985F7F112C664EFB572451FD77300D02C8DD247EF3CD181508A1C72C09EC DUP2 MSTORE PUSH1 0x20 ADD PUSH32 0x2B4F0C7DB13F64DA24AD741A18A874E184661AF7ACD3E65E3C9A730370FB969A DUP2 MSTORE POP DUP2 PUSH1 0x0 ADD DUP2 SWAP1 MSTORE POP PUSH1 0x40 MLOAD DUP1 PUSH1 0x40 ADD PUSH1 0x40 MSTORE DUP1 PUSH1 0x40 MLOAD DUP1 PUSH1 0x40 ADD PUSH1 0x40 MSTORE DUP1 PUSH32 0xD3B4C19DAA587B054D7F39CF23D82AE42AC4E0C881517F3E69B467FC1E57E18 DUP2 MSTORE PUSH1 0x20 ADD PUSH32 0xCFEAED21EC45B3CC31514A05E86EBED17E684570B05D398079D076A7A2674FA DUP2 MSTORE POP DUP2 MSTORE PUSH1 0x20 ADD PUSH1 0x40 MLOAD DUP1 PUSH1 0x40 ADD PUSH1 0x40 MSTORE DUP1 PUSH32 0x1FC8D5CCDE6FFABBD9F55B8F87F9F8ACA6A51766F2981651B31CE47A1C6434FB DUP2 MSTORE PUSH1 0x20 ADD PUSH32 0x22BA52E7737D0099E519711615B272F7F3B9C17819A28DA09DE9488289E02ED8 DUP2 MSTORE POP DUP2 MSTORE POP DUP2 PUSH1 0x20 ADD DUP2 SWAP1 MSTORE POP PUSH1 0x40 MLOAD DUP1 PUSH1 0x40 ADD PUSH1 0x40 MSTORE DUP1 PUSH1 0x40 MLOAD DUP1 PUSH1 0x40 ADD PUSH1 0x40 MSTORE DUP1 PUSH32 0x9111E364336C2E286515C87C6F06C6487AF2BE7A2C5717BB9AF2D9E99DBE3D1 DUP2 MSTORE PUSH1 0x20 ADD PUSH32 0x1AC8F6CD5FC86962EC711262C8A87C71831CC858A17E00200A6AF066A1038857 DUP2 MSTORE POP DUP2 MSTORE PUSH1 0x20 ADD PUSH1 0x40 MLOAD DUP1 PUSH1 0x40 ADD PUSH1 0x40 MSTORE DUP1 PUSH32 0x17F52A350E4C41D3987EF3391A58055716D3553A2A3C97D6F7492E8AB677F0B6 DUP2 MSTORE PUSH1 0x20 ADD PUSH32 0x2F9D19F1218C003002D09237603A7B94C389004AAD77696651E35DD01B6A7B72 DUP2 MSTORE POP DUP2 MSTORE POP DUP2 PUSH1 0x40 ADD DUP2 SWAP1 MSTORE POP PUSH1 0x40 MLOAD DUP1 PUSH1 0x40 ADD PUSH1 0x40 MSTORE DUP1 PUSH1 0x40 MLOAD DUP1 PUSH1 0x40 ADD PUSH1 0x40 MSTORE DUP1 PUSH32 0x23D394975811539663B0780EE63A712EA26D742D6B55C9F96337F24990F22F48 DUP2 MSTORE PUSH1 0x20 ADD PUSH32 0x65AA761E9103F6686FF4CFFD6A1F37265CC874613B55B6EF17AB60D9B6EF074 DUP2 MSTORE POP DUP2 MSTORE PUSH1 0x20 ADD PUSH1 0x40 MLOAD DUP1 PUSH1 0x40 ADD PUSH1 0x40 MSTORE DUP1 PUSH32 0x296FB02ADF5F670C7BEB39875DC82CF21B5CEE85DFDE7EA4D978A84C59D11819 DUP2 MSTORE PUSH1 0x20 ADD PUSH32 0x9CB81CB080ED79887EDD964D107A6FC21B9CEC13511CE9F5A51FEBC5430650C DUP2 MSTORE POP DUP2 MSTORE POP DUP2 PUSH1 0x60 ADD DUP2 SWAP1 MSTORE POP PUSH1 0x2 PUSH8 0xFFFFFFFFFFFFFFFF DUP2 GT DUP1 ISZERO PUSH2 0x547 JUMPI PUSH1 0x0 DUP1 REVERT JUMPDEST POP PUSH1 0x40 MLOAD SWAP1 DUP1 DUP3 MSTORE DUP1 PUSH1 0x20 MUL PUSH1 0x20 ADD DUP3 ADD PUSH1 0x40 MSTORE DUP1 ISZERO PUSH2 0x581 JUMPI DUP2 PUSH1 0x20 ADD JUMPDEST PUSH2 0x56E PUSH2 0xC8B JUMP JUMPDEST DUP2 MSTORE PUSH1 0x20 ADD SWAP1 PUSH1 0x1 SWAP1 SUB SWAP1 DUP2 PUSH2 0x566 JUMPI SWAP1 POP JUMPDEST POP DUP2 PUSH1 0x80 ADD DUP2 SWAP1 MSTORE POP PUSH1 0x40 MLOAD DUP1 PUSH1 0x40 ADD PUSH1 0x40 MSTORE DUP1 PUSH32 0xD908A5650AD5DE280CA9A0CDFA73CC4FEBE207CCEF7BE41F18EF26D6CB097E2 DUP2 MSTORE PUSH1 0x20 ADD PUSH32 0x2498D0C069B66F8A1645E975E52B8A3F16C4A8A94B79E3EB9ECD7D449821C9ED DUP2 MSTORE POP DUP2 PUSH1 0x80 ADD MLOAD PUSH1 0x0 DUP2 MLOAD DUP2 LT PUSH2 0x5F0 JUMPI INVALID JUMPDEST PUSH1 0x20 MUL PUSH1 0x20 ADD ADD DUP2 SWAP1 MSTORE POP PUSH1 0x40 MLOAD DUP1 PUSH1 0x40 ADD PUSH1 0x40 MSTORE DUP1 PUSH32 0xE02FA37C101F36563589A92EBB4326FA27DFD4342754511F95428462D7812B7 DUP2 MSTORE PUSH1 0x20 ADD PUSH32 0x2E832D29854F8365B69B63AE8278A89A1767E7649CD732F26B8D7ECEADEFE592 DUP2 MSTORE POP DUP2 PUSH1 0x80 ADD MLOAD PUSH1 0x1 DUP2 MLOAD DUP2 LT PUSH2 0x661 JUMPI INVALID JUMPDEST PUSH1 0x20 MUL PUSH1 0x20 ADD ADD DUP2 SWAP1 MSTORE POP SWAP1 JUMP JUMPDEST PUSH2 0x677 PUSH2 0xC8B JUMP JUMPDEST PUSH2 0x67F PUSH2 0xCA5 JUMP JUMPDEST DUP4 PUSH1 0x0 ADD MLOAD DUP2 PUSH1 0x0 PUSH1 0x3 DUP2 LT PUSH2 0x691 JUMPI INVALID JUMPDEST PUSH1 0x20 MUL ADD DUP2 DUP2 MSTORE POP POP DUP4 PUSH1 0x20 ADD MLOAD DUP2 PUSH1 0x1 PUSH1 0x3 DUP2 LT PUSH2 0x6AC JUMPI INVALID JUMPDEST PUSH1 0x20 MUL ADD DUP2 DUP2 MSTORE POP POP DUP3 DUP2 PUSH1 0x2 PUSH1 0x3 DUP2 LT PUSH2 0x6C3 JUMPI INVALID JUMPDEST PUSH1 0x20 MUL ADD DUP2 DUP2 MSTORE POP POP PUSH1 0x0 PUSH1 0x60 DUP4 PUSH1 0x80 DUP5 PUSH1 0x7 PUSH2 0x7D0 GAS SUB STATICCALL SWAP1 POP DUP1 PUSH1 0x0 DUP2 EQ PUSH2 0x6EC JUMPI PUSH2 0x6EE JUMP JUMPDEST INVALID JUMPDEST POP DUP1 PUSH2 0x6F9 JUMPI PUSH1 0x0 DUP1 REVERT JUMPDEST POP POP SWAP3 SWAP2 POP POP JUMP JUMPDEST PUSH2 0x709 PUSH2 0xC8B JUMP JUMPDEST PUSH2 0x711 PUSH2 0xCC7 JUMP JUMPDEST DUP4 PUSH1 0x0 ADD MLOAD DUP2 PUSH1 0x0 PUSH1 0x4 DUP2 LT PUSH2 0x723 JUMPI INVALID JUMPDEST PUSH1 0x20 MUL ADD DUP2 DUP2 MSTORE POP POP DUP4 PUSH1 0x20 ADD MLOAD DUP2 PUSH1 0x1 PUSH1 0x4 DUP2 LT PUSH2 0x73E JUMPI INVALID JUMPDEST PUSH1 0x20 MUL ADD DUP2 DUP2 MSTORE POP POP DUP3 PUSH1 0x0 ADD MLOAD DUP2 PUSH1 0x2 PUSH1 0x4 DUP2 LT PUSH2 0x759 JUMPI INVALID JUMPDEST PUSH1 0x20 MUL ADD DUP2 DUP2 MSTORE POP POP DUP3 PUSH1 0x20 ADD MLOAD DUP2 PUSH1 0x3 PUSH1 0x4 DUP2 LT PUSH2 0x774 JUMPI INVALID JUMPDEST PUSH1 0x20 MUL ADD DUP2 DUP2 MSTORE POP POP PUSH1 0x0 PUSH1 0x60 DUP4 PUSH1 0xC0 DUP5 PUSH1 0x6 PUSH2 0x7D0 GAS SUB STATICCALL SWAP1 POP DUP1 PUSH1 0x0 DUP2 EQ PUSH2 0x79D JUMPI PUSH2 0x79F JUMP JUMPDEST INVALID JUMPDEST POP DUP1 PUSH2 0x7AA JUMPI PUSH1 0x0 DUP1 REVERT JUMPDEST POP POP SWAP3 SWAP2 POP POP JUMP JUMPDEST PUSH2 0x7BA PUSH2 0xC8B JUMP JUMPDEST PUSH1 0x0 PUSH32 0x30644E72E131A029B85045B68181585D97816A916871CA8D3C208C16D87CFD47 SWAP1 POP PUSH1 0x0 DUP4 PUSH1 0x0 ADD MLOAD EQ DUP1 ISZERO PUSH2 0x7F7 JUMPI POP PUSH1 0x0 DUP4 PUSH1 0x20 ADD MLOAD EQ JUMPDEST ISZERO PUSH2 0x81B JUMPI PUSH1 0x40 MLOAD DUP1 PUSH1 0x40 ADD PUSH1 0x40 MSTORE DUP1 PUSH1 0x0 DUP2 MSTORE PUSH1 0x20 ADD PUSH1 0x0 DUP2 MSTORE POP SWAP2 POP POP PUSH2 0x847 JUMP JUMPDEST PUSH1 0x40 MLOAD DUP1 PUSH1 0x40 ADD PUSH1 0x40 MSTORE DUP1 DUP5 PUSH1 0x0 ADD MLOAD DUP2 MSTORE PUSH1 0x20 ADD DUP3 DUP6 PUSH1 0x20 ADD MLOAD DUP2 PUSH2 0x83D JUMPI INVALID JUMPDEST MOD DUP4 SUB DUP2 MSTORE POP SWAP2 POP POP JUMPDEST SWAP2 SWAP1 POP JUMP JUMPDEST PUSH1 0x0 DUP1 PUSH1 0x4 PUSH8 0xFFFFFFFFFFFFFFFF DUP2 GT DUP1 ISZERO PUSH2 0x867 JUMPI PUSH1 0x0 DUP1 REVERT JUMPDEST POP PUSH1 0x40 MLOAD SWAP1 DUP1 DUP3 MSTORE DUP1 PUSH1 0x20 MUL PUSH1 0x20 ADD DUP3 ADD PUSH1 0x40 MSTORE DUP1 ISZERO PUSH2 0x8A1 JUMPI DUP2 PUSH1 0x20 ADD JUMPDEST PUSH2 0x88E PUSH2 0xC8B JUMP JUMPDEST DUP2 MSTORE PUSH1 0x20 ADD SWAP1 PUSH1 0x1 SWAP1 SUB SWAP1 DUP2 PUSH2 0x886 JUMPI SWAP1 POP JUMPDEST POP SWAP1 POP PUSH1 0x0 PUSH1 0x4 PUSH8 0xFFFFFFFFFFFFFFFF DUP2 GT DUP1 ISZERO PUSH2 0x8BE JUMPI PUSH1 0x0 DUP1 REVERT JUMPDEST POP PUSH1 0x40 MLOAD SWAP1 DUP1 DUP3 MSTORE DUP1 PUSH1 0x20 MUL PUSH1 0x20 ADD DUP3 ADD PUSH1 0x40 MSTORE DUP1 ISZERO PUSH2 0x8F8 JUMPI DUP2 PUSH1 0x20 ADD JUMPDEST PUSH2 0x8E5 PUSH2 0xCE9 JUMP JUMPDEST DUP2 MSTORE PUSH1 0x20 ADD SWAP1 PUSH1 0x1 SWAP1 SUB SWAP1 DUP2 PUSH2 0x8DD JUMPI SWAP1 POP JUMPDEST POP SWAP1 POP DUP11 DUP3 PUSH1 0x0 DUP2 MLOAD DUP2 LT PUSH2 0x909 JUMPI INVALID JUMPDEST PUSH1 0x20 MUL PUSH1 0x20 ADD ADD DUP2 SWAP1 MSTORE POP DUP9 DUP3 PUSH1 0x1 DUP2 MLOAD DUP2 LT PUSH2 0x922 JUMPI INVALID JUMPDEST PUSH1 0x20 MUL PUSH1 0x20 ADD ADD DUP2 SWAP1 MSTORE POP DUP7 DUP3 PUSH1 0x2 DUP2 MLOAD DUP2 LT PUSH2 0x93B JUMPI INVALID JUMPDEST PUSH1 0x20 MUL PUSH1 0x20 ADD ADD DUP2 SWAP1 MSTORE POP DUP5 DUP3 PUSH1 0x3 DUP2 MLOAD DUP2 LT PUSH2 0x954 JUMPI INVALID JUMPDEST PUSH1 0x20 MUL PUSH1 0x20 ADD ADD DUP2 SWAP1 MSTORE POP DUP10 DUP2 PUSH1 0x0 DUP2 MLOAD DUP2 LT PUSH2 0x96D JUMPI INVALID JUMPDEST PUSH1 0x20 MUL PUSH1 0x20 ADD ADD DUP2 SWAP1 MSTORE POP DUP8 DUP2 PUSH1 0x1 DUP2 MLOAD DUP2 LT PUSH2 0x986 JUMPI INVALID JUMPDEST PUSH1 0x20 MUL PUSH1 0x20 ADD ADD DUP2 SWAP1 MSTORE POP DUP6 DUP2 PUSH1 0x2 DUP2 MLOAD DUP2 LT PUSH2 0x99F JUMPI INVALID JUMPDEST PUSH1 0x20 MUL PUSH1 0x20 ADD ADD DUP2 SWAP1 MSTORE POP DUP4 DUP2 PUSH1 0x3 DUP2 MLOAD DUP2 LT PUSH2 0x9B8 JUMPI INVALID JUMPDEST PUSH1 0x20 MUL PUSH1 0x20 ADD ADD DUP2 SWAP1 MSTORE POP PUSH2 0x9CD DUP3 DUP3 PUSH2 0x9DD JUMP JUMPDEST SWAP3 POP POP POP SWAP9 SWAP8 POP POP POP POP POP POP POP POP JUMP JUMPDEST PUSH1 0x0 DUP2 MLOAD DUP4 MLOAD EQ PUSH2 0x9ED JUMPI PUSH1 0x0 DUP1 REVERT JUMPDEST PUSH1 0x0 DUP4 MLOAD SWAP1 POP PUSH1 0x0 PUSH1 0x6 DUP3 MUL SWAP1 POP PUSH1 0x0 DUP2 PUSH8 0xFFFFFFFFFFFFFFFF DUP2 GT DUP1 ISZERO PUSH2 0xA14 JUMPI PUSH1 0x0 DUP1 REVERT JUMPDEST POP PUSH1 0x40 MLOAD SWAP1 DUP1 DUP3 MSTORE DUP1 PUSH1 0x20 MUL PUSH1 0x20 ADD DUP3 ADD PUSH1 0x40 MSTORE DUP1 ISZERO PUSH2 0xA43 JUMPI DUP2 PUSH1 0x20 ADD PUSH1 0x20 DUP3 MUL DUP1 CALLDATASIZE DUP4 CALLDATACOPY DUP1 DUP3 ADD SWAP2 POP POP SWAP1 POP JUMPDEST POP SWAP1 POP PUSH1 0x0 JUMPDEST DUP4 DUP2 LT ISZERO PUSH2 0xBE6 JUMPI DUP7 DUP2 DUP2 MLOAD DUP2 LT PUSH2 0xA5D JUMPI INVALID JUMPDEST PUSH1 0x20 MUL PUSH1 0x20 ADD ADD MLOAD PUSH1 0x0 ADD MLOAD DUP3 PUSH1 0x0 PUSH1 0x6 DUP5 MUL ADD DUP2 MLOAD DUP2 LT PUSH2 0xA7B JUMPI INVALID JUMPDEST PUSH1 0x20 MUL PUSH1 0x20 ADD ADD DUP2 DUP2 MSTORE POP POP DUP7 DUP2 DUP2 MLOAD DUP2 LT PUSH2 0xA93 JUMPI INVALID JUMPDEST PUSH1 0x20 MUL PUSH1 0x20 ADD ADD MLOAD PUSH1 0x20 ADD MLOAD DUP3 PUSH1 0x1 PUSH1 0x6 DUP5 MUL ADD DUP2 MLOAD DUP2 LT PUSH2 0xAB1 JUMPI INVALID JUMPDEST PUSH1 0x20 MUL PUSH1 0x20 ADD ADD DUP2 DUP2 MSTORE POP POP DUP6 DUP2 DUP2 MLOAD DUP2 LT PUSH2 0xAC9 JUMPI INVALID JUMPDEST PUSH1 0x20 MUL PUSH1 0x20 ADD ADD MLOAD PUSH1 0x0 ADD MLOAD PUSH1 0x1 PUSH1 0x2 DUP2 LT PUSH2 0xAE1 JUMPI INVALID JUMPDEST PUSH1 0x20 MUL ADD MLOAD DUP3 PUSH1 0x2 PUSH1 0x6 DUP5 MUL ADD DUP2 MLOAD DUP2 LT PUSH2 0xAF8 JUMPI INVALID JUMPDEST PUSH1 0x20 MUL PUSH1 0x20 ADD ADD DUP2 DUP2 MSTORE POP POP DUP6 DUP2 DUP2 MLOAD DUP2 LT PUSH2 0xB10 JUMPI INVALID JUMPDEST PUSH1 0x20 MUL PUSH1 0x20 ADD ADD MLOAD PUSH1 0x0 ADD MLOAD PUSH1 0x0 PUSH1 0x2 DUP2 LT PUSH2 0xB28 JUMPI INVALID JUMPDEST PUSH1 0x20 MUL ADD MLOAD DUP3 PUSH1 0x3 PUSH1 0x6 DUP5 MUL ADD DUP2 MLOAD DUP2 LT PUSH2 0xB3F JUMPI INVALID JUMPDEST PUSH1 0x20 MUL PUSH1 0x20 ADD ADD DUP2 DUP2 MSTORE POP POP DUP6 DUP2 DUP2 MLOAD DUP2 LT PUSH2 0xB57 JUMPI INVALID JUMPDEST PUSH1 0x20 MUL PUSH1 0x20 ADD ADD MLOAD PUSH1 0x20 ADD MLOAD PUSH1 0x1 PUSH1 0x2 DUP2 LT PUSH2 0xB6F JUMPI INVALID JUMPDEST PUSH1 0x20 MUL ADD MLOAD DUP3 PUSH1 0x4 PUSH1 0x6 DUP5 MUL ADD DUP2 MLOAD DUP2 LT PUSH2 0xB86 JUMPI INVALID JUMPDEST PUSH1 0x20 MUL PUSH1 0x20 ADD ADD DUP2 DUP2 MSTORE POP POP DUP6 DUP2 DUP2 MLOAD DUP2 LT PUSH2 0xB9E JUMPI INVALID JUMPDEST PUSH1 0x20 MUL PUSH1 0x20 ADD ADD MLOAD PUSH1 0x20 ADD MLOAD PUSH1 0x0 PUSH1 0x2 DUP2 LT PUSH2 0xBB6 JUMPI INVALID JUMPDEST PUSH1 0x20 MUL ADD MLOAD DUP3 PUSH1 0x5 PUSH1 0x6 DUP5 MUL ADD DUP2 MLOAD DUP2 LT PUSH2 0xBCD JUMPI INVALID JUMPDEST PUSH1 0x20 MUL PUSH1 0x20 ADD ADD DUP2 DUP2 MSTORE POP POP DUP1 DUP1 PUSH1 0x1 ADD SWAP2 POP POP PUSH2 0xA49 JUMP JUMPDEST POP PUSH2 0xBEF PUSH2 0xD0F JUMP JUMPDEST PUSH1 0x0 PUSH1 0x20 DUP3 PUSH1 0x20 DUP7 MUL PUSH1 0x20 DUP7 ADD PUSH1 0x8 PUSH2 0x7D0 GAS SUB STATICCALL SWAP1 POP DUP1 PUSH1 0x0 DUP2 EQ PUSH2 0xC14 JUMPI PUSH2 0xC16 JUMP JUMPDEST INVALID JUMPDEST POP DUP1 PUSH2 0xC21 JUMPI PUSH1 0x0 DUP1 REVERT JUMPDEST PUSH1 0x0 DUP3 PUSH1 0x0 PUSH1 0x1 DUP2 LT PUSH2 0xC30 JUMPI INVALID JUMPDEST PUSH1 0x20 MUL ADD MLOAD EQ ISZERO SWAP6 POP POP POP POP POP POP SWAP3 SWAP2 POP POP JUMP JUMPDEST PUSH1 0x40 MLOAD DUP1 PUSH1 0xA0 ADD PUSH1 0x40 MSTORE DUP1 PUSH2 0xC57 PUSH2 0xC8B JUMP JUMPDEST DUP2 MSTORE PUSH1 0x20 ADD PUSH2 0xC64 PUSH2 0xCE9 JUMP JUMPDEST DUP2 MSTORE PUSH1 0x20 ADD PUSH2 0xC71 PUSH2 0xCE9 JUMP JUMPDEST DUP2 MSTORE PUSH1 0x20 ADD PUSH2 0xC7E PUSH2 0xCE9 JUMP JUMPDEST DUP2 MSTORE PUSH1 0x20 ADD PUSH1 0x60 DUP2 MSTORE POP SWAP1 JUMP JUMPDEST PUSH1 0x40 MLOAD DUP1 PUSH1 0x40 ADD PUSH1 0x40 MSTORE DUP1 PUSH1 0x0 DUP2 MSTORE PUSH1 0x20 ADD PUSH1 0x0 DUP2 MSTORE POP SWAP1 JUMP JUMPDEST PUSH1 0x40 MLOAD DUP1 PUSH1 0x60 ADD PUSH1 0x40 MSTORE DUP1 PUSH1 0x3 SWAP1 PUSH1 0x20 DUP3 MUL DUP1 CALLDATASIZE DUP4 CALLDATACOPY DUP1 DUP3 ADD SWAP2 POP POP SWAP1 POP POP SWAP1 JUMP JUMPDEST PUSH1 0x40 MLOAD DUP1 PUSH1 0x80 ADD PUSH1 0x40 MSTORE DUP1 PUSH1 0x4 SWAP1 PUSH1 0x20 DUP3 MUL DUP1 CALLDATASIZE DUP4 CALLDATACOPY DUP1 DUP3 ADD SWAP2 POP POP SWAP1 POP POP SWAP1 JUMP JUMPDEST PUSH1 0x40 MLOAD DUP1 PUSH1 0x40 ADD PUSH1 0x40 MSTORE DUP1 PUSH2 0xCFC PUSH2 0xD31 JUMP JUMPDEST DUP2 MSTORE PUSH1 0x20 ADD PUSH2 0xD09 PUSH2 0xD31 JUMP JUMPDEST DUP2 MSTORE POP SWAP1 JUMP JUMPDEST PUSH1 0x40 MLOAD DUP1 PUSH1 0x20 ADD PUSH1 0x40 MSTORE DUP1 PUSH1 0x1 SWAP1 PUSH1 0x20 DUP3 MUL DUP1 CALLDATASIZE DUP4 CALLDATACOPY DUP1 DUP3 ADD SWAP2 POP POP SWAP1 POP POP SWAP1 JUMP JUMPDEST PUSH1 0x40 MLOAD DUP1 PUSH1 0x40 ADD PUSH1 0x40 MSTORE DUP1 PUSH1 0x2 SWAP1 PUSH1 0x20 DUP3 MUL DUP1 CALLDATASIZE DUP4 CALLDATACOPY DUP1 DUP3 ADD SWAP2 POP POP SWAP1 POP POP SWAP1 JUMP JUMPDEST PUSH1 0x0 PUSH2 0xD66 PUSH2 0xD61 DUP5 PUSH2 0x100E JUMP JUMPDEST PUSH2 0xFDD JUMP JUMPDEST SWAP1 POP DUP1 DUP3 DUP6 PUSH1 0x20 DUP7 MUL DUP3 ADD GT ISZERO PUSH2 0xD7C JUMPI PUSH1 0x0 DUP1 REVERT JUMPDEST PUSH1 0x0 JUMPDEST DUP6 DUP2 LT ISZERO PUSH2 0xDAC JUMPI DUP2 PUSH2 0xD92 DUP9 DUP3 PUSH2 0xF60 JUMP JUMPDEST DUP5 MSTORE PUSH1 0x20 DUP5 ADD SWAP4 POP PUSH1 0x20 DUP4 ADD SWAP3 POP POP PUSH1 0x1 DUP2 ADD SWAP1 POP PUSH2 0xD7F JUMP JUMPDEST POP POP POP SWAP4 SWAP3 POP POP POP JUMP JUMPDEST PUSH1 0x0 PUSH2 0xDC9 PUSH2 0xDC4 DUP5 PUSH2 0x1034 JUMP JUMPDEST PUSH2 0xFDD JUMP JUMPDEST SWAP1 POP DUP1 DUP3 DUP6 PUSH1 0x20 DUP7 MUL DUP3 ADD GT ISZERO PUSH2 0xDDF JUMPI PUSH1 0x0 DUP1 REVERT JUMPDEST PUSH1 0x0 JUMPDEST DUP6 DUP2 LT ISZERO PUSH2 0xE0F JUMPI DUP2 PUSH2 0xDF5 DUP9 DUP3 PUSH2 0xF60 JUMP JUMPDEST DUP5 MSTORE PUSH1 0x20 DUP5 ADD SWAP4 POP PUSH1 0x20 DUP4 ADD SWAP3 POP POP PUSH1 0x1 DUP2 ADD SWAP1 POP PUSH2 0xDE2 JUMP JUMPDEST POP POP POP SWAP4 SWAP3 POP POP POP JUMP JUMPDEST PUSH1 0x0 DUP3 PUSH1 0x1F DUP4 ADD SLT PUSH2 0xE2A JUMPI PUSH1 0x0 DUP1 REVERT JUMPDEST PUSH1 0x1 PUSH2 0xE37 DUP5 DUP3 DUP6 PUSH2 0xD53 JUMP JUMPDEST SWAP2 POP POP SWAP3 SWAP2 POP POP JUMP JUMPDEST PUSH1 0x0 DUP3 PUSH1 0x1F DUP4 ADD SLT PUSH2 0xE51 JUMPI PUSH1 0x0 DUP1 REVERT JUMPDEST PUSH1 0x2 PUSH2 0xE5E DUP5 DUP3 DUP6 PUSH2 0xDB6 JUMP JUMPDEST SWAP2 POP POP SWAP3 SWAP2 POP POP JUMP JUMPDEST PUSH1 0x0 PUSH1 0x40 DUP3 DUP5 SUB SLT ISZERO PUSH2 0xE79 JUMPI PUSH1 0x0 DUP1 REVERT JUMPDEST PUSH2 0xE83 PUSH1 0x40 PUSH2 0xFDD JUMP JUMPDEST SWAP1 POP PUSH1 0x0 PUSH2 0xE93 DUP5 DUP3 DUP6 ADD PUSH2 0xF60 JUMP JUMPDEST PUSH1 0x0 DUP4 ADD MSTORE POP PUSH1 0x20 PUSH2 0xEA7 DUP5 DUP3 DUP6 ADD PUSH2 0xF60 JUMP JUMPDEST PUSH1 0x20 DUP4 ADD MSTORE POP SWAP3 SWAP2 POP POP JUMP JUMPDEST PUSH1 0x0 PUSH1 0x80 DUP3 DUP5 SUB SLT ISZERO PUSH2 0xEC5 JUMPI PUSH1 0x0 DUP1 REVERT JUMPDEST PUSH2 0xECF PUSH1 0x40 PUSH2 0xFDD JUMP JUMPDEST SWAP1 POP PUSH1 0x0 PUSH2 0xEDF DUP5 DUP3 DUP6 ADD PUSH2 0xE40 JUMP JUMPDEST PUSH1 0x0 DUP4 ADD MSTORE POP PUSH1 0x40 PUSH2 0xEF3 DUP5 DUP3 DUP6 ADD PUSH2 0xE40 JUMP JUMPDEST PUSH1 0x20 DUP4 ADD MSTORE POP SWAP3 SWAP2 POP POP JUMP JUMPDEST PUSH1 0x0 PUSH2 0x100 DUP3 DUP5 SUB SLT ISZERO PUSH2 0xF12 JUMPI PUSH1 0x0 DUP1 REVERT JUMPDEST PUSH2 0xF1C PUSH1 0x60 PUSH2 0xFDD JUMP JUMPDEST SWAP1 POP PUSH1 0x0 PUSH2 0xF2C DUP5 DUP3 DUP6 ADD PUSH2 0xE67 JUMP JUMPDEST PUSH1 0x0 DUP4 ADD MSTORE POP PUSH1 0x40 PUSH2 0xF40 DUP5 DUP3 DUP6 ADD PUSH2 0xEB3 JUMP JUMPDEST PUSH1 0x20 DUP4 ADD MSTORE POP PUSH1 0xC0 PUSH2 0xF54 DUP5 DUP3 DUP6 ADD PUSH2 0xE67 JUMP JUMPDEST PUSH1 0x40 DUP4 ADD MSTORE POP SWAP3 SWAP2 POP POP JUMP JUMPDEST PUSH1 0x0 DUP2 CALLDATALOAD SWAP1 POP PUSH2 0xF6F DUP2 PUSH2 0x1072 JUMP JUMPDEST SWAP3 SWAP2 POP POP JUMP JUMPDEST PUSH1 0x0 DUP1 PUSH2 0x120 DUP4 DUP6 SUB SLT ISZERO PUSH2 0xF89 JUMPI PUSH1 0x0 DUP1 REVERT JUMPDEST PUSH1 0x0 PUSH2 0xF97 DUP6 DUP3 DUP7 ADD PUSH2 0xEFF JUMP JUMPDEST SWAP3 POP POP PUSH2 0x100 PUSH2 0xFA9 DUP6 DUP3 DUP7 ADD PUSH2 0xE19 JUMP JUMPDEST SWAP2 POP POP SWAP3 POP SWAP3 SWAP1 POP JUMP JUMPDEST PUSH2 0xFBC DUP2 PUSH2 0x105A JUMP JUMPDEST DUP3 MSTORE POP POP JUMP JUMPDEST PUSH1 0x0 PUSH1 0x20 DUP3 ADD SWAP1 POP PUSH2 0xFD7 PUSH1 0x0 DUP4 ADD DUP5 PUSH2 0xFB3 JUMP JUMPDEST SWAP3 SWAP2 POP POP JUMP JUMPDEST PUSH1 0x0 PUSH1 0x40 MLOAD SWAP1 POP DUP2 DUP2 ADD DUP2 DUP2 LT PUSH8 0xFFFFFFFFFFFFFFFF DUP3 GT OR ISZERO PUSH2 0x1004 JUMPI PUSH2 0x1003 PUSH2 0x1070 JUMP JUMPDEST JUMPDEST DUP1 PUSH1 0x40 MSTORE POP SWAP2 SWAP1 POP JUMP JUMPDEST PUSH1 0x0 PUSH8 0xFFFFFFFFFFFFFFFF DUP3 GT ISZERO PUSH2 0x1029 JUMPI PUSH2 0x1028 PUSH2 0x1070 JUMP JUMPDEST JUMPDEST PUSH1 0x20 DUP3 MUL SWAP1 POP SWAP2 SWAP1 POP JUMP JUMPDEST PUSH1 0x0 PUSH8 0xFFFFFFFFFFFFFFFF DUP3 GT ISZERO PUSH2 0x104F JUMPI PUSH2 0x104E PUSH2 0x1070 JUMP JUMPDEST JUMPDEST PUSH1 0x20 DUP3 MUL SWAP1 POP SWAP2 SWAP1 POP JUMP JUMPDEST PUSH1 0x0 DUP2 ISZERO ISZERO SWAP1 POP SWAP2 SWAP1 POP JUMP JUMPDEST PUSH1 0x0 DUP2 SWAP1 POP SWAP2 SWAP1 POP JUMP JUMPDEST INVALID JUMPDEST PUSH2 0x107B DUP2 PUSH2 0x1066 JUMP JUMPDEST DUP2 EQ PUSH2 0x1086 JUMPI PUSH1 0x0 DUP1 REVERT JUMPDEST POP JUMP INVALID LOG2 PUSH5 0x6970667358 0x22 SLT KECCAK256 SWAP9 SWAP7 STATICCALL EXTCODEHASH 0xF8 0xC9 EXTCODESIZE POP PUSH8 0xD5D6EED5D4DCDC63 POP SUB BLOCKHASH SWAP7 BALANCE 0xB6 0xAB SWAP7 SWAP11 DUP15 0xBE 0x5C DUP6 0xD3 SWAP8 PUSH5 0x736F6C6343 STOP SMOD MOD STOP CALLER "
				},
				"gasEstimates": {
					"creation": {
						"codeDepositCost": "857400",
						"executionCost": "890",
						"totalCost": "858290"
					},
					"external": {
						"verifyTx(((uint256,uint256),(uint256[2],uint256[2]),(uint256,uint256)),uint256[1])": "infinite"
					},
					"internal": {
						"verify(uint256[] memory,struct Verifier.Proof memory)": "infinite",
						"verifyingKey()": "infinite"
					}
				},
				"methodIdentifiers": {
					"verifyTx(((uint256,uint256),(uint256[2],uint256[2]),(uint256,uint256)),uint256[1])": "f48d7729"
				}
			},
			"storageLayout": {
				"storage": [],
				"types": null
			},
			"userdoc": {
				"kind": "user",
				"methods": {},
				"version": 1
			}
		}
	}
}